{"abi":[{"inputs":[{"internalType":"address","name":"_dai_address","type":"address"},{"internalType":"address","name":"_adai_address","type":"address"},{"internalType":"address","name":"_link","type":"address"},{"internalType":"address","name":"_poolAddressProvider","type":"address"},{"internalType":"address","name":"_oracle","type":"address"},{"internalType":"string","name":"_jobID","type":"string"},{"internalType":"uint256","name":"_fee","type":"uint256"}],"stateMutability":"nonpayable","type":"constructor","name":"constructor"},{"anonymous":false,"inputs":[{"indexed":true,"internalType":"bytes32","name":"id","type":"bytes32"}],"name":"ChainlinkCancelled","type":"event"},{"anonymous":false,"inputs":[{"indexed":true,"internalType":"bytes32","name":"id","type":"bytes32"}],"name":"ChainlinkFulfilled","type":"event"},{"anonymous":false,"inputs":[{"indexed":true,"internalType":"bytes32","name":"id","type":"bytes32"}],"name":"ChainlinkRequested","type":"event"},{"inputs":[{"internalType":"uint256","name":"","type":"uint256"}],"name":"APIaddresses","outputs":[{"internalType":"string","name":"","type":"string"}],"stateMutability":"view","type":"function"},{"inputs":[{"internalType":"address","name":"_customer","type":"address"}],"name":"UpdateOracleData","outputs":[],"stateMutability":"nonpayable","type":"function"},{"inputs":[],"name":"adai","outputs":[{"internalType":"contract IERC20","name":"","type":"address"}],"stateMutability":"view","type":"function"},{"inputs":[],"name":"adai_address","outputs":[{"internalType":"address","name":"","type":"address"}],"stateMutability":"view","type":"function"},{"inputs":[{"internalType":"address","name":"_customer","type":"address"},{"internalType":"address","name":"_donor","type":"address"},{"internalType":"uint256","name":"_value","type":"uint256"}],"name":"addNewCustomer","outputs":[],"stateMutability":"nonpayable","type":"function"},{"inputs":[{"internalType":"int256","name":"","type":"int256"}],"name":"agreementIdToRetrievedData","outputs":[{"internalType":"uint256","name":"","type":"uint256"}],"stateMutability":"view","type":"function"},{"inputs":[],"name":"checkBalance","outputs":[{"internalType":"uint256","name":"dai_balance","type":"uint256"},{"internalType":"uint256","name":"adai_balance","type":"uint256"}],"stateMutability":"view","type":"function"},{"inputs":[],"name":"checkDepositAmount","outputs":[{"internalType":"uint256","name":"deposit","type":"uint256"}],"stateMutability":"view","type":"function"},{"inputs":[{"internalType":"address","name":"_customer","type":"address"}],"name":"checkIdForCustomer","outputs":[{"internalType":"int256","name":"","type":"int256"}],"stateMutability":"view","type":"function"},{"inputs":[{"internalType":"address","name":"_donor","type":"address"}],"name":"checkIdForDonor","outputs":[{"internalType":"int256","name":"","type":"int256"}],"stateMutability":"view","type":"function"},{"inputs":[{"internalType":"int256","name":"agreementId","type":"int256"}],"name":"checkvalueForAgreementId","outputs":[{"internalType":"uint256","name":"","type":"uint256"}],"stateMutability":"view","type":"function"},{"inputs":[],"name":"dai","outputs":[{"internalType":"contract IERC20","name":"","type":"address"}],"stateMutability":"view","type":"function"},{"inputs":[],"name":"dai_address","outputs":[{"internalType":"address","name":"","type":"address"}],"stateMutability":"view","type":"function"},{"inputs":[],"name":"depositedFunds","outputs":[{"internalType":"uint256","name":"","type":"uint256"}],"stateMutability":"view","type":"function"},{"inputs":[],"name":"escapeHatch","outputs":[],"stateMutability":"nonpayable","type":"function"},{"inputs":[{"internalType":"bytes32","name":"_requestId","type":"bytes32"},{"internalType":"uint256","name":"_value","type":"uint256"}],"name":"fulfill","outputs":[],"stateMutability":"nonpayable","type":"function"},{"inputs":[],"name":"lendingPool","outputs":[{"internalType":"contract ILendingPoolV2","name":"","type":"address"}],"stateMutability":"view","type":"function"},{"inputs":[{"internalType":"uint256","name":"","type":"uint256"}],"name":"oracleData","outputs":[{"internalType":"uint256","name":"","type":"uint256"}],"stateMutability":"view","type":"function"},{"inputs":[],"name":"poolAddress","outputs":[{"internalType":"address","name":"","type":"address"}],"stateMutability":"view","type":"function"},{"inputs":[],"name":"poolAddressProvider","outputs":[{"internalType":"address","name":"","type":"address"}],"stateMutability":"view","type":"function"},{"inputs":[],"name":"provider","outputs":[{"internalType":"contract ILendingPoolAddressesProviderV2","name":"","type":"address"}],"stateMutability":"view","type":"function"},{"inputs":[],"name":"retrieveLINK","outputs":[],"stateMutability":"nonpayable","type":"function"},{"inputs":[{"internalType":"address","name":"_customer","type":"address"}],"name":"setBaseLine","outputs":[],"stateMutability":"nonpayable","type":"function"},{"inputs":[{"internalType":"address","name":"_customer","type":"address"}],"name":"settleAgreement","outputs":[],"stateMutability":"nonpayable","type":"function"},{"inputs":[{"internalType":"string","name":"source","type":"string"}],"name":"stringToBytes32","outputs":[{"internalType":"bytes32","name":"result","type":"bytes32"}],"stateMutability":"pure","type":"function"},{"inputs":[],"name":"takeProfits","outputs":[],"stateMutability":"nonpayable","type":"function"},{"inputs":[],"name":"value","outputs":[{"internalType":"uint256","name":"","type":"uint256"}],"stateMutability":"view","type":"function"},{"inputs":[],"name":"viewValueFromOracle","outputs":[{"internalType":"uint256","name":"viewValue","type":"uint256"}],"stateMutability":"view","type":"function"}],"bytecode":"610120604052600160045560168054606461ffff199091161763ffff00001916626400001761ffff60201b19166464000000001761ffff60301b191666020000000000001761ffff60401b1916905560006017553480156200006057600080fd5b5060405162002b4d38038062002b4d833981810160405260e08110156200008657600080fd5b815160208301516040808501516060860151608087015160a088018051945196989597939692959194929382019284640100000000821115620000c857600080fd5b908301906020820185811115620000de57600080fd5b8251640100000000811182820188101715620000f957600080fd5b82525081516020918201929091019080838360005b83811015620001285781810151838201526020016200010e565b50505050905090810190601f168015620001565780820380516001836020036101000a031916815260200191505b50604081815260209283015160078054336001600160a01b03199182161790915560006006556008805482166001600160a01b038f811691909117918290556009805484168f83161790819055600b805485168e84161790819055606093841b6001600160601b031990811660e0529190931b166101005260148054928216929093169190911791829055630261bf8b60e01b855292519196509091169350630261bf8b92600480840193919291829003018186803b1580156200021957600080fd5b505afa1580156200022e573d6000803e3d6000fd5b505050506040513d60208110156200024557600080fd5b5051600a80546001600160a01b03199081166001600160a01b03938416179182905560138054929093169116179055606083901b6001600160601b031916608052620002918262000371565b60a090815260c0829052604080519182019052606c80825262002ae160208301398051620002c891600d916020909101906200043f565b506040518060a00160405280606b815260200162002a0d606b91398051620002f991600e916020909101906200043f565b506040518060a001604052806069815260200162002a786069913980516200032a91600f916020909101906200043f565b506000601081905560118190556012556001600160a01b03851662000359576200035362000395565b62000364565b62000364856200041d565b50505050505050620004db565b805160009082906200038857506000905062000390565b505060208101515b919050565b6200041b73c89bd4e1632d3a43cb03aaad5262cbe4038bc5716001600160a01b03166338cc48316040518163ffffffff1660e01b815260040160206040518083038186803b158015620003e757600080fd5b505afa158015620003fc573d6000803e3d6000fd5b505050506040513d60208110156200041357600080fd5b50516200041d565b565b600280546001600160a01b0319166001600160a01b0392909216919091179055565b828054600181600116156101000203166002900490600052602060002090601f016020900481019282601f106200048257805160ff1916838001178555620004b2565b82800160010185558215620004b2579182015b82811115620004b257825182559160200191906001019062000495565b50620004c0929150620004c4565b5090565b5b80821115620004c05760008155600101620004c5565b60805160601c60a05160c05160e05160601c6101005160601c61248f6200057e6000398061073d52806107fd5280610b03528061144552806115f25280611673528061171152508061057752806106375280610bc65280610c445280610d0e52806110af52806111d35280611284528061138b5280611616528061184852806118ef5280611996525080611cf3525080611c20525080611cd1525061248f6000f3fe608060405234801561001057600080fd5b50600436106101c45760003560e01c80638e8eeaef116100f9578063c8ecc79611610097578063df10cb6911610071578063df10cb69146104fa578063ed83a99b14610502578063f32d684614610528578063f4b9fa7514610530576101c4565b8063c8ecc79614610408578063cfb519281461042e578063dbe50cbc146104d4576101c4565b8063aa4dea00116100d3578063aa4dea0014610387578063b1405d1d146103a4578063bb6cac78146103c1578063c71daccb146103e7576101c4565b80638e8eeaef146103235780639f6a011f14610359578063a59a99731461037f576101c4565b80633fa4f24511610166578063626846161161014057806362684616146102795780636bfac60c14610281578063714a181b146103135780638e5332ba1461031b576101c4565b80633fa4f245146102465780634357855e1461024e5780634905e59f14610271576101c4565b80631755ff21116101a25780631755ff211461022657806323e77db31461022e5780632501fecc14610236578063335073eb1461023e576101c4565b8063043c4f9e146101c9578063085d4883146101f85780631554611f1461021c575b600080fd5b6101e6600480360360208110156101df57600080fd5b5035610538565b60408051918252519081900360200190f35b61020061054d565b604080516001600160a01b039092168252519081900360200190f35b61022461055c565b005b610200610ad9565b610224610ae8565b610200610d92565b6101e6610da1565b6101e6610da7565b6102246004803603604081101561026457600080fd5b5080359060200135610dad565b610200610ef6565b610200610f05565b61029e6004803603602081101561029757600080fd5b5035610f14565b6040805160208082528351818301528351919283929083019185019080838360005b838110156102d85781810151838201526020016102c0565b50505050905090810190601f1680156103055780820380516001836020036101000a031916815260200191505b509250505060405180910390f35b6101e6610faf565b6101e6610fb5565b6102246004803603606081101561033957600080fd5b506001600160a01b03813581169160208101359091169060400135610fbb565b6102246004803603602081101561036f57600080fd5b50356001600160a01b0316611142565b610200611336565b6101e66004803603602081101561039d57600080fd5b5035611345565b6101e6600480360360208110156103ba57600080fd5b5035611359565b6101e6600480360360208110156103d757600080fd5b50356001600160a01b031661136b565b6103ef611386565b6040805192835260208301919091528051918290030190f35b6102246004803603602081101561041e57600080fd5b50356001600160a01b03166114be565b6101e66004803603602081101561044457600080fd5b81019060208101813564010000000081111561045f57600080fd5b82018360208201111561047157600080fd5b8035906020019184600183028401116401000000008311171561049357600080fd5b91908080601f0160208091040260200160405190810160405280939291908181526020018383808284376000920191909152509295506114fd945050505050565b6101e6600480360360208110156104ea57600080fd5b50356001600160a01b031661151b565b610224611536565b6102246004803603602081101561051857600080fd5b50356001600160a01b03166115b1565b6102006115f0565b610200611614565b6000818152601c60205260409020545b919050565b6014546001600160a01b031681565b6007546001600160a01b0316331461057357600080fd5b60007f00000000000000000000000000000000000000000000000000000000000000006001600160a01b03166370a08231306040518263ffffffff1660e01b815260040180826001600160a01b0316815260200191505060206040518083038186803b1580156105e257600080fd5b505afa1580156105f6573d6000803e3d6000fd5b505050506040513d602081101561060c57600080fd5b5051111561073957600754604080516370a0823160e01b815230600482015290516001600160a01b037f000000000000000000000000000000000000000000000000000000000000000081169363a9059cbb9391169184916370a08231916024808301926020929190829003018186803b15801561068957600080fd5b505afa15801561069d573d6000803e3d6000fd5b505050506040513d60208110156106b357600080fd5b5051604080516001600160e01b031960e086901b1681526001600160a01b03909316600484015260248301919091525160448083019260209291908290030181600087803b15801561070457600080fd5b505af1158015610718573d6000803e3d6000fd5b505050506040513d602081101561072e57600080fd5b505161073957600080fd5b60007f00000000000000000000000000000000000000000000000000000000000000006001600160a01b03166370a08231306040518263ffffffff1660e01b815260040180826001600160a01b0316815260200191505060206040518083038186803b1580156107a857600080fd5b505afa1580156107bc573d6000803e3d6000fd5b505050506040513d60208110156107d257600080fd5b505111156108ff57600754604080516370a0823160e01b815230600482015290516001600160a01b037f000000000000000000000000000000000000000000000000000000000000000081169363a9059cbb9391169184916370a08231916024808301926020929190829003018186803b15801561084f57600080fd5b505afa158015610863573d6000803e3d6000fd5b505050506040513d602081101561087957600080fd5b5051604080516001600160e01b031960e086901b1681526001600160a01b03909316600484015260248301919091525160448083019260209291908290030181600087803b1580156108ca57600080fd5b505af11580156108de573d6000803e3d6000fd5b505050506040513d60208110156108f457600080fd5b50516108ff57600080fd5b6000610909611638565b90506000816001600160a01b03166370a08231306040518263ffffffff1660e01b815260040180826001600160a01b0316815260200191505060206040518083038186803b15801561095a57600080fd5b505afa15801561096e573d6000803e3d6000fd5b505050506040513d602081101561098457600080fd5b50511115610ad657806001600160a01b031663a9059cbb33836001600160a01b03166370a08231306040518263ffffffff1660e01b815260040180826001600160a01b0316815260200191505060206040518083038186803b1580156109e957600080fd5b505afa1580156109fd573d6000803e3d6000fd5b505050506040513d6020811015610a1357600080fd5b5051604080516001600160e01b031960e086901b1681526001600160a01b03909316600484015260248301919091525160448083019260209291908290030181600087803b158015610a6457600080fd5b505af1158015610a78573d6000803e3d6000fd5b505050506040513d6020811015610a8e57600080fd5b5051610ad6576040805162461bcd60e51b81526020600482015260126024820152712ab730b13632903a37903a3930b739b332b960711b604482015290519081900360640190fd5b50565b600a546001600160a01b031681565b6007546001600160a01b03163314610aff57600080fd5b60007f00000000000000000000000000000000000000000000000000000000000000006001600160a01b03166370a08231306040518263ffffffff1660e01b815260040180826001600160a01b0316815260200191505060206040518083038186803b158015610b6e57600080fd5b505afa158015610b82573d6000803e3d6000fd5b505050506040513d6020811015610b9857600080fd5b5051600654604080516370a0823160e01b815230600482015290519293509083039182916001600160a01b037f000000000000000000000000000000000000000000000000000000000000000016916370a0823191602480820192602092909190829003018186803b158015610c0d57600080fd5b505afa158015610c21573d6000803e3d6000fd5b505050506040513d6020811015610c3757600080fd5b50511015610ce257610ce27f00000000000000000000000000000000000000000000000000000000000000006001600160a01b03166370a08231306040518263ffffffff1660e01b815260040180826001600160a01b0316815260200191505060206040518083038186803b158015610caf57600080fd5b505afa158015610cc3573d6000803e3d6000fd5b505050506040513d6020811015610cd957600080fd5b50518203611647565b6007546040805163a9059cbb60e01b81526001600160a01b0392831660048201526024810184905290517f00000000000000000000000000000000000000000000000000000000000000009092169163a9059cbb916044808201926020929091908290030181600087803b158015610d5957600080fd5b505af1158015610d6d573d6000803e3d6000fd5b505050506040513d6020811015610d8357600080fd5b5051610d8e57600080fd5b5050565b6009546001600160a01b031681565b60065490565b600c5481565b60008281526005602052604090205482906001600160a01b03163314610e045760405162461bcd60e51b81526004018080602001828103825260288152602001806124046028913960400191505060405180910390fd5b60008181526005602052604080822080546001600160a01b03191690555182917f7cc135e0cebb02c3480ae5d74d377283180a2601f8f644edf7987b009316c63a91a26014548290601090600160a01b900461ffff1660038110610e6457fe5b015560148054600161ffff600160a01b808404821692909201160261ffff60a01b1990911617905560036064601060020154601654640100000000900461ffff160281610ead57fe5b04606460106001015460165462010000900461ffff160281610ecb57fe5b04606460106000015460165461ffff160281610ee357fe5b04010181610eed57fe5b04601555505050565b6008546001600160a01b031681565b600b546001600160a01b031681565b600d8160038110610f2157fe5b018054604080516020601f600260001961010060018816150201909516949094049384018190048102820181019092528281529350830182828015610fa75780601f10610f7c57610100808354040283529160200191610fa7565b820191906000526020600020905b815481529060010190602001808311610f8a57829003601f168201915b505050505081565b60065481565b60155490565b6001600160a01b0383166000908152601860205260408120541315611027576040805162461bcd60e51b815260206004820152601760248201527f637573746f6d657220616c726561647920657869737473000000000000000000604482015290519081900360640190fd5b6006805482019055601780546001600160a01b03808616600090815260186020908152604080832085905587841680845260198352818420869055948352601c825280832087905594548252601a815284822080546001600160a01b0319168517905584516323b872dd60e01b815260048101949094523060248501526044840186905293517f0000000000000000000000000000000000000000000000000000000000000000909216936323b872dd936064808201949293918390030190829087803b1580156110f757600080fd5b505af115801561110b573d6000803e3d6000fd5b505050506040513d602081101561112157600080fd5b505161112c57600080fd5b611134611813565b505060178054600101905550565b6001600160a01b03808216600090815260186020908152604080832054808452601c835281842054601b845282852054601a855283862054601d9095529290942054909491929091169061119584611647565b6000858152601c602090815260408083208054600680549190910390558390556001600160a01b0389168352601890915281205582811115611282577f00000000000000000000000000000000000000000000000000000000000000006001600160a01b031663a9059cbb87866040518363ffffffff1660e01b815260040180836001600160a01b0316815260200182815260200192505050602060405180830381600087803b15801561124857600080fd5b505af115801561125c573d6000803e3d6000fd5b505050506040513d602081101561127257600080fd5b505161127d57600080fd5b61132e565b7f00000000000000000000000000000000000000000000000000000000000000006001600160a01b031663a9059cbb83866040518363ffffffff1660e01b815260040180836001600160a01b0316815260200182815260200192505050602060405180830381600087803b1580156112f957600080fd5b505af115801561130d573d6000803e3d6000fd5b505050506040513d602081101561132357600080fd5b505161132e57600080fd5b505050505050565b6013546001600160a01b031681565b6010816003811061135257fe5b0154905081565b601d6020526000908152604090205481565b6001600160a01b031660009081526019602052604090205490565b6000807f00000000000000000000000000000000000000000000000000000000000000006001600160a01b03166370a08231306040518263ffffffff1660e01b815260040180826001600160a01b0316815260200191505060206040518083038186803b1580156113f657600080fd5b505afa15801561140a573d6000803e3d6000fd5b505050506040513d602081101561142057600080fd5b5051604080516370a0823160e01b815230600482015290519193506001600160a01b037f000000000000000000000000000000000000000000000000000000000000000016916370a0823191602480820192602092909190829003018186803b15801561148c57600080fd5b505afa1580156114a0573d6000803e3d6000fd5b505050506040513d60208110156114b657600080fd5b505191929050565b6001600160a01b0381166000908152601860205260409020546114df611a7e565b6114e7611bb1565b6015546000918252601b60205260409091205550565b80516000908290611512575060009050610548565b50506020015190565b6001600160a01b031660009081526018602052604090205490565b6007546001600160a01b0316331461154d57600080fd5b6000611557611638565b600754604080516370a0823160e01b815230600482015290519293506001600160a01b038085169363a9059cbb939091169184916370a0823191602480820192602092909190829003018186803b1580156109e957600080fd5b6001600160a01b0381166000908152601860205260409020546115d2611a7e565b6115da611bb1565b6015546000918252601d60205260409091205550565b7f000000000000000000000000000000000000000000000000000000000000000081565b7f000000000000000000000000000000000000000000000000000000000000000081565b6002546001600160a01b031690565b600a546040805163095ea7b360e01b81526001600160a01b0392831660048201526024810184905290517f00000000000000000000000000000000000000000000000000000000000000009092169163095ea7b3916044808201926020929091908290030181600087803b1580156116be57600080fd5b505af11580156116d2573d6000803e3d6000fd5b505050506040513d60208110156116e857600080fd5b50506040805163095ea7b360e01b81523060048201526024810183905290516001600160a01b037f0000000000000000000000000000000000000000000000000000000000000000169163095ea7b39160448083019260209291908290030181600087803b15801561175957600080fd5b505af115801561176d573d6000803e3d6000fd5b505050506040513d602081101561178357600080fd5b505060135460085460408051631a4ca37b60e21b81526001600160a01b03928316600482015260248101859052306044820152905191909216916369328dec9160648083019260209291908290030181600087803b1580156117e457600080fd5b505af11580156117f8573d6000803e3d6000fd5b505050506040513d602081101561180e57600080fd5b505050565b600a546040805163095ea7b360e01b81526001600160a01b03928316600482015269d3c21bcecceda1000000602482015290517f00000000000000000000000000000000000000000000000000000000000000009092169163095ea7b3916044808201926020929091908290030181600087803b15801561189357600080fd5b505af11580156118a7573d6000803e3d6000fd5b505050506040513d60208110156118bd57600080fd5b50506040805163095ea7b360e01b815230600482015269d3c21bcecceda1000000602482015290516001600160a01b037f0000000000000000000000000000000000000000000000000000000000000000169163095ea7b39160448083019260209291908290030181600087803b15801561193757600080fd5b505af115801561194b573d6000803e3d6000fd5b505050506040513d602081101561196157600080fd5b5050601354600854604080516370a0823160e01b815230600482015290516001600160a01b039384169363e8eda9df938116927f0000000000000000000000000000000000000000000000000000000000000000909116916370a0823191602480820192602092909190829003018186803b1580156119df57600080fd5b505afa1580156119f3573d6000803e3d6000fd5b505050506040513d6020811015611a0957600080fd5b5051604080516001600160e01b031960e086901b1681526001600160a01b0390931660048401526024830191909152306044830152600060648301819052905160848084019382900301818387803b158015611a6457600080fd5b505af1158015611a78573d6000803e3d6000fd5b50505050565b6007546001600160a01b03163314611a9557600080fd5b60165461ffff80821662010000830482160164010000000090920481169190910116611af25760405162461bcd60e51b815260040180806020018281038252602e81526020018061242c602e913960400191505060405180910390fd5b6014805461ffff60a01b19169055611b97600d60005b01805460408051602060026001851615610100026000190190941693909304601f81018490048402820184019092528181529291830182828015611b8d5780601f10611b6257610100808354040283529160200191611b8d565b820191906000526020600020905b815481529060010190602001808311611b7057829003601f168201915b5050505050611c11565b50611ba4600d6001611b08565b50610ad6600d6002611b08565b60005b60038161ffff161015610ad65760108161ffff1660038110611bd257fe5b0154611c095760168054600161ffff68010000000000000000808404821692909201160269ffff0000000000000000199091161790555b600101611bb4565b6000611c1b612391565b611c4d7f0000000000000000000000000000000000000000000000000000000000000000306321abc2af60e11b611d1e565b60408051808201909152600381526219d95d60ea1b6020820152909150611c7690829085611d43565b611ccc604051806040016040528060048152602001630e0c2e8d60e31b8152506040518060400160405280600d81526020016c3230ba30971817373ab6b132b960991b81525083611d439092919063ffffffff16565b611d177f0000000000000000000000000000000000000000000000000000000000000000827f0000000000000000000000000000000000000000000000000000000000000000611d61565b9392505050565b611d26612391565b611d2e612391565b611d3a81868686611f2f565b95945050505050565b6080830151611d529083611f6c565b608083015161180e9082611f6c565b6004546040805130606090811b60208084019190915260348084018690528451808503909101815260549093018452825192810192909220908601939093526000838152600590915281812080546001600160a01b0319166001600160a01b038816179055905182917fb5e6e01e79f91267dc17b4e6314d5d4d03593d2ceee0fbb452b750bd70ea5af991a26002546001600160a01b0316634000aea08584611e0987611f83565b6040518463ffffffff1660e01b815260040180846001600160a01b0316815260200183815260200180602001828103825283818151815260200191508051906020019080838360005b83811015611e6a578181015183820152602001611e52565b50505050905090810190601f168015611e975780820380516001836020036101000a031916815260200191505b50945050505050602060405180830381600087803b158015611eb857600080fd5b505af1158015611ecc573d6000803e3d6000fd5b505050506040513d6020811015611ee257600080fd5b5051611f1f5760405162461bcd60e51b81526004018080602001828103825260238152602001806123e16023913960400191505060405180910390fd5b6004805460010190559392505050565b611f37612391565b611f4785608001516101006120a7565b50509183526001600160a01b031660208301526001600160e01b031916604082015290565b611f7982600383516120e7565b61180e82826121bb565b6060634042994660e01b6000808460000151856020015186604001518760600151600189608001516000015160405160240180896001600160a01b03168152602001888152602001878152602001866001600160a01b03168152602001856001600160e01b031916815260200184815260200183815260200180602001828103825283818151815260200191508051906020019080838360005b8381101561203557818101518382015260200161201d565b50505050905090810190601f1680156120625780820380516001836020036101000a031916815260200191505b5060408051601f198184030181529190526020810180516001600160e01b03166001600160e01b0319909d169c909c17909b5250989950505050505050505050919050565b6120af6123c6565b60208206156120c45760208206602003820191505b506020808301829052604080518085526000815283019091019052815b92915050565b60178111612108576121028360e0600585901b1683176121d5565b5061180e565b60ff811161213257612125836018611fe0600586901b16176121d5565b50612102838260016121ed565b61ffff811161215d57612150836019611fe0600586901b16176121d5565b50612102838260026121ed565b63ffffffff811161218a5761217d83601a611fe0600586901b16176121d5565b50612102838260046121ed565b67ffffffffffffffff811161180e576121ae83601b611fe0600586901b16176121d5565b50611a78838260086121ed565b6121c36123c6565b611d178384600001515184855161220e565b6121dd6123c6565b611d1783846000015151846122ba565b6121f56123c6565b612206848560000151518585612305565b949350505050565b6122166123c6565b825182111561222457600080fd5b8460200151828501111561224e5761224e856122468760200151878601612363565b60020261237a565b60008086518051876020830101935080888701111561226d5787860182525b505050602084015b602084106122945780518252601f199093019260209182019101612275565b51815160001960208690036101000a019081169019919091161790525083949350505050565b6122c26123c6565b836020015183106122de576122de84856020015160020261237a565b8351805160208583010184815350808514156122fb576001810182525b5093949350505050565b61230d6123c6565b8460200151848301111561232a5761232a8585840160020261237a565b60006001836101000a0390508551838682010185831982511617815250805184870111156123585783860181525b509495945050505050565b6000818311156123745750816120e1565b50919050565b815161238683836120a7565b50611a7883826121bb565b6040805160a0810182526000808252602082018190529181018290526060810191909152608081016123c16123c6565b905290565b60405180604001604052806060815260200160008152509056fe756e61626c6520746f207472616e73666572416e6443616c6c20746f206f7261636c65536f75726365206d75737420626520746865206f7261636c65206f66207468652072657175657374706c6561736520736574207765696768747320666f72206167677265676174696e67206f7261636c652064617461a2646970667358221220387aac71aac974b95eb2c096c9810d8674fd24021ff9604894859e5f1396882d64736f6c634300060c003368747470733a2f2f7261772e67697468756275736572636f6e74656e742e636f6d2f6a6d636f6f6b313138362f6a6d636f6f6b313138362e6769746875622e696f2f6d61696e2f446174612f4272696768744c696e6b446174612f4c616e64736174446174612e6a736f6e68747470733a2f2f7261772e67697468756275736572636f6e74656e742e636f6d2f6a6d636f6f6b313138362f6a6d636f6f6b313138362e6769746875622e696f2f6d61696e2f446174612f4272696768744c696e6b446174612f4d6f646973446174612e6a736f6e68747470733a2f2f7261772e67697468756275736572636f6e74656e742e636f6d2f6a6d636f6f6b313138362f6a6d636f6f6b313138362e6769746875622e696f2f6d61696e2f446174612f4272696768744c696e6b446174612f53656e74696e656c446174612e6a736f6e","bytecodeSha1":"da39a3ee5e6b4b0d3255bfef95601890afd80709","compiler":{"evm_version":"istanbul","optimizer":{"enabled":true,"runs":200},"version":"0.6.12+commit.27d51765"},"contractName":"BrightLink","language":"Solidity","natspec":{"kind":"dev","methods":{"UpdateOracleData(address)":{"details":"assumes remote sensing scripts have been run a second time, updating the API endpoints"},"addNewCustomer(address,address,uint256)":{"details":"Add new customer to contract. Adds customer to mappings, generates new  agreementId. Triggers deposit of funds to Aave pool to begin accruing yield. Adds value to cumulative deposits. Requires remote sensing scripts to have been run to estabish baseline data at API endpoints Requires donor to approve dai transfer before function is called: dai.approve(contract,200e18,{'from':donor}) Approving _value only (rather than unlimited approval) protects against any re-entrancy attack. Removed onlyOwner modifier so anyone can add an agreement if paid for by a donor. Requires donor to have approved a DAI transfer of value >= _value."},"retrieveLINK()":{"details":"release any spare LINK to the contract owner"},"setBaseLine(address)":{"details":"assumes remote sensing scripts have been run setting baseline data at the API endpoints"},"settleAgreement(address)":{"details":"settles the agreement for a given customer by checking the agreed value and paying it to the customer's wallet if the updated values exceeds the baseline. Otherwise, return to donor."},"takeProfits()":{"details":"withdraws enough dai from Aave pool to equal the total accumulated profit and transfers it to the owners wallet always persists enough adai in contract to payout all active agreements"}},"version":1},"opcodes":"PUSH1 0x80 PUSH1 0x40 MSTORE CALLVALUE DUP1 ISZERO PUSH2 0x10 JUMPI PUSH1 0x0 DUP1 REVERT JUMPDEST POP PUSH1 0x4 CALLDATASIZE LT PUSH2 0x1C4 JUMPI PUSH1 0x0 CALLDATALOAD PUSH1 0xE0 SHR DUP1 PUSH4 0x8E8EEAEF GT PUSH2 0xF9 JUMPI DUP1 PUSH4 0xC8ECC796 GT PUSH2 0x97 JUMPI DUP1 PUSH4 0xDF10CB69 GT PUSH2 0x71 JUMPI DUP1 PUSH4 0xDF10CB69 EQ PUSH2 0x4FA JUMPI DUP1 PUSH4 0xED83A99B EQ PUSH2 0x502 JUMPI DUP1 PUSH4 0xF32D6846 EQ PUSH2 0x528 JUMPI DUP1 PUSH4 0xF4B9FA75 EQ PUSH2 0x530 JUMPI PUSH2 0x1C4 JUMP JUMPDEST DUP1 PUSH4 0xC8ECC796 EQ PUSH2 0x408 JUMPI DUP1 PUSH4 0xCFB51928 EQ PUSH2 0x42E JUMPI DUP1 PUSH4 0xDBE50CBC EQ PUSH2 0x4D4 JUMPI PUSH2 0x1C4 JUMP JUMPDEST DUP1 PUSH4 0xAA4DEA00 GT PUSH2 0xD3 JUMPI DUP1 PUSH4 0xAA4DEA00 EQ PUSH2 0x387 JUMPI DUP1 PUSH4 0xB1405D1D EQ PUSH2 0x3A4 JUMPI DUP1 PUSH4 0xBB6CAC78 EQ PUSH2 0x3C1 JUMPI DUP1 PUSH4 0xC71DACCB EQ PUSH2 0x3E7 JUMPI PUSH2 0x1C4 JUMP JUMPDEST DUP1 PUSH4 0x8E8EEAEF EQ PUSH2 0x323 JUMPI DUP1 PUSH4 0x9F6A011F EQ PUSH2 0x359 JUMPI DUP1 PUSH4 0xA59A9973 EQ PUSH2 0x37F JUMPI PUSH2 0x1C4 JUMP JUMPDEST DUP1 PUSH4 0x3FA4F245 GT PUSH2 0x166 JUMPI DUP1 PUSH4 0x62684616 GT PUSH2 0x140 JUMPI DUP1 PUSH4 0x62684616 EQ PUSH2 0x279 JUMPI DUP1 PUSH4 0x6BFAC60C EQ PUSH2 0x281 JUMPI DUP1 PUSH4 0x714A181B EQ PUSH2 0x313 JUMPI DUP1 PUSH4 0x8E5332BA EQ PUSH2 0x31B JUMPI PUSH2 0x1C4 JUMP JUMPDEST DUP1 PUSH4 0x3FA4F245 EQ PUSH2 0x246 JUMPI DUP1 PUSH4 0x4357855E EQ PUSH2 0x24E JUMPI DUP1 PUSH4 0x4905E59F EQ PUSH2 0x271 JUMPI PUSH2 0x1C4 JUMP JUMPDEST DUP1 PUSH4 0x1755FF21 GT PUSH2 0x1A2 JUMPI DUP1 PUSH4 0x1755FF21 EQ PUSH2 0x226 JUMPI DUP1 PUSH4 0x23E77DB3 EQ PUSH2 0x22E JUMPI DUP1 PUSH4 0x2501FECC EQ PUSH2 0x236 JUMPI DUP1 PUSH4 0x335073EB EQ PUSH2 0x23E JUMPI PUSH2 0x1C4 JUMP JUMPDEST DUP1 PUSH4 0x43C4F9E EQ PUSH2 0x1C9 JUMPI DUP1 PUSH4 0x85D4883 EQ PUSH2 0x1F8 JUMPI DUP1 PUSH4 0x1554611F EQ PUSH2 0x21C JUMPI JUMPDEST PUSH1 0x0 DUP1 REVERT JUMPDEST PUSH2 0x1E6 PUSH1 0x4 DUP1 CALLDATASIZE SUB PUSH1 0x20 DUP2 LT ISZERO PUSH2 0x1DF JUMPI PUSH1 0x0 DUP1 REVERT JUMPDEST POP CALLDATALOAD PUSH2 0x538 JUMP JUMPDEST PUSH1 0x40 DUP1 MLOAD SWAP2 DUP3 MSTORE MLOAD SWAP1 DUP2 SWAP1 SUB PUSH1 0x20 ADD SWAP1 RETURN JUMPDEST PUSH2 0x200 PUSH2 0x54D JUMP JUMPDEST PUSH1 0x40 DUP1 MLOAD PUSH1 0x1 PUSH1 0x1 PUSH1 0xA0 SHL SUB SWAP1 SWAP3 AND DUP3 MSTORE MLOAD SWAP1 DUP2 SWAP1 SUB PUSH1 0x20 ADD SWAP1 RETURN JUMPDEST PUSH2 0x224 PUSH2 0x55C JUMP JUMPDEST STOP JUMPDEST PUSH2 0x200 PUSH2 0xAD9 JUMP JUMPDEST PUSH2 0x224 PUSH2 0xAE8 JUMP JUMPDEST PUSH2 0x200 PUSH2 0xD92 JUMP JUMPDEST PUSH2 0x1E6 PUSH2 0xDA1 JUMP JUMPDEST PUSH2 0x1E6 PUSH2 0xDA7 JUMP JUMPDEST PUSH2 0x224 PUSH1 0x4 DUP1 CALLDATASIZE SUB PUSH1 0x40 DUP2 LT ISZERO PUSH2 0x264 JUMPI PUSH1 0x0 DUP1 REVERT JUMPDEST POP DUP1 CALLDATALOAD SWAP1 PUSH1 0x20 ADD CALLDATALOAD PUSH2 0xDAD JUMP JUMPDEST PUSH2 0x200 PUSH2 0xEF6 JUMP JUMPDEST PUSH2 0x200 PUSH2 0xF05 JUMP JUMPDEST PUSH2 0x29E PUSH1 0x4 DUP1 CALLDATASIZE SUB PUSH1 0x20 DUP2 LT ISZERO PUSH2 0x297 JUMPI PUSH1 0x0 DUP1 REVERT JUMPDEST POP CALLDATALOAD PUSH2 0xF14 JUMP JUMPDEST PUSH1 0x40 DUP1 MLOAD PUSH1 0x20 DUP1 DUP3 MSTORE DUP4 MLOAD DUP2 DUP4 ADD MSTORE DUP4 MLOAD SWAP2 SWAP3 DUP4 SWAP3 SWAP1 DUP4 ADD SWAP2 DUP6 ADD SWAP1 DUP1 DUP4 DUP4 PUSH1 0x0 JUMPDEST DUP4 DUP2 LT ISZERO PUSH2 0x2D8 JUMPI DUP2 DUP2 ADD MLOAD DUP4 DUP3 ADD MSTORE PUSH1 0x20 ADD PUSH2 0x2C0 JUMP JUMPDEST POP POP POP POP SWAP1 POP SWAP1 DUP2 ADD SWAP1 PUSH1 0x1F AND DUP1 ISZERO PUSH2 0x305 JUMPI DUP1 DUP3 SUB DUP1 MLOAD PUSH1 0x1 DUP4 PUSH1 0x20 SUB PUSH2 0x100 EXP SUB NOT AND DUP2 MSTORE PUSH1 0x20 ADD SWAP2 POP JUMPDEST POP SWAP3 POP POP POP PUSH1 0x40 MLOAD DUP1 SWAP2 SUB SWAP1 RETURN JUMPDEST PUSH2 0x1E6 PUSH2 0xFAF JUMP JUMPDEST PUSH2 0x1E6 PUSH2 0xFB5 JUMP JUMPDEST PUSH2 0x224 PUSH1 0x4 DUP1 CALLDATASIZE SUB PUSH1 0x60 DUP2 LT ISZERO PUSH2 0x339 JUMPI PUSH1 0x0 DUP1 REVERT JUMPDEST POP PUSH1 0x1 PUSH1 0x1 PUSH1 0xA0 SHL SUB DUP2 CALLDATALOAD DUP2 AND SWAP2 PUSH1 0x20 DUP2 ADD CALLDATALOAD SWAP1 SWAP2 AND SWAP1 PUSH1 0x40 ADD CALLDATALOAD PUSH2 0xFBB JUMP JUMPDEST PUSH2 0x224 PUSH1 0x4 DUP1 CALLDATASIZE SUB PUSH1 0x20 DUP2 LT ISZERO PUSH2 0x36F JUMPI PUSH1 0x0 DUP1 REVERT JUMPDEST POP CALLDATALOAD PUSH1 0x1 PUSH1 0x1 PUSH1 0xA0 SHL SUB AND PUSH2 0x1142 JUMP JUMPDEST PUSH2 0x200 PUSH2 0x1336 JUMP JUMPDEST PUSH2 0x1E6 PUSH1 0x4 DUP1 CALLDATASIZE SUB PUSH1 0x20 DUP2 LT ISZERO PUSH2 0x39D JUMPI PUSH1 0x0 DUP1 REVERT JUMPDEST POP CALLDATALOAD PUSH2 0x1345 JUMP JUMPDEST PUSH2 0x1E6 PUSH1 0x4 DUP1 CALLDATASIZE SUB PUSH1 0x20 DUP2 LT ISZERO PUSH2 0x3BA JUMPI PUSH1 0x0 DUP1 REVERT JUMPDEST POP CALLDATALOAD PUSH2 0x1359 JUMP JUMPDEST PUSH2 0x1E6 PUSH1 0x4 DUP1 CALLDATASIZE SUB PUSH1 0x20 DUP2 LT ISZERO PUSH2 0x3D7 JUMPI PUSH1 0x0 DUP1 REVERT JUMPDEST POP CALLDATALOAD PUSH1 0x1 PUSH1 0x1 PUSH1 0xA0 SHL SUB AND PUSH2 0x136B JUMP JUMPDEST PUSH2 0x3EF PUSH2 0x1386 JUMP JUMPDEST PUSH1 0x40 DUP1 MLOAD SWAP3 DUP4 MSTORE PUSH1 0x20 DUP4 ADD SWAP2 SWAP1 SWAP2 MSTORE DUP1 MLOAD SWAP2 DUP3 SWAP1 SUB ADD SWAP1 RETURN JUMPDEST PUSH2 0x224 PUSH1 0x4 DUP1 CALLDATASIZE SUB PUSH1 0x20 DUP2 LT ISZERO PUSH2 0x41E JUMPI PUSH1 0x0 DUP1 REVERT JUMPDEST POP CALLDATALOAD PUSH1 0x1 PUSH1 0x1 PUSH1 0xA0 SHL SUB AND PUSH2 0x14BE JUMP JUMPDEST PUSH2 0x1E6 PUSH1 0x4 DUP1 CALLDATASIZE SUB PUSH1 0x20 DUP2 LT ISZERO PUSH2 0x444 JUMPI PUSH1 0x0 DUP1 REVERT JUMPDEST DUP2 ADD SWAP1 PUSH1 0x20 DUP2 ADD DUP2 CALLDATALOAD PUSH5 0x100000000 DUP2 GT ISZERO PUSH2 0x45F JUMPI PUSH1 0x0 DUP1 REVERT JUMPDEST DUP3 ADD DUP4 PUSH1 0x20 DUP3 ADD GT ISZERO PUSH2 0x471 JUMPI PUSH1 0x0 DUP1 REVERT JUMPDEST DUP1 CALLDATALOAD SWAP1 PUSH1 0x20 ADD SWAP2 DUP5 PUSH1 0x1 DUP4 MUL DUP5 ADD GT PUSH5 0x100000000 DUP4 GT OR ISZERO PUSH2 0x493 JUMPI PUSH1 0x0 DUP1 REVERT JUMPDEST SWAP2 SWAP1 DUP1 DUP1 PUSH1 0x1F ADD PUSH1 0x20 DUP1 SWAP2 DIV MUL PUSH1 0x20 ADD PUSH1 0x40 MLOAD SWAP1 DUP2 ADD PUSH1 0x40 MSTORE DUP1 SWAP4 SWAP3 SWAP2 SWAP1 DUP2 DUP2 MSTORE PUSH1 0x20 ADD DUP4 DUP4 DUP1 DUP3 DUP5 CALLDATACOPY PUSH1 0x0 SWAP3 ADD SWAP2 SWAP1 SWAP2 MSTORE POP SWAP3 SWAP6 POP PUSH2 0x14FD SWAP5 POP POP POP POP POP JUMP JUMPDEST PUSH2 0x1E6 PUSH1 0x4 DUP1 CALLDATASIZE SUB PUSH1 0x20 DUP2 LT ISZERO PUSH2 0x4EA JUMPI PUSH1 0x0 DUP1 REVERT JUMPDEST POP CALLDATALOAD PUSH1 0x1 PUSH1 0x1 PUSH1 0xA0 SHL SUB AND PUSH2 0x151B JUMP JUMPDEST PUSH2 0x224 PUSH2 0x1536 JUMP JUMPDEST PUSH2 0x224 PUSH1 0x4 DUP1 CALLDATASIZE SUB PUSH1 0x20 DUP2 LT ISZERO PUSH2 0x518 JUMPI PUSH1 0x0 DUP1 REVERT JUMPDEST POP CALLDATALOAD PUSH1 0x1 PUSH1 0x1 PUSH1 0xA0 SHL SUB AND PUSH2 0x15B1 JUMP JUMPDEST PUSH2 0x200 PUSH2 0x15F0 JUMP JUMPDEST PUSH2 0x200 PUSH2 0x1614 JUMP JUMPDEST PUSH1 0x0 DUP2 DUP2 MSTORE PUSH1 0x1C PUSH1 0x20 MSTORE PUSH1 0x40 SWAP1 KECCAK256 SLOAD JUMPDEST SWAP2 SWAP1 POP JUMP JUMPDEST PUSH1 0x14 SLOAD PUSH1 0x1 PUSH1 0x1 PUSH1 0xA0 SHL SUB AND DUP2 JUMP JUMPDEST PUSH1 0x7 SLOAD PUSH1 0x1 PUSH1 0x1 PUSH1 0xA0 SHL SUB AND CALLER EQ PUSH2 0x573 JUMPI PUSH1 0x0 DUP1 REVERT JUMPDEST PUSH1 0x0 PUSH32 0x0 PUSH1 0x1 PUSH1 0x1 PUSH1 0xA0 SHL SUB AND PUSH4 0x70A08231 ADDRESS PUSH1 0x40 MLOAD DUP3 PUSH4 0xFFFFFFFF AND PUSH1 0xE0 SHL DUP2 MSTORE PUSH1 0x4 ADD DUP1 DUP3 PUSH1 0x1 PUSH1 0x1 PUSH1 0xA0 SHL SUB AND DUP2 MSTORE PUSH1 0x20 ADD SWAP2 POP POP PUSH1 0x20 PUSH1 0x40 MLOAD DUP1 DUP4 SUB DUP2 DUP7 DUP1 EXTCODESIZE ISZERO DUP1 ISZERO PUSH2 0x5E2 JUMPI PUSH1 0x0 DUP1 REVERT JUMPDEST POP GAS STATICCALL ISZERO DUP1 ISZERO PUSH2 0x5F6 JUMPI RETURNDATASIZE PUSH1 0x0 DUP1 RETURNDATACOPY RETURNDATASIZE PUSH1 0x0 REVERT JUMPDEST POP POP POP POP PUSH1 0x40 MLOAD RETURNDATASIZE PUSH1 0x20 DUP2 LT ISZERO PUSH2 0x60C JUMPI PUSH1 0x0 DUP1 REVERT JUMPDEST POP MLOAD GT ISZERO PUSH2 0x739 JUMPI PUSH1 0x7 SLOAD PUSH1 0x40 DUP1 MLOAD PUSH4 0x70A08231 PUSH1 0xE0 SHL DUP2 MSTORE ADDRESS PUSH1 0x4 DUP3 ADD MSTORE SWAP1 MLOAD PUSH1 0x1 PUSH1 0x1 PUSH1 0xA0 SHL SUB PUSH32 0x0 DUP2 AND SWAP4 PUSH4 0xA9059CBB SWAP4 SWAP2 AND SWAP2 DUP5 SWAP2 PUSH4 0x70A08231 SWAP2 PUSH1 0x24 DUP1 DUP4 ADD SWAP3 PUSH1 0x20 SWAP3 SWAP2 SWAP1 DUP3 SWAP1 SUB ADD DUP2 DUP7 DUP1 EXTCODESIZE ISZERO DUP1 ISZERO PUSH2 0x689 JUMPI PUSH1 0x0 DUP1 REVERT JUMPDEST POP GAS STATICCALL ISZERO DUP1 ISZERO PUSH2 0x69D JUMPI RETURNDATASIZE PUSH1 0x0 DUP1 RETURNDATACOPY RETURNDATASIZE PUSH1 0x0 REVERT JUMPDEST POP POP POP POP PUSH1 0x40 MLOAD RETURNDATASIZE PUSH1 0x20 DUP2 LT ISZERO PUSH2 0x6B3 JUMPI PUSH1 0x0 DUP1 REVERT JUMPDEST POP MLOAD PUSH1 0x40 DUP1 MLOAD PUSH1 0x1 PUSH1 0x1 PUSH1 0xE0 SHL SUB NOT PUSH1 0xE0 DUP7 SWAP1 SHL AND DUP2 MSTORE PUSH1 0x1 PUSH1 0x1 PUSH1 0xA0 SHL SUB SWAP1 SWAP4 AND PUSH1 0x4 DUP5 ADD MSTORE PUSH1 0x24 DUP4 ADD SWAP2 SWAP1 SWAP2 MSTORE MLOAD PUSH1 0x44 DUP1 DUP4 ADD SWAP3 PUSH1 0x20 SWAP3 SWAP2 SWAP1 DUP3 SWAP1 SUB ADD DUP2 PUSH1 0x0 DUP8 DUP1 EXTCODESIZE ISZERO DUP1 ISZERO PUSH2 0x704 JUMPI PUSH1 0x0 DUP1 REVERT JUMPDEST POP GAS CALL ISZERO DUP1 ISZERO PUSH2 0x718 JUMPI RETURNDATASIZE PUSH1 0x0 DUP1 RETURNDATACOPY RETURNDATASIZE PUSH1 0x0 REVERT JUMPDEST POP POP POP POP PUSH1 0x40 MLOAD RETURNDATASIZE PUSH1 0x20 DUP2 LT ISZERO PUSH2 0x72E JUMPI PUSH1 0x0 DUP1 REVERT JUMPDEST POP MLOAD PUSH2 0x739 JUMPI PUSH1 0x0 DUP1 REVERT JUMPDEST PUSH1 0x0 PUSH32 0x0 PUSH1 0x1 PUSH1 0x1 PUSH1 0xA0 SHL SUB AND PUSH4 0x70A08231 ADDRESS PUSH1 0x40 MLOAD DUP3 PUSH4 0xFFFFFFFF AND PUSH1 0xE0 SHL DUP2 MSTORE PUSH1 0x4 ADD DUP1 DUP3 PUSH1 0x1 PUSH1 0x1 PUSH1 0xA0 SHL SUB AND DUP2 MSTORE PUSH1 0x20 ADD SWAP2 POP POP PUSH1 0x20 PUSH1 0x40 MLOAD DUP1 DUP4 SUB DUP2 DUP7 DUP1 EXTCODESIZE ISZERO DUP1 ISZERO PUSH2 0x7A8 JUMPI PUSH1 0x0 DUP1 REVERT JUMPDEST POP GAS STATICCALL ISZERO DUP1 ISZERO PUSH2 0x7BC JUMPI RETURNDATASIZE PUSH1 0x0 DUP1 RETURNDATACOPY RETURNDATASIZE PUSH1 0x0 REVERT JUMPDEST POP POP POP POP PUSH1 0x40 MLOAD RETURNDATASIZE PUSH1 0x20 DUP2 LT ISZERO PUSH2 0x7D2 JUMPI PUSH1 0x0 DUP1 REVERT JUMPDEST POP MLOAD GT ISZERO PUSH2 0x8FF JUMPI PUSH1 0x7 SLOAD PUSH1 0x40 DUP1 MLOAD PUSH4 0x70A08231 PUSH1 0xE0 SHL DUP2 MSTORE ADDRESS PUSH1 0x4 DUP3 ADD MSTORE SWAP1 MLOAD PUSH1 0x1 PUSH1 0x1 PUSH1 0xA0 SHL SUB PUSH32 0x0 DUP2 AND SWAP4 PUSH4 0xA9059CBB SWAP4 SWAP2 AND SWAP2 DUP5 SWAP2 PUSH4 0x70A08231 SWAP2 PUSH1 0x24 DUP1 DUP4 ADD SWAP3 PUSH1 0x20 SWAP3 SWAP2 SWAP1 DUP3 SWAP1 SUB ADD DUP2 DUP7 DUP1 EXTCODESIZE ISZERO DUP1 ISZERO PUSH2 0x84F JUMPI PUSH1 0x0 DUP1 REVERT JUMPDEST POP GAS STATICCALL ISZERO DUP1 ISZERO PUSH2 0x863 JUMPI RETURNDATASIZE PUSH1 0x0 DUP1 RETURNDATACOPY RETURNDATASIZE PUSH1 0x0 REVERT JUMPDEST POP POP POP POP PUSH1 0x40 MLOAD RETURNDATASIZE PUSH1 0x20 DUP2 LT ISZERO PUSH2 0x879 JUMPI PUSH1 0x0 DUP1 REVERT JUMPDEST POP MLOAD PUSH1 0x40 DUP1 MLOAD PUSH1 0x1 PUSH1 0x1 PUSH1 0xE0 SHL SUB NOT PUSH1 0xE0 DUP7 SWAP1 SHL AND DUP2 MSTORE PUSH1 0x1 PUSH1 0x1 PUSH1 0xA0 SHL SUB SWAP1 SWAP4 AND PUSH1 0x4 DUP5 ADD MSTORE PUSH1 0x24 DUP4 ADD SWAP2 SWAP1 SWAP2 MSTORE MLOAD PUSH1 0x44 DUP1 DUP4 ADD SWAP3 PUSH1 0x20 SWAP3 SWAP2 SWAP1 DUP3 SWAP1 SUB ADD DUP2 PUSH1 0x0 DUP8 DUP1 EXTCODESIZE ISZERO DUP1 ISZERO PUSH2 0x8CA JUMPI PUSH1 0x0 DUP1 REVERT JUMPDEST POP GAS CALL ISZERO DUP1 ISZERO PUSH2 0x8DE JUMPI RETURNDATASIZE PUSH1 0x0 DUP1 RETURNDATACOPY RETURNDATASIZE PUSH1 0x0 REVERT JUMPDEST POP POP POP POP PUSH1 0x40 MLOAD RETURNDATASIZE PUSH1 0x20 DUP2 LT ISZERO PUSH2 0x8F4 JUMPI PUSH1 0x0 DUP1 REVERT JUMPDEST POP MLOAD PUSH2 0x8FF JUMPI PUSH1 0x0 DUP1 REVERT JUMPDEST PUSH1 0x0 PUSH2 0x909 PUSH2 0x1638 JUMP JUMPDEST SWAP1 POP PUSH1 0x0 DUP2 PUSH1 0x1 PUSH1 0x1 PUSH1 0xA0 SHL SUB AND PUSH4 0x70A08231 ADDRESS PUSH1 0x40 MLOAD DUP3 PUSH4 0xFFFFFFFF AND PUSH1 0xE0 SHL DUP2 MSTORE PUSH1 0x4 ADD DUP1 DUP3 PUSH1 0x1 PUSH1 0x1 PUSH1 0xA0 SHL SUB AND DUP2 MSTORE PUSH1 0x20 ADD SWAP2 POP POP PUSH1 0x20 PUSH1 0x40 MLOAD DUP1 DUP4 SUB DUP2 DUP7 DUP1 EXTCODESIZE ISZERO DUP1 ISZERO PUSH2 0x95A JUMPI PUSH1 0x0 DUP1 REVERT JUMPDEST POP GAS STATICCALL ISZERO DUP1 ISZERO PUSH2 0x96E JUMPI RETURNDATASIZE PUSH1 0x0 DUP1 RETURNDATACOPY RETURNDATASIZE PUSH1 0x0 REVERT JUMPDEST POP POP POP POP PUSH1 0x40 MLOAD RETURNDATASIZE PUSH1 0x20 DUP2 LT ISZERO PUSH2 0x984 JUMPI PUSH1 0x0 DUP1 REVERT JUMPDEST POP MLOAD GT ISZERO PUSH2 0xAD6 JUMPI DUP1 PUSH1 0x1 PUSH1 0x1 PUSH1 0xA0 SHL SUB AND PUSH4 0xA9059CBB CALLER DUP4 PUSH1 0x1 PUSH1 0x1 PUSH1 0xA0 SHL SUB AND PUSH4 0x70A08231 ADDRESS PUSH1 0x40 MLOAD DUP3 PUSH4 0xFFFFFFFF AND PUSH1 0xE0 SHL DUP2 MSTORE PUSH1 0x4 ADD DUP1 DUP3 PUSH1 0x1 PUSH1 0x1 PUSH1 0xA0 SHL SUB AND DUP2 MSTORE PUSH1 0x20 ADD SWAP2 POP POP PUSH1 0x20 PUSH1 0x40 MLOAD DUP1 DUP4 SUB DUP2 DUP7 DUP1 EXTCODESIZE ISZERO DUP1 ISZERO PUSH2 0x9E9 JUMPI PUSH1 0x0 DUP1 REVERT JUMPDEST POP GAS STATICCALL ISZERO DUP1 ISZERO PUSH2 0x9FD JUMPI RETURNDATASIZE PUSH1 0x0 DUP1 RETURNDATACOPY RETURNDATASIZE PUSH1 0x0 REVERT JUMPDEST POP POP POP POP PUSH1 0x40 MLOAD RETURNDATASIZE PUSH1 0x20 DUP2 LT ISZERO PUSH2 0xA13 JUMPI PUSH1 0x0 DUP1 REVERT JUMPDEST POP MLOAD PUSH1 0x40 DUP1 MLOAD PUSH1 0x1 PUSH1 0x1 PUSH1 0xE0 SHL SUB NOT PUSH1 0xE0 DUP7 SWAP1 SHL AND DUP2 MSTORE PUSH1 0x1 PUSH1 0x1 PUSH1 0xA0 SHL SUB SWAP1 SWAP4 AND PUSH1 0x4 DUP5 ADD MSTORE PUSH1 0x24 DUP4 ADD SWAP2 SWAP1 SWAP2 MSTORE MLOAD PUSH1 0x44 DUP1 DUP4 ADD SWAP3 PUSH1 0x20 SWAP3 SWAP2 SWAP1 DUP3 SWAP1 SUB ADD DUP2 PUSH1 0x0 DUP8 DUP1 EXTCODESIZE ISZERO DUP1 ISZERO PUSH2 0xA64 JUMPI PUSH1 0x0 DUP1 REVERT JUMPDEST POP GAS CALL ISZERO DUP1 ISZERO PUSH2 0xA78 JUMPI RETURNDATASIZE PUSH1 0x0 DUP1 RETURNDATACOPY RETURNDATASIZE PUSH1 0x0 REVERT JUMPDEST POP POP POP POP PUSH1 0x40 MLOAD RETURNDATASIZE PUSH1 0x20 DUP2 LT ISZERO PUSH2 0xA8E JUMPI PUSH1 0x0 DUP1 REVERT JUMPDEST POP MLOAD PUSH2 0xAD6 JUMPI PUSH1 0x40 DUP1 MLOAD PUSH3 0x461BCD PUSH1 0xE5 SHL DUP2 MSTORE PUSH1 0x20 PUSH1 0x4 DUP3 ADD MSTORE PUSH1 0x12 PUSH1 0x24 DUP3 ADD MSTORE PUSH18 0x2AB730B13632903A37903A3930B739B332B9 PUSH1 0x71 SHL PUSH1 0x44 DUP3 ADD MSTORE SWAP1 MLOAD SWAP1 DUP2 SWAP1 SUB PUSH1 0x64 ADD SWAP1 REVERT JUMPDEST POP JUMP JUMPDEST PUSH1 0xA SLOAD PUSH1 0x1 PUSH1 0x1 PUSH1 0xA0 SHL SUB AND DUP2 JUMP JUMPDEST PUSH1 0x7 SLOAD PUSH1 0x1 PUSH1 0x1 PUSH1 0xA0 SHL SUB AND CALLER EQ PUSH2 0xAFF JUMPI PUSH1 0x0 DUP1 REVERT JUMPDEST PUSH1 0x0 PUSH32 0x0 PUSH1 0x1 PUSH1 0x1 PUSH1 0xA0 SHL SUB AND PUSH4 0x70A08231 ADDRESS PUSH1 0x40 MLOAD DUP3 PUSH4 0xFFFFFFFF AND PUSH1 0xE0 SHL DUP2 MSTORE PUSH1 0x4 ADD DUP1 DUP3 PUSH1 0x1 PUSH1 0x1 PUSH1 0xA0 SHL SUB AND DUP2 MSTORE PUSH1 0x20 ADD SWAP2 POP POP PUSH1 0x20 PUSH1 0x40 MLOAD DUP1 DUP4 SUB DUP2 DUP7 DUP1 EXTCODESIZE ISZERO DUP1 ISZERO PUSH2 0xB6E JUMPI PUSH1 0x0 DUP1 REVERT JUMPDEST POP GAS STATICCALL ISZERO DUP1 ISZERO PUSH2 0xB82 JUMPI RETURNDATASIZE PUSH1 0x0 DUP1 RETURNDATACOPY RETURNDATASIZE PUSH1 0x0 REVERT JUMPDEST POP POP POP POP PUSH1 0x40 MLOAD RETURNDATASIZE PUSH1 0x20 DUP2 LT ISZERO PUSH2 0xB98 JUMPI PUSH1 0x0 DUP1 REVERT JUMPDEST POP MLOAD PUSH1 0x6 SLOAD PUSH1 0x40 DUP1 MLOAD PUSH4 0x70A08231 PUSH1 0xE0 SHL DUP2 MSTORE ADDRESS PUSH1 0x4 DUP3 ADD MSTORE SWAP1 MLOAD SWAP3 SWAP4 POP SWAP1 DUP4 SUB SWAP2 DUP3 SWAP2 PUSH1 0x1 PUSH1 0x1 PUSH1 0xA0 SHL SUB PUSH32 0x0 AND SWAP2 PUSH4 0x70A08231 SWAP2 PUSH1 0x24 DUP1 DUP3 ADD SWAP3 PUSH1 0x20 SWAP3 SWAP1 SWAP2 SWAP1 DUP3 SWAP1 SUB ADD DUP2 DUP7 DUP1 EXTCODESIZE ISZERO DUP1 ISZERO PUSH2 0xC0D JUMPI PUSH1 0x0 DUP1 REVERT JUMPDEST POP GAS STATICCALL ISZERO DUP1 ISZERO PUSH2 0xC21 JUMPI RETURNDATASIZE PUSH1 0x0 DUP1 RETURNDATACOPY RETURNDATASIZE PUSH1 0x0 REVERT JUMPDEST POP POP POP POP PUSH1 0x40 MLOAD RETURNDATASIZE PUSH1 0x20 DUP2 LT ISZERO PUSH2 0xC37 JUMPI PUSH1 0x0 DUP1 REVERT JUMPDEST POP MLOAD LT ISZERO PUSH2 0xCE2 JUMPI PUSH2 0xCE2 PUSH32 0x0 PUSH1 0x1 PUSH1 0x1 PUSH1 0xA0 SHL SUB AND PUSH4 0x70A08231 ADDRESS PUSH1 0x40 MLOAD DUP3 PUSH4 0xFFFFFFFF AND PUSH1 0xE0 SHL DUP2 MSTORE PUSH1 0x4 ADD DUP1 DUP3 PUSH1 0x1 PUSH1 0x1 PUSH1 0xA0 SHL SUB AND DUP2 MSTORE PUSH1 0x20 ADD SWAP2 POP POP PUSH1 0x20 PUSH1 0x40 MLOAD DUP1 DUP4 SUB DUP2 DUP7 DUP1 EXTCODESIZE ISZERO DUP1 ISZERO PUSH2 0xCAF JUMPI PUSH1 0x0 DUP1 REVERT JUMPDEST POP GAS STATICCALL ISZERO DUP1 ISZERO PUSH2 0xCC3 JUMPI RETURNDATASIZE PUSH1 0x0 DUP1 RETURNDATACOPY RETURNDATASIZE PUSH1 0x0 REVERT JUMPDEST POP POP POP POP PUSH1 0x40 MLOAD RETURNDATASIZE PUSH1 0x20 DUP2 LT ISZERO PUSH2 0xCD9 JUMPI PUSH1 0x0 DUP1 REVERT JUMPDEST POP MLOAD DUP3 SUB PUSH2 0x1647 JUMP JUMPDEST PUSH1 0x7 SLOAD PUSH1 0x40 DUP1 MLOAD PUSH4 0xA9059CBB PUSH1 0xE0 SHL DUP2 MSTORE PUSH1 0x1 PUSH1 0x1 PUSH1 0xA0 SHL SUB SWAP3 DUP4 AND PUSH1 0x4 DUP3 ADD MSTORE PUSH1 0x24 DUP2 ADD DUP5 SWAP1 MSTORE SWAP1 MLOAD PUSH32 0x0 SWAP1 SWAP3 AND SWAP2 PUSH4 0xA9059CBB SWAP2 PUSH1 0x44 DUP1 DUP3 ADD SWAP3 PUSH1 0x20 SWAP3 SWAP1 SWAP2 SWAP1 DUP3 SWAP1 SUB ADD DUP2 PUSH1 0x0 DUP8 DUP1 EXTCODESIZE ISZERO DUP1 ISZERO PUSH2 0xD59 JUMPI PUSH1 0x0 DUP1 REVERT JUMPDEST POP GAS CALL ISZERO DUP1 ISZERO PUSH2 0xD6D JUMPI RETURNDATASIZE PUSH1 0x0 DUP1 RETURNDATACOPY RETURNDATASIZE PUSH1 0x0 REVERT JUMPDEST POP POP POP POP PUSH1 0x40 MLOAD RETURNDATASIZE PUSH1 0x20 DUP2 LT ISZERO PUSH2 0xD83 JUMPI PUSH1 0x0 DUP1 REVERT JUMPDEST POP MLOAD PUSH2 0xD8E JUMPI PUSH1 0x0 DUP1 REVERT JUMPDEST POP POP JUMP JUMPDEST PUSH1 0x9 SLOAD PUSH1 0x1 PUSH1 0x1 PUSH1 0xA0 SHL SUB AND DUP2 JUMP JUMPDEST PUSH1 0x6 SLOAD SWAP1 JUMP JUMPDEST PUSH1 0xC SLOAD DUP2 JUMP JUMPDEST PUSH1 0x0 DUP3 DUP2 MSTORE PUSH1 0x5 PUSH1 0x20 MSTORE PUSH1 0x40 SWAP1 KECCAK256 SLOAD DUP3 SWAP1 PUSH1 0x1 PUSH1 0x1 PUSH1 0xA0 SHL SUB AND CALLER EQ PUSH2 0xE04 JUMPI PUSH1 0x40 MLOAD PUSH3 0x461BCD PUSH1 0xE5 SHL DUP2 MSTORE PUSH1 0x4 ADD DUP1 DUP1 PUSH1 0x20 ADD DUP3 DUP2 SUB DUP3 MSTORE PUSH1 0x28 DUP2 MSTORE PUSH1 0x20 ADD DUP1 PUSH2 0x2404 PUSH1 0x28 SWAP2 CODECOPY PUSH1 0x40 ADD SWAP2 POP POP PUSH1 0x40 MLOAD DUP1 SWAP2 SUB SWAP1 REVERT JUMPDEST PUSH1 0x0 DUP2 DUP2 MSTORE PUSH1 0x5 PUSH1 0x20 MSTORE PUSH1 0x40 DUP1 DUP3 KECCAK256 DUP1 SLOAD PUSH1 0x1 PUSH1 0x1 PUSH1 0xA0 SHL SUB NOT AND SWAP1 SSTORE MLOAD DUP3 SWAP2 PUSH32 0x7CC135E0CEBB02C3480AE5D74D377283180A2601F8F644EDF7987B009316C63A SWAP2 LOG2 PUSH1 0x14 SLOAD DUP3 SWAP1 PUSH1 0x10 SWAP1 PUSH1 0x1 PUSH1 0xA0 SHL SWAP1 DIV PUSH2 0xFFFF AND PUSH1 0x3 DUP2 LT PUSH2 0xE64 JUMPI INVALID JUMPDEST ADD SSTORE PUSH1 0x14 DUP1 SLOAD PUSH1 0x1 PUSH2 0xFFFF PUSH1 0x1 PUSH1 0xA0 SHL DUP1 DUP5 DIV DUP3 AND SWAP3 SWAP1 SWAP3 ADD AND MUL PUSH2 0xFFFF PUSH1 0xA0 SHL NOT SWAP1 SWAP2 AND OR SWAP1 SSTORE PUSH1 0x3 PUSH1 0x64 PUSH1 0x10 PUSH1 0x2 ADD SLOAD PUSH1 0x16 SLOAD PUSH5 0x100000000 SWAP1 DIV PUSH2 0xFFFF AND MUL DUP2 PUSH2 0xEAD JUMPI INVALID JUMPDEST DIV PUSH1 0x64 PUSH1 0x10 PUSH1 0x1 ADD SLOAD PUSH1 0x16 SLOAD PUSH3 0x10000 SWAP1 DIV PUSH2 0xFFFF AND MUL DUP2 PUSH2 0xECB JUMPI INVALID JUMPDEST DIV PUSH1 0x64 PUSH1 0x10 PUSH1 0x0 ADD SLOAD PUSH1 0x16 SLOAD PUSH2 0xFFFF AND MUL DUP2 PUSH2 0xEE3 JUMPI INVALID JUMPDEST DIV ADD ADD DUP2 PUSH2 0xEED JUMPI INVALID JUMPDEST DIV PUSH1 0x15 SSTORE POP POP POP JUMP JUMPDEST PUSH1 0x8 SLOAD PUSH1 0x1 PUSH1 0x1 PUSH1 0xA0 SHL SUB AND DUP2 JUMP JUMPDEST PUSH1 0xB SLOAD PUSH1 0x1 PUSH1 0x1 PUSH1 0xA0 SHL SUB AND DUP2 JUMP JUMPDEST PUSH1 0xD DUP2 PUSH1 0x3 DUP2 LT PUSH2 0xF21 JUMPI INVALID JUMPDEST ADD DUP1 SLOAD PUSH1 0x40 DUP1 MLOAD PUSH1 0x20 PUSH1 0x1F PUSH1 0x2 PUSH1 0x0 NOT PUSH2 0x100 PUSH1 0x1 DUP9 AND ISZERO MUL ADD SWAP1 SWAP6 AND SWAP5 SWAP1 SWAP5 DIV SWAP4 DUP5 ADD DUP2 SWAP1 DIV DUP2 MUL DUP3 ADD DUP2 ADD SWAP1 SWAP3 MSTORE DUP3 DUP2 MSTORE SWAP4 POP DUP4 ADD DUP3 DUP3 DUP1 ISZERO PUSH2 0xFA7 JUMPI DUP1 PUSH1 0x1F LT PUSH2 0xF7C JUMPI PUSH2 0x100 DUP1 DUP4 SLOAD DIV MUL DUP4 MSTORE SWAP2 PUSH1 0x20 ADD SWAP2 PUSH2 0xFA7 JUMP JUMPDEST DUP3 ADD SWAP2 SWAP1 PUSH1 0x0 MSTORE PUSH1 0x20 PUSH1 0x0 KECCAK256 SWAP1 JUMPDEST DUP2 SLOAD DUP2 MSTORE SWAP1 PUSH1 0x1 ADD SWAP1 PUSH1 0x20 ADD DUP1 DUP4 GT PUSH2 0xF8A JUMPI DUP3 SWAP1 SUB PUSH1 0x1F AND DUP3 ADD SWAP2 JUMPDEST POP POP POP POP POP DUP2 JUMP JUMPDEST PUSH1 0x6 SLOAD DUP2 JUMP JUMPDEST PUSH1 0x15 SLOAD SWAP1 JUMP JUMPDEST PUSH1 0x1 PUSH1 0x1 PUSH1 0xA0 SHL SUB DUP4 AND PUSH1 0x0 SWAP1 DUP2 MSTORE PUSH1 0x18 PUSH1 0x20 MSTORE PUSH1 0x40 DUP2 KECCAK256 SLOAD SGT ISZERO PUSH2 0x1027 JUMPI PUSH1 0x40 DUP1 MLOAD PUSH3 0x461BCD PUSH1 0xE5 SHL DUP2 MSTORE PUSH1 0x20 PUSH1 0x4 DUP3 ADD MSTORE PUSH1 0x17 PUSH1 0x24 DUP3 ADD MSTORE PUSH32 0x637573746F6D657220616C726561647920657869737473000000000000000000 PUSH1 0x44 DUP3 ADD MSTORE SWAP1 MLOAD SWAP1 DUP2 SWAP1 SUB PUSH1 0x64 ADD SWAP1 REVERT JUMPDEST PUSH1 0x6 DUP1 SLOAD DUP3 ADD SWAP1 SSTORE PUSH1 0x17 DUP1 SLOAD PUSH1 0x1 PUSH1 0x1 PUSH1 0xA0 SHL SUB DUP1 DUP7 AND PUSH1 0x0 SWAP1 DUP2 MSTORE PUSH1 0x18 PUSH1 0x20 SWAP1 DUP2 MSTORE PUSH1 0x40 DUP1 DUP4 KECCAK256 DUP6 SWAP1 SSTORE DUP8 DUP5 AND DUP1 DUP5 MSTORE PUSH1 0x19 DUP4 MSTORE DUP2 DUP5 KECCAK256 DUP7 SWAP1 SSTORE SWAP5 DUP4 MSTORE PUSH1 0x1C DUP3 MSTORE DUP1 DUP4 KECCAK256 DUP8 SWAP1 SSTORE SWAP5 SLOAD DUP3 MSTORE PUSH1 0x1A DUP2 MSTORE DUP5 DUP3 KECCAK256 DUP1 SLOAD PUSH1 0x1 PUSH1 0x1 PUSH1 0xA0 SHL SUB NOT AND DUP6 OR SWAP1 SSTORE DUP5 MLOAD PUSH4 0x23B872DD PUSH1 0xE0 SHL DUP2 MSTORE PUSH1 0x4 DUP2 ADD SWAP5 SWAP1 SWAP5 MSTORE ADDRESS PUSH1 0x24 DUP6 ADD MSTORE PUSH1 0x44 DUP5 ADD DUP7 SWAP1 MSTORE SWAP4 MLOAD PUSH32 0x0 SWAP1 SWAP3 AND SWAP4 PUSH4 0x23B872DD SWAP4 PUSH1 0x64 DUP1 DUP3 ADD SWAP5 SWAP3 SWAP4 SWAP2 DUP4 SWAP1 SUB ADD SWAP1 DUP3 SWAP1 DUP8 DUP1 EXTCODESIZE ISZERO DUP1 ISZERO PUSH2 0x10F7 JUMPI PUSH1 0x0 DUP1 REVERT JUMPDEST POP GAS CALL ISZERO DUP1 ISZERO PUSH2 0x110B JUMPI RETURNDATASIZE PUSH1 0x0 DUP1 RETURNDATACOPY RETURNDATASIZE PUSH1 0x0 REVERT JUMPDEST POP POP POP POP PUSH1 0x40 MLOAD RETURNDATASIZE PUSH1 0x20 DUP2 LT ISZERO PUSH2 0x1121 JUMPI PUSH1 0x0 DUP1 REVERT JUMPDEST POP MLOAD PUSH2 0x112C JUMPI PUSH1 0x0 DUP1 REVERT JUMPDEST PUSH2 0x1134 PUSH2 0x1813 JUMP JUMPDEST POP POP PUSH1 0x17 DUP1 SLOAD PUSH1 0x1 ADD SWAP1 SSTORE POP JUMP JUMPDEST PUSH1 0x1 PUSH1 0x1 PUSH1 0xA0 SHL SUB DUP1 DUP3 AND PUSH1 0x0 SWAP1 DUP2 MSTORE PUSH1 0x18 PUSH1 0x20 SWAP1 DUP2 MSTORE PUSH1 0x40 DUP1 DUP4 KECCAK256 SLOAD DUP1 DUP5 MSTORE PUSH1 0x1C DUP4 MSTORE DUP2 DUP5 KECCAK256 SLOAD PUSH1 0x1B DUP5 MSTORE DUP3 DUP6 KECCAK256 SLOAD PUSH1 0x1A DUP6 MSTORE DUP4 DUP7 KECCAK256 SLOAD PUSH1 0x1D SWAP1 SWAP6 MSTORE SWAP3 SWAP1 SWAP5 KECCAK256 SLOAD SWAP1 SWAP5 SWAP2 SWAP3 SWAP1 SWAP2 AND SWAP1 PUSH2 0x1195 DUP5 PUSH2 0x1647 JUMP JUMPDEST PUSH1 0x0 DUP6 DUP2 MSTORE PUSH1 0x1C PUSH1 0x20 SWAP1 DUP2 MSTORE PUSH1 0x40 DUP1 DUP4 KECCAK256 DUP1 SLOAD PUSH1 0x6 DUP1 SLOAD SWAP2 SWAP1 SWAP2 SUB SWAP1 SSTORE DUP4 SWAP1 SSTORE PUSH1 0x1 PUSH1 0x1 PUSH1 0xA0 SHL SUB DUP10 AND DUP4 MSTORE PUSH1 0x18 SWAP1 SWAP2 MSTORE DUP2 KECCAK256 SSTORE DUP3 DUP2 GT ISZERO PUSH2 0x1282 JUMPI PUSH32 0x0 PUSH1 0x1 PUSH1 0x1 PUSH1 0xA0 SHL SUB AND PUSH4 0xA9059CBB DUP8 DUP7 PUSH1 0x40 MLOAD DUP4 PUSH4 0xFFFFFFFF AND PUSH1 0xE0 SHL DUP2 MSTORE PUSH1 0x4 ADD DUP1 DUP4 PUSH1 0x1 PUSH1 0x1 PUSH1 0xA0 SHL SUB AND DUP2 MSTORE PUSH1 0x20 ADD DUP3 DUP2 MSTORE PUSH1 0x20 ADD SWAP3 POP POP POP PUSH1 0x20 PUSH1 0x40 MLOAD DUP1 DUP4 SUB DUP2 PUSH1 0x0 DUP8 DUP1 EXTCODESIZE ISZERO DUP1 ISZERO PUSH2 0x1248 JUMPI PUSH1 0x0 DUP1 REVERT JUMPDEST POP GAS CALL ISZERO DUP1 ISZERO PUSH2 0x125C JUMPI RETURNDATASIZE PUSH1 0x0 DUP1 RETURNDATACOPY RETURNDATASIZE PUSH1 0x0 REVERT JUMPDEST POP POP POP POP PUSH1 0x40 MLOAD RETURNDATASIZE PUSH1 0x20 DUP2 LT ISZERO PUSH2 0x1272 JUMPI PUSH1 0x0 DUP1 REVERT JUMPDEST POP MLOAD PUSH2 0x127D JUMPI PUSH1 0x0 DUP1 REVERT JUMPDEST PUSH2 0x132E JUMP JUMPDEST PUSH32 0x0 PUSH1 0x1 PUSH1 0x1 PUSH1 0xA0 SHL SUB AND PUSH4 0xA9059CBB DUP4 DUP7 PUSH1 0x40 MLOAD DUP4 PUSH4 0xFFFFFFFF AND PUSH1 0xE0 SHL DUP2 MSTORE PUSH1 0x4 ADD DUP1 DUP4 PUSH1 0x1 PUSH1 0x1 PUSH1 0xA0 SHL SUB AND DUP2 MSTORE PUSH1 0x20 ADD DUP3 DUP2 MSTORE PUSH1 0x20 ADD SWAP3 POP POP POP PUSH1 0x20 PUSH1 0x40 MLOAD DUP1 DUP4 SUB DUP2 PUSH1 0x0 DUP8 DUP1 EXTCODESIZE ISZERO DUP1 ISZERO PUSH2 0x12F9 JUMPI PUSH1 0x0 DUP1 REVERT JUMPDEST POP GAS CALL ISZERO DUP1 ISZERO PUSH2 0x130D JUMPI RETURNDATASIZE PUSH1 0x0 DUP1 RETURNDATACOPY RETURNDATASIZE PUSH1 0x0 REVERT JUMPDEST POP POP POP POP PUSH1 0x40 MLOAD RETURNDATASIZE PUSH1 0x20 DUP2 LT ISZERO PUSH2 0x1323 JUMPI PUSH1 0x0 DUP1 REVERT JUMPDEST POP MLOAD PUSH2 0x132E JUMPI PUSH1 0x0 DUP1 REVERT JUMPDEST POP POP POP POP POP POP JUMP JUMPDEST PUSH1 0x13 SLOAD PUSH1 0x1 PUSH1 0x1 PUSH1 0xA0 SHL SUB AND DUP2 JUMP JUMPDEST PUSH1 0x10 DUP2 PUSH1 0x3 DUP2 LT PUSH2 0x1352 JUMPI INVALID JUMPDEST ADD SLOAD SWAP1 POP DUP2 JUMP JUMPDEST PUSH1 0x1D PUSH1 0x20 MSTORE PUSH1 0x0 SWAP1 DUP2 MSTORE PUSH1 0x40 SWAP1 KECCAK256 SLOAD DUP2 JUMP JUMPDEST PUSH1 0x1 PUSH1 0x1 PUSH1 0xA0 SHL SUB AND PUSH1 0x0 SWAP1 DUP2 MSTORE PUSH1 0x19 PUSH1 0x20 MSTORE PUSH1 0x40 SWAP1 KECCAK256 SLOAD SWAP1 JUMP JUMPDEST PUSH1 0x0 DUP1 PUSH32 0x0 PUSH1 0x1 PUSH1 0x1 PUSH1 0xA0 SHL SUB AND PUSH4 0x70A08231 ADDRESS PUSH1 0x40 MLOAD DUP3 PUSH4 0xFFFFFFFF AND PUSH1 0xE0 SHL DUP2 MSTORE PUSH1 0x4 ADD DUP1 DUP3 PUSH1 0x1 PUSH1 0x1 PUSH1 0xA0 SHL SUB AND DUP2 MSTORE PUSH1 0x20 ADD SWAP2 POP POP PUSH1 0x20 PUSH1 0x40 MLOAD DUP1 DUP4 SUB DUP2 DUP7 DUP1 EXTCODESIZE ISZERO DUP1 ISZERO PUSH2 0x13F6 JUMPI PUSH1 0x0 DUP1 REVERT JUMPDEST POP GAS STATICCALL ISZERO DUP1 ISZERO PUSH2 0x140A JUMPI RETURNDATASIZE PUSH1 0x0 DUP1 RETURNDATACOPY RETURNDATASIZE PUSH1 0x0 REVERT JUMPDEST POP POP POP POP PUSH1 0x40 MLOAD RETURNDATASIZE PUSH1 0x20 DUP2 LT ISZERO PUSH2 0x1420 JUMPI PUSH1 0x0 DUP1 REVERT JUMPDEST POP MLOAD PUSH1 0x40 DUP1 MLOAD PUSH4 0x70A08231 PUSH1 0xE0 SHL DUP2 MSTORE ADDRESS PUSH1 0x4 DUP3 ADD MSTORE SWAP1 MLOAD SWAP2 SWAP4 POP PUSH1 0x1 PUSH1 0x1 PUSH1 0xA0 SHL SUB PUSH32 0x0 AND SWAP2 PUSH4 0x70A08231 SWAP2 PUSH1 0x24 DUP1 DUP3 ADD SWAP3 PUSH1 0x20 SWAP3 SWAP1 SWAP2 SWAP1 DUP3 SWAP1 SUB ADD DUP2 DUP7 DUP1 EXTCODESIZE ISZERO DUP1 ISZERO PUSH2 0x148C JUMPI PUSH1 0x0 DUP1 REVERT JUMPDEST POP GAS STATICCALL ISZERO DUP1 ISZERO PUSH2 0x14A0 JUMPI RETURNDATASIZE PUSH1 0x0 DUP1 RETURNDATACOPY RETURNDATASIZE PUSH1 0x0 REVERT JUMPDEST POP POP POP POP PUSH1 0x40 MLOAD RETURNDATASIZE PUSH1 0x20 DUP2 LT ISZERO PUSH2 0x14B6 JUMPI PUSH1 0x0 DUP1 REVERT JUMPDEST POP MLOAD SWAP2 SWAP3 SWAP1 POP JUMP JUMPDEST PUSH1 0x1 PUSH1 0x1 PUSH1 0xA0 SHL SUB DUP2 AND PUSH1 0x0 SWAP1 DUP2 MSTORE PUSH1 0x18 PUSH1 0x20 MSTORE PUSH1 0x40 SWAP1 KECCAK256 SLOAD PUSH2 0x14DF PUSH2 0x1A7E JUMP JUMPDEST PUSH2 0x14E7 PUSH2 0x1BB1 JUMP JUMPDEST PUSH1 0x15 SLOAD PUSH1 0x0 SWAP2 DUP3 MSTORE PUSH1 0x1B PUSH1 0x20 MSTORE PUSH1 0x40 SWAP1 SWAP2 KECCAK256 SSTORE POP JUMP JUMPDEST DUP1 MLOAD PUSH1 0x0 SWAP1 DUP3 SWAP1 PUSH2 0x1512 JUMPI POP PUSH1 0x0 SWAP1 POP PUSH2 0x548 JUMP JUMPDEST POP POP PUSH1 0x20 ADD MLOAD SWAP1 JUMP JUMPDEST PUSH1 0x1 PUSH1 0x1 PUSH1 0xA0 SHL SUB AND PUSH1 0x0 SWAP1 DUP2 MSTORE PUSH1 0x18 PUSH1 0x20 MSTORE PUSH1 0x40 SWAP1 KECCAK256 SLOAD SWAP1 JUMP JUMPDEST PUSH1 0x7 SLOAD PUSH1 0x1 PUSH1 0x1 PUSH1 0xA0 SHL SUB AND CALLER EQ PUSH2 0x154D JUMPI PUSH1 0x0 DUP1 REVERT JUMPDEST PUSH1 0x0 PUSH2 0x1557 PUSH2 0x1638 JUMP JUMPDEST PUSH1 0x7 SLOAD PUSH1 0x40 DUP1 MLOAD PUSH4 0x70A08231 PUSH1 0xE0 SHL DUP2 MSTORE ADDRESS PUSH1 0x4 DUP3 ADD MSTORE SWAP1 MLOAD SWAP3 SWAP4 POP PUSH1 0x1 PUSH1 0x1 PUSH1 0xA0 SHL SUB DUP1 DUP6 AND SWAP4 PUSH4 0xA9059CBB SWAP4 SWAP1 SWAP2 AND SWAP2 DUP5 SWAP2 PUSH4 0x70A08231 SWAP2 PUSH1 0x24 DUP1 DUP3 ADD SWAP3 PUSH1 0x20 SWAP3 SWAP1 SWAP2 SWAP1 DUP3 SWAP1 SUB ADD DUP2 DUP7 DUP1 EXTCODESIZE ISZERO DUP1 ISZERO PUSH2 0x9E9 JUMPI PUSH1 0x0 DUP1 REVERT JUMPDEST PUSH1 0x1 PUSH1 0x1 PUSH1 0xA0 SHL SUB DUP2 AND PUSH1 0x0 SWAP1 DUP2 MSTORE PUSH1 0x18 PUSH1 0x20 MSTORE PUSH1 0x40 SWAP1 KECCAK256 SLOAD PUSH2 0x15D2 PUSH2 0x1A7E JUMP JUMPDEST PUSH2 0x15DA PUSH2 0x1BB1 JUMP JUMPDEST PUSH1 0x15 SLOAD PUSH1 0x0 SWAP2 DUP3 MSTORE PUSH1 0x1D PUSH1 0x20 MSTORE PUSH1 0x40 SWAP1 SWAP2 KECCAK256 SSTORE POP JUMP JUMPDEST PUSH32 0x0 DUP2 JUMP JUMPDEST PUSH32 0x0 DUP2 JUMP JUMPDEST PUSH1 0x2 SLOAD PUSH1 0x1 PUSH1 0x1 PUSH1 0xA0 SHL SUB AND SWAP1 JUMP JUMPDEST PUSH1 0xA SLOAD PUSH1 0x40 DUP1 MLOAD PUSH4 0x95EA7B3 PUSH1 0xE0 SHL DUP2 MSTORE PUSH1 0x1 PUSH1 0x1 PUSH1 0xA0 SHL SUB SWAP3 DUP4 AND PUSH1 0x4 DUP3 ADD MSTORE PUSH1 0x24 DUP2 ADD DUP5 SWAP1 MSTORE SWAP1 MLOAD PUSH32 0x0 SWAP1 SWAP3 AND SWAP2 PUSH4 0x95EA7B3 SWAP2 PUSH1 0x44 DUP1 DUP3 ADD SWAP3 PUSH1 0x20 SWAP3 SWAP1 SWAP2 SWAP1 DUP3 SWAP1 SUB ADD DUP2 PUSH1 0x0 DUP8 DUP1 EXTCODESIZE ISZERO DUP1 ISZERO PUSH2 0x16BE JUMPI PUSH1 0x0 DUP1 REVERT JUMPDEST POP GAS CALL ISZERO DUP1 ISZERO PUSH2 0x16D2 JUMPI RETURNDATASIZE PUSH1 0x0 DUP1 RETURNDATACOPY RETURNDATASIZE PUSH1 0x0 REVERT JUMPDEST POP POP POP POP PUSH1 0x40 MLOAD RETURNDATASIZE PUSH1 0x20 DUP2 LT ISZERO PUSH2 0x16E8 JUMPI PUSH1 0x0 DUP1 REVERT JUMPDEST POP POP PUSH1 0x40 DUP1 MLOAD PUSH4 0x95EA7B3 PUSH1 0xE0 SHL DUP2 MSTORE ADDRESS PUSH1 0x4 DUP3 ADD MSTORE PUSH1 0x24 DUP2 ADD DUP4 SWAP1 MSTORE SWAP1 MLOAD PUSH1 0x1 PUSH1 0x1 PUSH1 0xA0 SHL SUB PUSH32 0x0 AND SWAP2 PUSH4 0x95EA7B3 SWAP2 PUSH1 0x44 DUP1 DUP4 ADD SWAP3 PUSH1 0x20 SWAP3 SWAP2 SWAP1 DUP3 SWAP1 SUB ADD DUP2 PUSH1 0x0 DUP8 DUP1 EXTCODESIZE ISZERO DUP1 ISZERO PUSH2 0x1759 JUMPI PUSH1 0x0 DUP1 REVERT JUMPDEST POP GAS CALL ISZERO DUP1 ISZERO PUSH2 0x176D JUMPI RETURNDATASIZE PUSH1 0x0 DUP1 RETURNDATACOPY RETURNDATASIZE PUSH1 0x0 REVERT JUMPDEST POP POP POP POP PUSH1 0x40 MLOAD RETURNDATASIZE PUSH1 0x20 DUP2 LT ISZERO PUSH2 0x1783 JUMPI PUSH1 0x0 DUP1 REVERT JUMPDEST POP POP PUSH1 0x13 SLOAD PUSH1 0x8 SLOAD PUSH1 0x40 DUP1 MLOAD PUSH4 0x1A4CA37B PUSH1 0xE2 SHL DUP2 MSTORE PUSH1 0x1 PUSH1 0x1 PUSH1 0xA0 SHL SUB SWAP3 DUP4 AND PUSH1 0x4 DUP3 ADD MSTORE PUSH1 0x24 DUP2 ADD DUP6 SWAP1 MSTORE ADDRESS PUSH1 0x44 DUP3 ADD MSTORE SWAP1 MLOAD SWAP2 SWAP1 SWAP3 AND SWAP2 PUSH4 0x69328DEC SWAP2 PUSH1 0x64 DUP1 DUP4 ADD SWAP3 PUSH1 0x20 SWAP3 SWAP2 SWAP1 DUP3 SWAP1 SUB ADD DUP2 PUSH1 0x0 DUP8 DUP1 EXTCODESIZE ISZERO DUP1 ISZERO PUSH2 0x17E4 JUMPI PUSH1 0x0 DUP1 REVERT JUMPDEST POP GAS CALL ISZERO DUP1 ISZERO PUSH2 0x17F8 JUMPI RETURNDATASIZE PUSH1 0x0 DUP1 RETURNDATACOPY RETURNDATASIZE PUSH1 0x0 REVERT JUMPDEST POP POP POP POP PUSH1 0x40 MLOAD RETURNDATASIZE PUSH1 0x20 DUP2 LT ISZERO PUSH2 0x180E JUMPI PUSH1 0x0 DUP1 REVERT JUMPDEST POP POP POP JUMP JUMPDEST PUSH1 0xA SLOAD PUSH1 0x40 DUP1 MLOAD PUSH4 0x95EA7B3 PUSH1 0xE0 SHL DUP2 MSTORE PUSH1 0x1 PUSH1 0x1 PUSH1 0xA0 SHL SUB SWAP3 DUP4 AND PUSH1 0x4 DUP3 ADD MSTORE PUSH10 0xD3C21BCECCEDA1000000 PUSH1 0x24 DUP3 ADD MSTORE SWAP1 MLOAD PUSH32 0x0 SWAP1 SWAP3 AND SWAP2 PUSH4 0x95EA7B3 SWAP2 PUSH1 0x44 DUP1 DUP3 ADD SWAP3 PUSH1 0x20 SWAP3 SWAP1 SWAP2 SWAP1 DUP3 SWAP1 SUB ADD DUP2 PUSH1 0x0 DUP8 DUP1 EXTCODESIZE ISZERO DUP1 ISZERO PUSH2 0x1893 JUMPI PUSH1 0x0 DUP1 REVERT JUMPDEST POP GAS CALL ISZERO DUP1 ISZERO PUSH2 0x18A7 JUMPI RETURNDATASIZE PUSH1 0x0 DUP1 RETURNDATACOPY RETURNDATASIZE PUSH1 0x0 REVERT JUMPDEST POP POP POP POP PUSH1 0x40 MLOAD RETURNDATASIZE PUSH1 0x20 DUP2 LT ISZERO PUSH2 0x18BD JUMPI PUSH1 0x0 DUP1 REVERT JUMPDEST POP POP PUSH1 0x40 DUP1 MLOAD PUSH4 0x95EA7B3 PUSH1 0xE0 SHL DUP2 MSTORE ADDRESS PUSH1 0x4 DUP3 ADD MSTORE PUSH10 0xD3C21BCECCEDA1000000 PUSH1 0x24 DUP3 ADD MSTORE SWAP1 MLOAD PUSH1 0x1 PUSH1 0x1 PUSH1 0xA0 SHL SUB PUSH32 0x0 AND SWAP2 PUSH4 0x95EA7B3 SWAP2 PUSH1 0x44 DUP1 DUP4 ADD SWAP3 PUSH1 0x20 SWAP3 SWAP2 SWAP1 DUP3 SWAP1 SUB ADD DUP2 PUSH1 0x0 DUP8 DUP1 EXTCODESIZE ISZERO DUP1 ISZERO PUSH2 0x1937 JUMPI PUSH1 0x0 DUP1 REVERT JUMPDEST POP GAS CALL ISZERO DUP1 ISZERO PUSH2 0x194B JUMPI RETURNDATASIZE PUSH1 0x0 DUP1 RETURNDATACOPY RETURNDATASIZE PUSH1 0x0 REVERT JUMPDEST POP POP POP POP PUSH1 0x40 MLOAD RETURNDATASIZE PUSH1 0x20 DUP2 LT ISZERO PUSH2 0x1961 JUMPI PUSH1 0x0 DUP1 REVERT JUMPDEST POP POP PUSH1 0x13 SLOAD PUSH1 0x8 SLOAD PUSH1 0x40 DUP1 MLOAD PUSH4 0x70A08231 PUSH1 0xE0 SHL DUP2 MSTORE ADDRESS PUSH1 0x4 DUP3 ADD MSTORE SWAP1 MLOAD PUSH1 0x1 PUSH1 0x1 PUSH1 0xA0 SHL SUB SWAP4 DUP5 AND SWAP4 PUSH4 0xE8EDA9DF SWAP4 DUP2 AND SWAP3 PUSH32 0x0 SWAP1 SWAP2 AND SWAP2 PUSH4 0x70A08231 SWAP2 PUSH1 0x24 DUP1 DUP3 ADD SWAP3 PUSH1 0x20 SWAP3 SWAP1 SWAP2 SWAP1 DUP3 SWAP1 SUB ADD DUP2 DUP7 DUP1 EXTCODESIZE ISZERO DUP1 ISZERO PUSH2 0x19DF JUMPI PUSH1 0x0 DUP1 REVERT JUMPDEST POP GAS STATICCALL ISZERO DUP1 ISZERO PUSH2 0x19F3 JUMPI RETURNDATASIZE PUSH1 0x0 DUP1 RETURNDATACOPY RETURNDATASIZE PUSH1 0x0 REVERT JUMPDEST POP POP POP POP PUSH1 0x40 MLOAD RETURNDATASIZE PUSH1 0x20 DUP2 LT ISZERO PUSH2 0x1A09 JUMPI PUSH1 0x0 DUP1 REVERT JUMPDEST POP MLOAD PUSH1 0x40 DUP1 MLOAD PUSH1 0x1 PUSH1 0x1 PUSH1 0xE0 SHL SUB NOT PUSH1 0xE0 DUP7 SWAP1 SHL AND DUP2 MSTORE PUSH1 0x1 PUSH1 0x1 PUSH1 0xA0 SHL SUB SWAP1 SWAP4 AND PUSH1 0x4 DUP5 ADD MSTORE PUSH1 0x24 DUP4 ADD SWAP2 SWAP1 SWAP2 MSTORE ADDRESS PUSH1 0x44 DUP4 ADD MSTORE PUSH1 0x0 PUSH1 0x64 DUP4 ADD DUP2 SWAP1 MSTORE SWAP1 MLOAD PUSH1 0x84 DUP1 DUP5 ADD SWAP4 DUP3 SWAP1 SUB ADD DUP2 DUP4 DUP8 DUP1 EXTCODESIZE ISZERO DUP1 ISZERO PUSH2 0x1A64 JUMPI PUSH1 0x0 DUP1 REVERT JUMPDEST POP GAS CALL ISZERO DUP1 ISZERO PUSH2 0x1A78 JUMPI RETURNDATASIZE PUSH1 0x0 DUP1 RETURNDATACOPY RETURNDATASIZE PUSH1 0x0 REVERT JUMPDEST POP POP POP POP JUMP JUMPDEST PUSH1 0x7 SLOAD PUSH1 0x1 PUSH1 0x1 PUSH1 0xA0 SHL SUB AND CALLER EQ PUSH2 0x1A95 JUMPI PUSH1 0x0 DUP1 REVERT JUMPDEST PUSH1 0x16 SLOAD PUSH2 0xFFFF DUP1 DUP3 AND PUSH3 0x10000 DUP4 DIV DUP3 AND ADD PUSH5 0x100000000 SWAP1 SWAP3 DIV DUP2 AND SWAP2 SWAP1 SWAP2 ADD AND PUSH2 0x1AF2 JUMPI PUSH1 0x40 MLOAD PUSH3 0x461BCD PUSH1 0xE5 SHL DUP2 MSTORE PUSH1 0x4 ADD DUP1 DUP1 PUSH1 0x20 ADD DUP3 DUP2 SUB DUP3 MSTORE PUSH1 0x2E DUP2 MSTORE PUSH1 0x20 ADD DUP1 PUSH2 0x242C PUSH1 0x2E SWAP2 CODECOPY PUSH1 0x40 ADD SWAP2 POP POP PUSH1 0x40 MLOAD DUP1 SWAP2 SUB SWAP1 REVERT JUMPDEST PUSH1 0x14 DUP1 SLOAD PUSH2 0xFFFF PUSH1 0xA0 SHL NOT AND SWAP1 SSTORE PUSH2 0x1B97 PUSH1 0xD PUSH1 0x0 JUMPDEST ADD DUP1 SLOAD PUSH1 0x40 DUP1 MLOAD PUSH1 0x20 PUSH1 0x2 PUSH1 0x1 DUP6 AND ISZERO PUSH2 0x100 MUL PUSH1 0x0 NOT ADD SWAP1 SWAP5 AND SWAP4 SWAP1 SWAP4 DIV PUSH1 0x1F DUP2 ADD DUP5 SWAP1 DIV DUP5 MUL DUP3 ADD DUP5 ADD SWAP1 SWAP3 MSTORE DUP2 DUP2 MSTORE SWAP3 SWAP2 DUP4 ADD DUP3 DUP3 DUP1 ISZERO PUSH2 0x1B8D JUMPI DUP1 PUSH1 0x1F LT PUSH2 0x1B62 JUMPI PUSH2 0x100 DUP1 DUP4 SLOAD DIV MUL DUP4 MSTORE SWAP2 PUSH1 0x20 ADD SWAP2 PUSH2 0x1B8D JUMP JUMPDEST DUP3 ADD SWAP2 SWAP1 PUSH1 0x0 MSTORE PUSH1 0x20 PUSH1 0x0 KECCAK256 SWAP1 JUMPDEST DUP2 SLOAD DUP2 MSTORE SWAP1 PUSH1 0x1 ADD SWAP1 PUSH1 0x20 ADD DUP1 DUP4 GT PUSH2 0x1B70 JUMPI DUP3 SWAP1 SUB PUSH1 0x1F AND DUP3 ADD SWAP2 JUMPDEST POP POP POP POP POP PUSH2 0x1C11 JUMP JUMPDEST POP PUSH2 0x1BA4 PUSH1 0xD PUSH1 0x1 PUSH2 0x1B08 JUMP JUMPDEST POP PUSH2 0xAD6 PUSH1 0xD PUSH1 0x2 PUSH2 0x1B08 JUMP JUMPDEST PUSH1 0x0 JUMPDEST PUSH1 0x3 DUP2 PUSH2 0xFFFF AND LT ISZERO PUSH2 0xAD6 JUMPI PUSH1 0x10 DUP2 PUSH2 0xFFFF AND PUSH1 0x3 DUP2 LT PUSH2 0x1BD2 JUMPI INVALID JUMPDEST ADD SLOAD PUSH2 0x1C09 JUMPI PUSH1 0x16 DUP1 SLOAD PUSH1 0x1 PUSH2 0xFFFF PUSH9 0x10000000000000000 DUP1 DUP5 DIV DUP3 AND SWAP3 SWAP1 SWAP3 ADD AND MUL PUSH10 0xFFFF0000000000000000 NOT SWAP1 SWAP2 AND OR SWAP1 SSTORE JUMPDEST PUSH1 0x1 ADD PUSH2 0x1BB4 JUMP JUMPDEST PUSH1 0x0 PUSH2 0x1C1B PUSH2 0x2391 JUMP JUMPDEST PUSH2 0x1C4D PUSH32 0x0 ADDRESS PUSH4 0x21ABC2AF PUSH1 0xE1 SHL PUSH2 0x1D1E JUMP JUMPDEST PUSH1 0x40 DUP1 MLOAD DUP1 DUP3 ADD SWAP1 SWAP2 MSTORE PUSH1 0x3 DUP2 MSTORE PUSH3 0x19D95D PUSH1 0xEA SHL PUSH1 0x20 DUP3 ADD MSTORE SWAP1 SWAP2 POP PUSH2 0x1C76 SWAP1 DUP3 SWAP1 DUP6 PUSH2 0x1D43 JUMP JUMPDEST PUSH2 0x1CCC PUSH1 0x40 MLOAD DUP1 PUSH1 0x40 ADD PUSH1 0x40 MSTORE DUP1 PUSH1 0x4 DUP2 MSTORE PUSH1 0x20 ADD PUSH4 0xE0C2E8D PUSH1 0xE3 SHL DUP2 MSTORE POP PUSH1 0x40 MLOAD DUP1 PUSH1 0x40 ADD PUSH1 0x40 MSTORE DUP1 PUSH1 0xD DUP2 MSTORE PUSH1 0x20 ADD PUSH13 0x3230BA30971817373AB6B132B9 PUSH1 0x99 SHL DUP2 MSTORE POP DUP4 PUSH2 0x1D43 SWAP1 SWAP3 SWAP2 SWAP1 PUSH4 0xFFFFFFFF AND JUMP JUMPDEST PUSH2 0x1D17 PUSH32 0x0 DUP3 PUSH32 0x0 PUSH2 0x1D61 JUMP JUMPDEST SWAP4 SWAP3 POP POP POP JUMP JUMPDEST PUSH2 0x1D26 PUSH2 0x2391 JUMP JUMPDEST PUSH2 0x1D2E PUSH2 0x2391 JUMP JUMPDEST PUSH2 0x1D3A DUP2 DUP7 DUP7 DUP7 PUSH2 0x1F2F JUMP JUMPDEST SWAP6 SWAP5 POP POP POP POP POP JUMP JUMPDEST PUSH1 0x80 DUP4 ADD MLOAD PUSH2 0x1D52 SWAP1 DUP4 PUSH2 0x1F6C JUMP JUMPDEST PUSH1 0x80 DUP4 ADD MLOAD PUSH2 0x180E SWAP1 DUP3 PUSH2 0x1F6C JUMP JUMPDEST PUSH1 0x4 SLOAD PUSH1 0x40 DUP1 MLOAD ADDRESS PUSH1 0x60 SWAP1 DUP2 SHL PUSH1 0x20 DUP1 DUP5 ADD SWAP2 SWAP1 SWAP2 MSTORE PUSH1 0x34 DUP1 DUP5 ADD DUP7 SWAP1 MSTORE DUP5 MLOAD DUP1 DUP6 SUB SWAP1 SWAP2 ADD DUP2 MSTORE PUSH1 0x54 SWAP1 SWAP4 ADD DUP5 MSTORE DUP3 MLOAD SWAP3 DUP2 ADD SWAP3 SWAP1 SWAP3 KECCAK256 SWAP1 DUP7 ADD SWAP4 SWAP1 SWAP4 MSTORE PUSH1 0x0 DUP4 DUP2 MSTORE PUSH1 0x5 SWAP1 SWAP2 MSTORE DUP2 DUP2 KECCAK256 DUP1 SLOAD PUSH1 0x1 PUSH1 0x1 PUSH1 0xA0 SHL SUB NOT AND PUSH1 0x1 PUSH1 0x1 PUSH1 0xA0 SHL SUB DUP9 AND OR SWAP1 SSTORE SWAP1 MLOAD DUP3 SWAP2 PUSH32 0xB5E6E01E79F91267DC17B4E6314D5D4D03593D2CEEE0FBB452B750BD70EA5AF9 SWAP2 LOG2 PUSH1 0x2 SLOAD PUSH1 0x1 PUSH1 0x1 PUSH1 0xA0 SHL SUB AND PUSH4 0x4000AEA0 DUP6 DUP5 PUSH2 0x1E09 DUP8 PUSH2 0x1F83 JUMP JUMPDEST PUSH1 0x40 MLOAD DUP5 PUSH4 0xFFFFFFFF AND PUSH1 0xE0 SHL DUP2 MSTORE PUSH1 0x4 ADD DUP1 DUP5 PUSH1 0x1 PUSH1 0x1 PUSH1 0xA0 SHL SUB AND DUP2 MSTORE PUSH1 0x20 ADD DUP4 DUP2 MSTORE PUSH1 0x20 ADD DUP1 PUSH1 0x20 ADD DUP3 DUP2 SUB DUP3 MSTORE DUP4 DUP2 DUP2 MLOAD DUP2 MSTORE PUSH1 0x20 ADD SWAP2 POP DUP1 MLOAD SWAP1 PUSH1 0x20 ADD SWAP1 DUP1 DUP4 DUP4 PUSH1 0x0 JUMPDEST DUP4 DUP2 LT ISZERO PUSH2 0x1E6A JUMPI DUP2 DUP2 ADD MLOAD DUP4 DUP3 ADD MSTORE PUSH1 0x20 ADD PUSH2 0x1E52 JUMP JUMPDEST POP POP POP POP SWAP1 POP SWAP1 DUP2 ADD SWAP1 PUSH1 0x1F AND DUP1 ISZERO PUSH2 0x1E97 JUMPI DUP1 DUP3 SUB DUP1 MLOAD PUSH1 0x1 DUP4 PUSH1 0x20 SUB PUSH2 0x100 EXP SUB NOT AND DUP2 MSTORE PUSH1 0x20 ADD SWAP2 POP JUMPDEST POP SWAP5 POP POP POP POP POP PUSH1 0x20 PUSH1 0x40 MLOAD DUP1 DUP4 SUB DUP2 PUSH1 0x0 DUP8 DUP1 EXTCODESIZE ISZERO DUP1 ISZERO PUSH2 0x1EB8 JUMPI PUSH1 0x0 DUP1 REVERT JUMPDEST POP GAS CALL ISZERO DUP1 ISZERO PUSH2 0x1ECC JUMPI RETURNDATASIZE PUSH1 0x0 DUP1 RETURNDATACOPY RETURNDATASIZE PUSH1 0x0 REVERT JUMPDEST POP POP POP POP PUSH1 0x40 MLOAD RETURNDATASIZE PUSH1 0x20 DUP2 LT ISZERO PUSH2 0x1EE2 JUMPI PUSH1 0x0 DUP1 REVERT JUMPDEST POP MLOAD PUSH2 0x1F1F JUMPI PUSH1 0x40 MLOAD PUSH3 0x461BCD PUSH1 0xE5 SHL DUP2 MSTORE PUSH1 0x4 ADD DUP1 DUP1 PUSH1 0x20 ADD DUP3 DUP2 SUB DUP3 MSTORE PUSH1 0x23 DUP2 MSTORE PUSH1 0x20 ADD DUP1 PUSH2 0x23E1 PUSH1 0x23 SWAP2 CODECOPY PUSH1 0x40 ADD SWAP2 POP POP PUSH1 0x40 MLOAD DUP1 SWAP2 SUB SWAP1 REVERT JUMPDEST PUSH1 0x4 DUP1 SLOAD PUSH1 0x1 ADD SWAP1 SSTORE SWAP4 SWAP3 POP POP POP JUMP JUMPDEST PUSH2 0x1F37 PUSH2 0x2391 JUMP JUMPDEST PUSH2 0x1F47 DUP6 PUSH1 0x80 ADD MLOAD PUSH2 0x100 PUSH2 0x20A7 JUMP JUMPDEST POP POP SWAP2 DUP4 MSTORE PUSH1 0x1 PUSH1 0x1 PUSH1 0xA0 SHL SUB AND PUSH1 0x20 DUP4 ADD MSTORE PUSH1 0x1 PUSH1 0x1 PUSH1 0xE0 SHL SUB NOT AND PUSH1 0x40 DUP3 ADD MSTORE SWAP1 JUMP JUMPDEST PUSH2 0x1F79 DUP3 PUSH1 0x3 DUP4 MLOAD PUSH2 0x20E7 JUMP JUMPDEST PUSH2 0x180E DUP3 DUP3 PUSH2 0x21BB JUMP JUMPDEST PUSH1 0x60 PUSH4 0x40429946 PUSH1 0xE0 SHL PUSH1 0x0 DUP1 DUP5 PUSH1 0x0 ADD MLOAD DUP6 PUSH1 0x20 ADD MLOAD DUP7 PUSH1 0x40 ADD MLOAD DUP8 PUSH1 0x60 ADD MLOAD PUSH1 0x1 DUP10 PUSH1 0x80 ADD MLOAD PUSH1 0x0 ADD MLOAD PUSH1 0x40 MLOAD PUSH1 0x24 ADD DUP1 DUP10 PUSH1 0x1 PUSH1 0x1 PUSH1 0xA0 SHL SUB AND DUP2 MSTORE PUSH1 0x20 ADD DUP9 DUP2 MSTORE PUSH1 0x20 ADD DUP8 DUP2 MSTORE PUSH1 0x20 ADD DUP7 PUSH1 0x1 PUSH1 0x1 PUSH1 0xA0 SHL SUB AND DUP2 MSTORE PUSH1 0x20 ADD DUP6 PUSH1 0x1 PUSH1 0x1 PUSH1 0xE0 SHL SUB NOT AND DUP2 MSTORE PUSH1 0x20 ADD DUP5 DUP2 MSTORE PUSH1 0x20 ADD DUP4 DUP2 MSTORE PUSH1 0x20 ADD DUP1 PUSH1 0x20 ADD DUP3 DUP2 SUB DUP3 MSTORE DUP4 DUP2 DUP2 MLOAD DUP2 MSTORE PUSH1 0x20 ADD SWAP2 POP DUP1 MLOAD SWAP1 PUSH1 0x20 ADD SWAP1 DUP1 DUP4 DUP4 PUSH1 0x0 JUMPDEST DUP4 DUP2 LT ISZERO PUSH2 0x2035 JUMPI DUP2 DUP2 ADD MLOAD DUP4 DUP3 ADD MSTORE PUSH1 0x20 ADD PUSH2 0x201D JUMP JUMPDEST POP POP POP POP SWAP1 POP SWAP1 DUP2 ADD SWAP1 PUSH1 0x1F AND DUP1 ISZERO PUSH2 0x2062 JUMPI DUP1 DUP3 SUB DUP1 MLOAD PUSH1 0x1 DUP4 PUSH1 0x20 SUB PUSH2 0x100 EXP SUB NOT AND DUP2 MSTORE PUSH1 0x20 ADD SWAP2 POP JUMPDEST POP PUSH1 0x40 DUP1 MLOAD PUSH1 0x1F NOT DUP2 DUP5 SUB ADD DUP2 MSTORE SWAP2 SWAP1 MSTORE PUSH1 0x20 DUP2 ADD DUP1 MLOAD PUSH1 0x1 PUSH1 0x1 PUSH1 0xE0 SHL SUB AND PUSH1 0x1 PUSH1 0x1 PUSH1 0xE0 SHL SUB NOT SWAP1 SWAP14 AND SWAP13 SWAP1 SWAP13 OR SWAP1 SWAP12 MSTORE POP SWAP9 SWAP10 POP POP POP POP POP POP POP POP POP POP SWAP2 SWAP1 POP JUMP JUMPDEST PUSH2 0x20AF PUSH2 0x23C6 JUMP JUMPDEST PUSH1 0x20 DUP3 MOD ISZERO PUSH2 0x20C4 JUMPI PUSH1 0x20 DUP3 MOD PUSH1 0x20 SUB DUP3 ADD SWAP2 POP JUMPDEST POP PUSH1 0x20 DUP1 DUP4 ADD DUP3 SWAP1 MSTORE PUSH1 0x40 DUP1 MLOAD DUP1 DUP6 MSTORE PUSH1 0x0 DUP2 MSTORE DUP4 ADD SWAP1 SWAP2 ADD SWAP1 MSTORE DUP2 JUMPDEST SWAP3 SWAP2 POP POP JUMP JUMPDEST PUSH1 0x17 DUP2 GT PUSH2 0x2108 JUMPI PUSH2 0x2102 DUP4 PUSH1 0xE0 PUSH1 0x5 DUP6 SWAP1 SHL AND DUP4 OR PUSH2 0x21D5 JUMP JUMPDEST POP PUSH2 0x180E JUMP JUMPDEST PUSH1 0xFF DUP2 GT PUSH2 0x2132 JUMPI PUSH2 0x2125 DUP4 PUSH1 0x18 PUSH2 0x1FE0 PUSH1 0x5 DUP7 SWAP1 SHL AND OR PUSH2 0x21D5 JUMP JUMPDEST POP PUSH2 0x2102 DUP4 DUP3 PUSH1 0x1 PUSH2 0x21ED JUMP JUMPDEST PUSH2 0xFFFF DUP2 GT PUSH2 0x215D JUMPI PUSH2 0x2150 DUP4 PUSH1 0x19 PUSH2 0x1FE0 PUSH1 0x5 DUP7 SWAP1 SHL AND OR PUSH2 0x21D5 JUMP JUMPDEST POP PUSH2 0x2102 DUP4 DUP3 PUSH1 0x2 PUSH2 0x21ED JUMP JUMPDEST PUSH4 0xFFFFFFFF DUP2 GT PUSH2 0x218A JUMPI PUSH2 0x217D DUP4 PUSH1 0x1A PUSH2 0x1FE0 PUSH1 0x5 DUP7 SWAP1 SHL AND OR PUSH2 0x21D5 JUMP JUMPDEST POP PUSH2 0x2102 DUP4 DUP3 PUSH1 0x4 PUSH2 0x21ED JUMP JUMPDEST PUSH8 0xFFFFFFFFFFFFFFFF DUP2 GT PUSH2 0x180E JUMPI PUSH2 0x21AE DUP4 PUSH1 0x1B PUSH2 0x1FE0 PUSH1 0x5 DUP7 SWAP1 SHL AND OR PUSH2 0x21D5 JUMP JUMPDEST POP PUSH2 0x1A78 DUP4 DUP3 PUSH1 0x8 PUSH2 0x21ED JUMP JUMPDEST PUSH2 0x21C3 PUSH2 0x23C6 JUMP JUMPDEST PUSH2 0x1D17 DUP4 DUP5 PUSH1 0x0 ADD MLOAD MLOAD DUP5 DUP6 MLOAD PUSH2 0x220E JUMP JUMPDEST PUSH2 0x21DD PUSH2 0x23C6 JUMP JUMPDEST PUSH2 0x1D17 DUP4 DUP5 PUSH1 0x0 ADD MLOAD MLOAD DUP5 PUSH2 0x22BA JUMP JUMPDEST PUSH2 0x21F5 PUSH2 0x23C6 JUMP JUMPDEST PUSH2 0x2206 DUP5 DUP6 PUSH1 0x0 ADD MLOAD MLOAD DUP6 DUP6 PUSH2 0x2305 JUMP JUMPDEST SWAP5 SWAP4 POP POP POP POP JUMP JUMPDEST PUSH2 0x2216 PUSH2 0x23C6 JUMP JUMPDEST DUP3 MLOAD DUP3 GT ISZERO PUSH2 0x2224 JUMPI PUSH1 0x0 DUP1 REVERT JUMPDEST DUP5 PUSH1 0x20 ADD MLOAD DUP3 DUP6 ADD GT ISZERO PUSH2 0x224E JUMPI PUSH2 0x224E DUP6 PUSH2 0x2246 DUP8 PUSH1 0x20 ADD MLOAD DUP8 DUP7 ADD PUSH2 0x2363 JUMP JUMPDEST PUSH1 0x2 MUL PUSH2 0x237A JUMP JUMPDEST PUSH1 0x0 DUP1 DUP7 MLOAD DUP1 MLOAD DUP8 PUSH1 0x20 DUP4 ADD ADD SWAP4 POP DUP1 DUP9 DUP8 ADD GT ISZERO PUSH2 0x226D JUMPI DUP8 DUP7 ADD DUP3 MSTORE JUMPDEST POP POP POP PUSH1 0x20 DUP5 ADD JUMPDEST PUSH1 0x20 DUP5 LT PUSH2 0x2294 JUMPI DUP1 MLOAD DUP3 MSTORE PUSH1 0x1F NOT SWAP1 SWAP4 ADD SWAP3 PUSH1 0x20 SWAP2 DUP3 ADD SWAP2 ADD PUSH2 0x2275 JUMP JUMPDEST MLOAD DUP2 MLOAD PUSH1 0x0 NOT PUSH1 0x20 DUP7 SWAP1 SUB PUSH2 0x100 EXP ADD SWAP1 DUP2 AND SWAP1 NOT SWAP2 SWAP1 SWAP2 AND OR SWAP1 MSTORE POP DUP4 SWAP5 SWAP4 POP POP POP POP JUMP JUMPDEST PUSH2 0x22C2 PUSH2 0x23C6 JUMP JUMPDEST DUP4 PUSH1 0x20 ADD MLOAD DUP4 LT PUSH2 0x22DE JUMPI PUSH2 0x22DE DUP5 DUP6 PUSH1 0x20 ADD MLOAD PUSH1 0x2 MUL PUSH2 0x237A JUMP JUMPDEST DUP4 MLOAD DUP1 MLOAD PUSH1 0x20 DUP6 DUP4 ADD ADD DUP5 DUP2 MSTORE8 POP DUP1 DUP6 EQ ISZERO PUSH2 0x22FB JUMPI PUSH1 0x1 DUP2 ADD DUP3 MSTORE JUMPDEST POP SWAP4 SWAP5 SWAP4 POP POP POP POP JUMP JUMPDEST PUSH2 0x230D PUSH2 0x23C6 JUMP JUMPDEST DUP5 PUSH1 0x20 ADD MLOAD DUP5 DUP4 ADD GT ISZERO PUSH2 0x232A JUMPI PUSH2 0x232A DUP6 DUP6 DUP5 ADD PUSH1 0x2 MUL PUSH2 0x237A JUMP JUMPDEST PUSH1 0x0 PUSH1 0x1 DUP4 PUSH2 0x100 EXP SUB SWAP1 POP DUP6 MLOAD DUP4 DUP7 DUP3 ADD ADD DUP6 DUP4 NOT DUP3 MLOAD AND OR DUP2 MSTORE POP DUP1 MLOAD DUP5 DUP8 ADD GT ISZERO PUSH2 0x2358 JUMPI DUP4 DUP7 ADD DUP2 MSTORE JUMPDEST POP SWAP5 SWAP6 SWAP5 POP POP POP POP POP JUMP JUMPDEST PUSH1 0x0 DUP2 DUP4 GT ISZERO PUSH2 0x2374 JUMPI POP DUP2 PUSH2 0x20E1 JUMP JUMPDEST POP SWAP2 SWAP1 POP JUMP JUMPDEST DUP2 MLOAD PUSH2 0x2386 DUP4 DUP4 PUSH2 0x20A7 JUMP JUMPDEST POP PUSH2 0x1A78 DUP4 DUP3 PUSH2 0x21BB JUMP JUMPDEST PUSH1 0x40 DUP1 MLOAD PUSH1 0xA0 DUP2 ADD DUP3 MSTORE PUSH1 0x0 DUP1 DUP3 MSTORE PUSH1 0x20 DUP3 ADD DUP2 SWAP1 MSTORE SWAP2 DUP2 ADD DUP3 SWAP1 MSTORE PUSH1 0x60 DUP2 ADD SWAP2 SWAP1 SWAP2 MSTORE PUSH1 0x80 DUP2 ADD PUSH2 0x23C1 PUSH2 0x23C6 JUMP JUMPDEST SWAP1 MSTORE SWAP1 JUMP JUMPDEST PUSH1 0x40 MLOAD DUP1 PUSH1 0x40 ADD PUSH1 0x40 MSTORE DUP1 PUSH1 0x60 DUP2 MSTORE PUSH1 0x20 ADD PUSH1 0x0 DUP2 MSTORE POP SWAP1 JUMP INVALID PUSH22 0x6E61626C6520746F207472616E73666572416E644361 PUSH13 0x6C20746F206F7261636C65536F PUSH22 0x726365206D75737420626520746865206F7261636C65 KECCAK256 PUSH16 0x66207468652072657175657374706C65 PUSH2 0x7365 KECCAK256 PUSH20 0x6574207765696768747320666F72206167677265 PUSH8 0x6174696E67206F72 PUSH2 0x636C PUSH6 0x2064617461A2 PUSH5 0x6970667358 0x22 SLT KECCAK256 CODESIZE PUSH27 0xAC71AAC974B95EB2C096C9810D8674FD24021FF9604894859E5F13 SWAP7 DUP9 0x2D PUSH5 0x736F6C6343 STOP MOD 0xC STOP CALLER ","sha1":"dbfc7761baed70ac36c8afe69cc198c4e38a176f","source":"// SPDX-License-Identifier: MIT\n// this contract is deployed on Kovan at 0xe55c7b0d6EDc142Ce30ec8806Dd4bcCbF372ccB2\n\npragma solidity ^0.6.6;\n\nimport \"@chainlink/contracts/src/v0.6/ChainlinkClient.sol\";\nimport \"@openzeppelin/contracts/token/ERC20/IERC20.sol\";\nimport \"/home/joe/Code/blockchain-developer-bootcamp-final-project/interfaces/ILendingPoolAddressesProviderV2.sol\";\nimport \"/home/joe/Code/blockchain-developer-bootcamp-final-project/interfaces/ILendingPoolV2.sol\";\n\ncontract BrightLink is ChainlinkClient {\n\n\n    uint16 private constant referral = 0;\n    address private immutable oracle; \n    bytes32 private immutable jobID;\n    uint256 private immutable fee;\n    IERC20 public immutable dai;\n    IERC20 public immutable adai;\n    uint256 public depositedFunds;\n    address private owner;\n    address public dai_address;\n    address public adai_address;\n    address public poolAddress;\n    address public poolAddressProvider;\n    uint256 public value;\n    string[3] public APIaddresses; \n    uint256[3] public oracleData;\n    ILendingPoolV2 public lendingPool;\n    ILendingPoolAddressesProviderV2 public provider;\n    uint16 index;\n    uint256 aggregateData;\n    uint16 w1 = 100;\n    uint16 w2 = 100;\n    uint16 w3 = 100;\n    uint16 minResponses = 2;\n    uint16 badOracles = 0;\n    int Id = 0;\n    mapping(address => int) private customerToAgreementID;\n    mapping(address => int) private donorToAgreementID;\n    mapping(int => address) private agreementIdToDonor;\n    mapping(int => uint256) private agreementIdToBaseline;\n    mapping(int => uint256) private agreementIdToValue;\n    mapping (int => uint256) public agreementIdToRetrievedData;\n\n    constructor(address _dai_address, address _adai_address, address _link, address _poolAddressProvider,\n    address _oracle, string memory _jobID, uint256 _fee) public{\n        \n        // var instantiations\n        owner = msg.sender;\n        depositedFunds = 0;\n        dai_address = _dai_address;\n        adai_address = _adai_address;\n        poolAddressProvider = _poolAddressProvider;\n        dai = IERC20(dai_address);\n        adai = IERC20(adai_address);\n        provider = ILendingPoolAddressesProviderV2(poolAddressProvider); \n        poolAddress = provider.getLendingPool();\n        lendingPool = ILendingPoolV2(poolAddress);\n        oracle = _oracle;\n        jobID = stringToBytes32(_jobID);\n        fee = _fee;\n        APIaddresses[0] = \"https://raw.githubusercontent.com/jmcook1186/jmcook1186.github.io/main/Data/BrightLinkData/SentinelData.json\";\n        APIaddresses[1] = \"https://raw.githubusercontent.com/jmcook1186/jmcook1186.github.io/main/Data/BrightLinkData/LandsatData.json\";\n        APIaddresses[2] = \"https://raw.githubusercontent.com/jmcook1186/jmcook1186.github.io/main/Data/BrightLinkData/ModisData.json\";\n        oracleData[0] = 0;\n        oracleData[1] = 0;\n        oracleData[2] = 0;\n\n        // set link token address depending on network\n        if (_link == address(0)) {\n            setPublicChainlinkToken();\n        } else {\n            setChainlinkToken(_link);\n        }\n\n    }\n\n    /**\n    @dev\n    Add new customer to contract. Adds customer to mappings, generates new \n    agreementId. Triggers deposit of funds to Aave pool to begin accruing yield. Adds value to\n    cumulative deposits.\n    \n    Requires remote sensing scripts to have been run to estabish baseline data at API endpoints\n    Requires donor to approve dai transfer before function is called:\n    dai.approve(contract,200e18,{'from':donor})\n    Approving _value only (rather than unlimited approval) protects against any re-entrancy attack.\n    \n    Removed onlyOwner modifier so anyone can add an agreement if paid for by a donor. Requires\n    donor to have approved a DAI transfer of value >= _value.\n\n     */\n    function addNewCustomer(address _customer, address _donor, uint256 _value) public {\n\n        // require that the customer does not have an existing agreement\n        require(customerToAgreementID[_customer] <= 0,\"customer already exists\");\n\n        \n        depositedFunds += _value;\n        customerToAgreementID[_customer] = Id;\n        donorToAgreementID[_donor] = Id;\n        agreementIdToValue[Id] = _value;\n        agreementIdToDonor[Id]  = _donor;\n        \n        \n        require(dai.transferFrom(_donor, address(this), _value));\n        depositFundsToAave();\n\n        Id+=1; \n    }\n\n\n    /**\n    @dev\n    internal func called by addNewCustomer()\n    sends all dai in contract to Aave lending pool,\n    returning aDai\n     */\n    function depositFundsToAave() internal{\n\n        dai.approve(poolAddress,1000000e18);\n        dai.approve(address(this),1000000e18);\n        lendingPool.deposit(dai_address,\n        dai.balanceOf(address(this)), address(this), referral);\n        \n    }\n\n    /**\n    @dev\n    returns accumulated aDai to Aave pool, retrieving Dai at 1:1\n     */\n    function WithdrawFundsFromAave(uint _amount) internal{\n    \t\n        adai.approve(poolAddress, _amount);\n        adai.approve(address(this), _amount);\n        lendingPool.withdraw(dai_address, _amount, address(this));\n\n    }\n\n    /**\n    @dev \n    internal, called by setBaseLine() and UpdateOracleData()\n    sets weighting for aggregating the oracle data\n    default is to trust all oracles equally (100,100,100)\n     */\n    function setWeights(uint16 _w1, uint16 _w2, uint16 _w3) internal {\n\n        w1 = _w1;\n        w2 = _w2;\n        w3 = _w3;\n\n    }\n\n    /**\n    @dev\n    assumes remote sensing scripts have been run setting baseline data at the API endpoints\n     */\n    function setBaseLine(address _customer) public {\n        \n        int id = customerToAgreementID[_customer];\n        requestDataFromAPI();\n        validateOracleData();\n        agreementIdToBaseline[id] = aggregateData;\n\n    }\n\n    /**\n    @dev\n    assumes remote sensing scripts have been run a second time, updating the API endpoints\n     */\n    function UpdateOracleData(address _customer) public {\n        \n        int id = customerToAgreementID[_customer];\n        requestDataFromAPI();\n        validateOracleData();\n        agreementIdToRetrievedData[id] = aggregateData;\n\n    }\n\n\n    /**\n    @dev\n    settles the agreement for a given customer by checking the\n    agreed value and paying it to the customer's wallet if the\n    updated values exceeds the baseline. Otherwise, return to donor.\n     */\n    function settleAgreement(address _customer) public {\n\n        // get ID from customer address\n        int agreementId = customerToAgreementID[_customer];\n\n        uint256 amount = agreementIdToValue[agreementId];\n        uint256 threshold = agreementIdToBaseline[agreementId];\n        address donor = agreementIdToDonor[agreementId];\n        uint256 retrieval = agreementIdToRetrievedData[agreementId];\n\n        WithdrawFundsFromAave(amount);\n\n        // subtract expended amount from the running total of deposits\n        depositedFunds-= agreementIdToValue[agreementId];\n        \n        // set transaction value to 0 to prevent re-spending\n        agreementIdToValue[agreementId] = 0;\n\n        customerToAgreementID[_customer] = 0;\n\n\n        if (retrieval > threshold){\n            \n            require(dai.transfer(_customer, amount));\n        }\n\n        else{\n\n            require(dai.transfer(donor, amount));   \n        }         \n\n\n\n    }\n\n    /**\n    @dev\n    withdraws enough dai from Aave pool to equal the total\n    accumulated profit and transfers it to the owners wallet\n    always persists enough adai in contract to payout all\n    active agreements\n     */\n    function takeProfits() public onlyOwner {\n\n        uint totalAmount = adai.balanceOf(address(this));\n        uint profit = totalAmount - depositedFunds;\n        \n        if (dai.balanceOf(address(this)) < profit){\n            WithdrawFundsFromAave(profit-dai.balanceOf(address(this)));\n        }\n        \n        require(dai.transfer(owner, profit));\n    \n    }\n\n    /**\n    @dev\n    release any spare LINK to the contract owner\n     */\n    function retrieveLINK() public onlyOwner{\n        \n        LinkTokenInterface link = LinkTokenInterface(chainlinkTokenAddress());\n        require(link.transfer(owner, link.balanceOf(address(this))), \"Unable to transfer\");\n    }\n\n\n    function escapeHatch() public onlyOwner{\n        // for testing purposes, if all gone wrong, retrieve funds\n        // to save having to get more from faucets\n\n        if (dai.balanceOf(address(this))>0){\n            require(dai.transfer(owner,dai.balanceOf(address(this))));\n        }\n    \n        if (adai.balanceOf(address(this))>0){\n        require(adai.transfer(owner,adai.balanceOf(address(this))));\n        }\n\n        LinkTokenInterface link = LinkTokenInterface(chainlinkTokenAddress());\n        if (link.balanceOf(address(this))>0){\n        require(link.transfer(msg.sender, link.balanceOf(address(this))), \"Unable to transfer\");\n        }\n\n    }\n\n\n\n    ////////////////////////////\n    // INTERNAL ORACLE REQUEST FUNCS\n\n        /**\n        @dev\n        outer function that calls the oracleRequest func once per oracle\n         */\n        function requestDataFromAPI() internal onlyOwner{\n\n        // require protects against aggregaData ==0 from forgetting to set weights\n        require(w1+w2+w3 != 0, \"please set weights for aggregating oracle data\");\n        \n        index = 0;\n        oracleRequest(APIaddresses[0]);\n        oracleRequest(APIaddresses[1]);\n        oracleRequest(APIaddresses[2]);\n    \n    }\n\n    /**\n    @dev\n    This function calls the oracles by building the request then calling the internal\n    fulfill() function. \n    Each fulfill adds new data to the oracleData[] array and increments the index.\n     */\n    function oracleRequest(string memory url) internal returns (bytes32 requestId) \n    {   \n        // oracle request happens here. URL is passed as var url\n        // args are jobID, callback address (this contract) and fulfill function from this contract\n        Chainlink.Request memory request = buildChainlinkRequest(jobID, address(this), this.fulfill.selector);\n        \n        // Set the URL to perform the GET request on\n        request.add(\"get\", url);\n        request.add(\"path\", \"data.0.number\");\n        \n        // Sends the request\n        return sendChainlinkRequestTo(oracle, request, fee);\n    }\n\n    function fulfill(bytes32 _requestId, uint _value) public recordChainlinkFulfillment(_requestId){\n        // fulfill will be called 3x: 1x for each call to OracleRequest (via this.fulfill.selector arg)\n\n        // assign data from oracle to position in oracleData array\n        oracleData[index] = _value; \n        // iterate through array indexes\n        index = index+1; // increment index\n        // calculate weighted mean of data in oracleData array\n        aggregateData = ((w1*oracleData[0]/100)+(w2*oracleData[1]/100)+(w3*oracleData[2]/100))/3;\n    }\n\n\n    /**\n    @dev\n    ensures a sufficient number of oracles return valid data\n    avoids accidentally centralizing workflow by relying on 1 oracle\n     */\n    function validateOracleData() internal {    \n\n        for (uint16 i = 0; i<oracleData.length; i++) {  //for loop example\n            if (oracleData[i] ==0){\n\n                badOracles++;\n            } \n        }\n\n    }\n\n\n\n\n    // VIEW FUNCS\n\n    function viewValueFromOracle() public view returns(uint256 viewValue){\n        //  show aggregated oracle data to user\n        viewValue = aggregateData;\n    }\n\n    function checkIdForCustomer(address _customer) public view returns(int){\n        return(customerToAgreementID[_customer]);\n    }\n\n    function checkIdForDonor(address _donor) public view returns(int){\n        return(donorToAgreementID[_donor]);\n    }\n\n    function checkvalueForAgreementId(int agreementId) public view returns(uint256){\n        return(agreementIdToValue[agreementId]);\n    }\n\n    function checkDepositAmount() public view returns(uint256 deposit){\n        // view function to show user how much DAI was deposited\n        deposit = depositedFunds;\n    }\n\n    function checkBalance() public view returns (uint256 dai_balance, uint256 adai_balance) {\n        \n        // balance of DAI and aDAI in contract\n        // aDAI is the debt token from the Aave pool\n        \n        dai_balance = dai.balanceOf(address(this));\n        adai_balance = adai.balanceOf(address(this));\n\n    }\n\n    // MODIFIERS AND ACCESSORY FUNCTIONS\n    \n    modifier onlyOwner(){\n        require(owner==msg.sender);\n        _;\n    }\n    \n\n    function stringToBytes32(string memory source) public pure returns (bytes32 result) {\n        bytes memory tempEmptyStringTest = bytes(source);\n        if (tempEmptyStringTest.length == 0) {\n            return 0x0;\n        }\n\n        assembly {\n            result := mload(add(source, 32))\n        }\n    }\n}\n","sourcePath":"contracts/BrightLink.sol","type":"contract","deployment":{"address":"0xC16c0Ae9E4009f1ddf0B9e8811D00934812c18aB","chainid":"42","blockHeight":28540704}}