{"abi":[{"inputs":[{"internalType":"address","name":"_dai_address","type":"address"},{"internalType":"address","name":"_adai_address","type":"address"},{"internalType":"address","name":"_link","type":"address"},{"internalType":"address","name":"_poolAddressProvider","type":"address"},{"internalType":"address","name":"_oracle","type":"address"},{"internalType":"string","name":"_jobID","type":"string"},{"internalType":"uint256","name":"_fee","type":"uint256"}],"stateMutability":"nonpayable","type":"constructor","name":"constructor"},{"anonymous":false,"inputs":[{"indexed":true,"internalType":"bytes32","name":"id","type":"bytes32"}],"name":"ChainlinkCancelled","type":"event"},{"anonymous":false,"inputs":[{"indexed":true,"internalType":"bytes32","name":"id","type":"bytes32"}],"name":"ChainlinkFulfilled","type":"event"},{"anonymous":false,"inputs":[{"indexed":true,"internalType":"bytes32","name":"id","type":"bytes32"}],"name":"ChainlinkRequested","type":"event"},{"inputs":[{"internalType":"uint256","name":"","type":"uint256"}],"name":"APIaddresses","outputs":[{"internalType":"string","name":"","type":"string"}],"stateMutability":"view","type":"function"},{"inputs":[{"internalType":"address","name":"_customer","type":"address"},{"internalType":"uint16","name":"_w1","type":"uint16"},{"internalType":"uint16","name":"_w2","type":"uint16"},{"internalType":"uint16","name":"_w3","type":"uint16"}],"name":"UpdateOracleData","outputs":[],"stateMutability":"nonpayable","type":"function"},{"inputs":[{"internalType":"uint256","name":"_amount","type":"uint256"}],"name":"WithdrawFundsFromAave","outputs":[],"stateMutability":"nonpayable","type":"function"},{"inputs":[],"name":"adai","outputs":[{"internalType":"contract IERC20","name":"","type":"address"}],"stateMutability":"view","type":"function"},{"inputs":[],"name":"adai_address","outputs":[{"internalType":"address","name":"","type":"address"}],"stateMutability":"view","type":"function"},{"inputs":[{"internalType":"address","name":"_customer","type":"address"},{"internalType":"address","name":"_donor","type":"address"},{"internalType":"uint256","name":"_value","type":"uint256"}],"name":"addNewCustomer","outputs":[],"stateMutability":"nonpayable","type":"function"},{"inputs":[{"internalType":"int256","name":"","type":"int256"}],"name":"agreementIdToRetrievedData","outputs":[{"internalType":"uint256","name":"","type":"uint256"}],"stateMutability":"view","type":"function"},{"inputs":[],"name":"checkBalance","outputs":[{"internalType":"uint256","name":"dai_balance","type":"uint256"},{"internalType":"uint256","name":"adai_balance","type":"uint256"}],"stateMutability":"view","type":"function"},{"inputs":[],"name":"checkDepositAmount","outputs":[{"internalType":"uint256","name":"deposit","type":"uint256"}],"stateMutability":"view","type":"function"},{"inputs":[{"internalType":"address","name":"_customer","type":"address"}],"name":"checkIdForCustomer","outputs":[{"internalType":"int256","name":"","type":"int256"}],"stateMutability":"view","type":"function"},{"inputs":[{"internalType":"address","name":"_donor","type":"address"}],"name":"checkIdForDonor","outputs":[{"internalType":"int256","name":"","type":"int256"}],"stateMutability":"view","type":"function"},{"inputs":[{"internalType":"int256","name":"agreementId","type":"int256"}],"name":"checkvalueForAgreementId","outputs":[{"internalType":"uint256","name":"","type":"uint256"}],"stateMutability":"view","type":"function"},{"inputs":[],"name":"dai","outputs":[{"internalType":"contract IERC20","name":"","type":"address"}],"stateMutability":"view","type":"function"},{"inputs":[],"name":"dai_address","outputs":[{"internalType":"address","name":"","type":"address"}],"stateMutability":"view","type":"function"},{"inputs":[],"name":"depositedFunds","outputs":[{"internalType":"uint256","name":"","type":"uint256"}],"stateMutability":"view","type":"function"},{"inputs":[],"name":"escapeHatch","outputs":[],"stateMutability":"nonpayable","type":"function"},{"inputs":[{"internalType":"bytes32","name":"_requestId","type":"bytes32"},{"internalType":"uint256","name":"_value","type":"uint256"}],"name":"fulfill","outputs":[],"stateMutability":"nonpayable","type":"function"},{"inputs":[],"name":"lendingPool","outputs":[{"internalType":"contract ILendingPoolV2","name":"","type":"address"}],"stateMutability":"view","type":"function"},{"inputs":[{"internalType":"uint256","name":"","type":"uint256"}],"name":"oracleData","outputs":[{"internalType":"uint256","name":"","type":"uint256"}],"stateMutability":"view","type":"function"},{"inputs":[],"name":"poolAddress","outputs":[{"internalType":"address","name":"","type":"address"}],"stateMutability":"view","type":"function"},{"inputs":[],"name":"poolAddressProvider","outputs":[{"internalType":"address","name":"","type":"address"}],"stateMutability":"view","type":"function"},{"inputs":[],"name":"provider","outputs":[{"internalType":"contract ILendingPoolAddressesProviderV2","name":"","type":"address"}],"stateMutability":"view","type":"function"},{"inputs":[],"name":"retrieveLINK","outputs":[],"stateMutability":"nonpayable","type":"function"},{"inputs":[{"internalType":"address","name":"_customer","type":"address"},{"internalType":"uint16","name":"_w1","type":"uint16"},{"internalType":"uint16","name":"_w2","type":"uint16"},{"internalType":"uint16","name":"_w3","type":"uint16"}],"name":"setBaseLine","outputs":[],"stateMutability":"nonpayable","type":"function"},{"inputs":[{"internalType":"address","name":"_customer","type":"address"}],"name":"settleAgreement","outputs":[],"stateMutability":"nonpayable","type":"function"},{"inputs":[{"internalType":"string","name":"source","type":"string"}],"name":"stringToBytes32","outputs":[{"internalType":"bytes32","name":"result","type":"bytes32"}],"stateMutability":"pure","type":"function"},{"inputs":[],"name":"takeProfits","outputs":[],"stateMutability":"nonpayable","type":"function"},{"inputs":[],"name":"value","outputs":[{"internalType":"uint256","name":"","type":"uint256"}],"stateMutability":"view","type":"function"},{"inputs":[],"name":"viewValueFromOracle","outputs":[{"internalType":"uint256","name":"viewValue","type":"uint256"}],"stateMutability":"view","type":"function"}],"bytecode":"61012060405260016004556016805461ffff60301b191666020000000000001761ffff60401b1916905560006017553480156200003b57600080fd5b5060405162002c5c38038062002c5c833981810160405260e08110156200006157600080fd5b815160208301516040808501516060860151608087015160a088018051945196989597939692959194929382019284640100000000821115620000a357600080fd5b908301906020820185811115620000b957600080fd5b8251640100000000811182820188101715620000d457600080fd5b82525081516020918201929091019080838360005b8381101562000103578181015183820152602001620000e9565b50505050905090810190601f168015620001315780820380516001836020036101000a031916815260200191505b50604081815260209283015160078054336001600160a01b03199182161790915560006006556008805482166001600160a01b038f811691909117918290556009805484168f83161790819055600b805485168e84161790819055606093841b6001600160601b031990811660e0529190931b166101005260148054928216929093169190911791829055630261bf8b60e01b855292519196509091169350630261bf8b92600480840193919291829003018186803b158015620001f457600080fd5b505afa15801562000209573d6000803e3d6000fd5b505050506040513d60208110156200022057600080fd5b5051600a80546001600160a01b03199081166001600160a01b03938416179182905560138054929093169116179055606083901b6001600160601b0319166080526200026c826200034c565b60a090815260c0829052604080519182019052606c80825262002bf060208301398051620002a391600d916020909101906200041a565b506040518060a00160405280606b815260200162002b1c606b91398051620002d491600e916020909101906200041a565b506040518060a001604052806069815260200162002b876069913980516200030591600f916020909101906200041a565b506000601081905560118190556012556001600160a01b03851662000334576200032e62000370565b6200033f565b6200033f85620003f8565b50505050505050620004b6565b80516000908290620003635750600090506200036b565b505060208101515b919050565b620003f673c89bd4e1632d3a43cb03aaad5262cbe4038bc5716001600160a01b03166338cc48316040518163ffffffff1660e01b815260040160206040518083038186803b158015620003c257600080fd5b505afa158015620003d7573d6000803e3d6000fd5b505050506040513d6020811015620003ee57600080fd5b5051620003f8565b565b600280546001600160a01b0319166001600160a01b0392909216919091179055565b828054600181600116156101000203166002900490600052602060002090601f016020900481019282601f106200045d57805160ff19168380011785556200048d565b828001600101855582156200048d579182015b828111156200048d57825182559160200191906001019062000470565b506200049b9291506200049f565b5090565b5b808211156200049b5760008155600101620004a0565b60805160601c60a05160c05160e05160601c6101005160601c6125c3620005596000398061079d528061085d5280610b6352806114a75280611545528061170652806118995250806105d752806106975280610c265280610ca45280610d6e52806110ed52806112975280611348528061164c52806118bd5280611b0f5280611bb65280611c5d525080611e27525080611d54525080611e0552506125c36000f3fe608060405234801561001057600080fd5b50600436106101cf5760003560e01c80638e5332ba11610104578063c3886165116100a2578063dbe50cbc11610071578063dbe50cbc1461055a578063df10cb6914610580578063f32d684614610588578063f4b9fa7514610590576101cf565b8063c388616514610434578063c71daccb14610451578063cfb5192814610472578063d2e9943514610518576101cf565b8063a59a9973116100de578063a59a9973146103cc578063aa4dea00146103d4578063b1405d1d146103f1578063bb6cac781461040e576101cf565b80638e5332ba146103685780638e8eeaef146103705780639f6a011f146103a6576101cf565b80633fa4f245116101715780635dfb66881161014b5780635dfb66881461028457806362684616146102c65780636bfac60c146102ce578063714a181b14610360576101cf565b80633fa4f245146102515780634357855e146102595780634905e59f1461027c576101cf565b80631755ff21116101ad5780631755ff211461023157806323e77db3146102395780632501fecc14610241578063335073eb14610249576101cf565b8063043c4f9e146101d4578063085d4883146102035780631554611f14610227575b600080fd5b6101f1600480360360208110156101ea57600080fd5b5035610598565b60408051918252519081900360200190f35b61020b6105ad565b604080516001600160a01b039092168252519081900360200190f35b61022f6105bc565b005b61020b610b39565b61022f610b48565b61020b610df2565b6101f1610e01565b6101f1610e07565b61022f6004803603604081101561026f57600080fd5b5080359060200135610e0d565b61020b610f56565b61022f6004803603608081101561029a57600080fd5b506001600160a01b038135169061ffff6020820135811691604081013582169160609091013516610f65565b61020b610fc9565b6102eb600480360360208110156102e457600080fd5b5035610fd8565b6040805160208082528351818301528351919283929083019185019080838360005b8381101561032557818101518382015260200161030d565b50505050905090810190601f1680156103525780820380516001836020036101000a031916815260200191505b509250505060405180910390f35b6101f1611073565b6101f1611079565b61022f6004803603606081101561038657600080fd5b506001600160a01b0381358116916020810135909116906040013561107f565b61022f600480360360208110156103bc57600080fd5b50356001600160a01b0316611223565b61020b611414565b6101f1600480360360208110156103ea57600080fd5b5035611423565b6101f16004803603602081101561040757600080fd5b5035611437565b6101f16004803603602081101561042457600080fd5b50356001600160a01b0316611449565b61022f6004803603602081101561044a57600080fd5b5035611464565b610459611647565b6040805192835260208301919091528051918290030190f35b6101f16004803603602081101561048857600080fd5b8101906020810181356401000000008111156104a357600080fd5b8201836020820111156104b557600080fd5b803590602001918460018302840111640100000000831117156104d757600080fd5b91908080601f01602080910402602001604051908101604052809392919081815260200183838082843760009201919091525092955061177f945050505050565b61022f6004803603608081101561052e57600080fd5b506001600160a01b038135169061ffff602082013581169160408101358216916060909101351661179d565b6101f16004803603602081101561057057600080fd5b50356001600160a01b0316611801565b61022f61181c565b61020b611897565b61020b6118bb565b6000818152601c60205260409020545b919050565b6014546001600160a01b031681565b6007546001600160a01b031633146105d357600080fd5b60007f00000000000000000000000000000000000000000000000000000000000000006001600160a01b03166370a08231306040518263ffffffff1660e01b815260040180826001600160a01b0316815260200191505060206040518083038186803b15801561064257600080fd5b505afa158015610656573d6000803e3d6000fd5b505050506040513d602081101561066c57600080fd5b5051111561079957600754604080516370a0823160e01b815230600482015290516001600160a01b037f000000000000000000000000000000000000000000000000000000000000000081169363a9059cbb9391169184916370a08231916024808301926020929190829003018186803b1580156106e957600080fd5b505afa1580156106fd573d6000803e3d6000fd5b505050506040513d602081101561071357600080fd5b5051604080516001600160e01b031960e086901b1681526001600160a01b03909316600484015260248301919091525160448083019260209291908290030181600087803b15801561076457600080fd5b505af1158015610778573d6000803e3d6000fd5b505050506040513d602081101561078e57600080fd5b505161079957600080fd5b60007f00000000000000000000000000000000000000000000000000000000000000006001600160a01b03166370a08231306040518263ffffffff1660e01b815260040180826001600160a01b0316815260200191505060206040518083038186803b15801561080857600080fd5b505afa15801561081c573d6000803e3d6000fd5b505050506040513d602081101561083257600080fd5b5051111561095f57600754604080516370a0823160e01b815230600482015290516001600160a01b037f000000000000000000000000000000000000000000000000000000000000000081169363a9059cbb9391169184916370a08231916024808301926020929190829003018186803b1580156108af57600080fd5b505afa1580156108c3573d6000803e3d6000fd5b505050506040513d60208110156108d957600080fd5b5051604080516001600160e01b031960e086901b1681526001600160a01b03909316600484015260248301919091525160448083019260209291908290030181600087803b15801561092a57600080fd5b505af115801561093e573d6000803e3d6000fd5b505050506040513d602081101561095457600080fd5b505161095f57600080fd5b60006109696118df565b90506000816001600160a01b03166370a08231306040518263ffffffff1660e01b815260040180826001600160a01b0316815260200191505060206040518083038186803b1580156109ba57600080fd5b505afa1580156109ce573d6000803e3d6000fd5b505050506040513d60208110156109e457600080fd5b50511115610b3657806001600160a01b031663a9059cbb33836001600160a01b03166370a08231306040518263ffffffff1660e01b815260040180826001600160a01b0316815260200191505060206040518083038186803b158015610a4957600080fd5b505afa158015610a5d573d6000803e3d6000fd5b505050506040513d6020811015610a7357600080fd5b5051604080516001600160e01b031960e086901b1681526001600160a01b03909316600484015260248301919091525160448083019260209291908290030181600087803b158015610ac457600080fd5b505af1158015610ad8573d6000803e3d6000fd5b505050506040513d6020811015610aee57600080fd5b5051610b36576040805162461bcd60e51b81526020600482015260126024820152712ab730b13632903a37903a3930b739b332b960711b604482015290519081900360640190fd5b50565b600a546001600160a01b031681565b6007546001600160a01b03163314610b5f57600080fd5b60007f00000000000000000000000000000000000000000000000000000000000000006001600160a01b03166370a08231306040518263ffffffff1660e01b815260040180826001600160a01b0316815260200191505060206040518083038186803b158015610bce57600080fd5b505afa158015610be2573d6000803e3d6000fd5b505050506040513d6020811015610bf857600080fd5b5051600654604080516370a0823160e01b815230600482015290519293509083039182916001600160a01b037f000000000000000000000000000000000000000000000000000000000000000016916370a0823191602480820192602092909190829003018186803b158015610c6d57600080fd5b505afa158015610c81573d6000803e3d6000fd5b505050506040513d6020811015610c9757600080fd5b50511015610d4257610d427f00000000000000000000000000000000000000000000000000000000000000006001600160a01b03166370a08231306040518263ffffffff1660e01b815260040180826001600160a01b0316815260200191505060206040518083038186803b158015610d0f57600080fd5b505afa158015610d23573d6000803e3d6000fd5b505050506040513d6020811015610d3957600080fd5b50518203611464565b6007546040805163a9059cbb60e01b81526001600160a01b0392831660048201526024810184905290517f00000000000000000000000000000000000000000000000000000000000000009092169163a9059cbb916044808201926020929091908290030181600087803b158015610db957600080fd5b505af1158015610dcd573d6000803e3d6000fd5b505050506040513d6020811015610de357600080fd5b5051610dee57600080fd5b5050565b6009546001600160a01b031681565b60065490565b600c5481565b60008281526005602052604090205482906001600160a01b03163314610e645760405162461bcd60e51b81526004018080602001828103825260288152602001806125386028913960400191505060405180910390fd5b60008181526005602052604080822080546001600160a01b03191690555182917f7cc135e0cebb02c3480ae5d74d377283180a2601f8f644edf7987b009316c63a91a26014548290601090600160a01b900461ffff1660038110610ec457fe5b015560148054600161ffff600160a01b808404821692909201160261ffff60a01b1990911617905560036064601060020154601654640100000000900461ffff160281610f0d57fe5b04606460106001015460165462010000900461ffff160281610f2b57fe5b04606460106000015460165461ffff160281610f4357fe5b04010181610f4d57fe5b04601555505050565b6008546001600160a01b031681565b6007546001600160a01b03163314610f7c57600080fd5b6001600160a01b038416600090815260186020526040902054610fa08484846118ee565b610fa8611947565b610fb0611a7a565b6015546000918252601d60205260409091205550505050565b600b546001600160a01b031681565b600d8160038110610fe557fe5b018054604080516020601f60026000196101006001881615020190951694909404938401819004810282018101909252828152935083018282801561106b5780601f106110405761010080835404028352916020019161106b565b820191906000526020600020905b81548152906001019060200180831161104e57829003601f168201915b505050505081565b60065481565b60155490565b6001600160a01b03831660009081526018602052604081205413156110eb576040805162461bcd60e51b815260206004820152601760248201527f637573746f6d657220616c726561647920657869737473000000000000000000604482015290519081900360640190fd5b7f00000000000000000000000000000000000000000000000000000000000000006001600160a01b03166323b872dd8330846040518463ffffffff1660e01b815260040180846001600160a01b03168152602001836001600160a01b031681526020018281526020019350505050602060405180830381600087803b15801561117357600080fd5b505af1158015611187573d6000803e3d6000fd5b505050506040513d602081101561119d57600080fd5b50516111a857600080fd5b6006805482019055601780546001600160a01b03808616600090815260186020908152604080832085905592871680835260198252838320859055938252601c815282822086905593548152601a90935290912080546001600160a01b0319169091179055611215611ada565b505060178054600101905550565b6007546001600160a01b0316331461123a57600080fd5b6001600160a01b03808216600090815260186020908152604080832054808452601c835281842054601b845282852054601a855283862054601d9095529290942054909491929091169061128d84611464565b82811115611346577f00000000000000000000000000000000000000000000000000000000000000006001600160a01b031663a9059cbb87866040518363ffffffff1660e01b815260040180836001600160a01b0316815260200182815260200192505050602060405180830381600087803b15801561130c57600080fd5b505af1158015611320573d6000803e3d6000fd5b505050506040513d602081101561133657600080fd5b505161134157600080fd5b6113f2565b7f00000000000000000000000000000000000000000000000000000000000000006001600160a01b031663a9059cbb83866040518363ffffffff1660e01b815260040180836001600160a01b0316815260200182815260200192505050602060405180830381600087803b1580156113bd57600080fd5b505af11580156113d1573d6000803e3d6000fd5b505050506040513d60208110156113e757600080fd5b50516113f257600080fd5b505050600091825250601c602052604081208054600680549190910390555550565b6013546001600160a01b031681565b6010816003811061143057fe5b0154905081565b601d6020526000908152604090205481565b6001600160a01b031660009081526019602052604090205490565b6007546001600160a01b0316331461147b57600080fd5b600a546040805163095ea7b360e01b81526001600160a01b0392831660048201526024810184905290517f00000000000000000000000000000000000000000000000000000000000000009092169163095ea7b3916044808201926020929091908290030181600087803b1580156114f257600080fd5b505af1158015611506573d6000803e3d6000fd5b505050506040513d602081101561151c57600080fd5b50506040805163095ea7b360e01b81523060048201526024810183905290516001600160a01b037f0000000000000000000000000000000000000000000000000000000000000000169163095ea7b39160448083019260209291908290030181600087803b15801561158d57600080fd5b505af11580156115a1573d6000803e3d6000fd5b505050506040513d60208110156115b757600080fd5b505060135460085460408051631a4ca37b60e21b81526001600160a01b03928316600482015260248101859052306044820152905191909216916369328dec9160648083019260209291908290030181600087803b15801561161857600080fd5b505af115801561162c573d6000803e3d6000fd5b505050506040513d602081101561164257600080fd5b505050565b6000807f00000000000000000000000000000000000000000000000000000000000000006001600160a01b03166370a08231306040518263ffffffff1660e01b815260040180826001600160a01b0316815260200191505060206040518083038186803b1580156116b757600080fd5b505afa1580156116cb573d6000803e3d6000fd5b505050506040513d60208110156116e157600080fd5b5051604080516370a0823160e01b815230600482015290519193506001600160a01b037f000000000000000000000000000000000000000000000000000000000000000016916370a0823191602480820192602092909190829003018186803b15801561174d57600080fd5b505afa158015611761573d6000803e3d6000fd5b505050506040513d602081101561177757600080fd5b505191929050565b805160009082906117945750600090506105a8565b50506020015190565b6007546001600160a01b031633146117b457600080fd5b6001600160a01b0384166000908152601860205260409020546117d88484846118ee565b6117e0611947565b6117e8611a7a565b6015546000918252601b60205260409091205550505050565b6001600160a01b031660009081526018602052604090205490565b6007546001600160a01b0316331461183357600080fd5b600061183d6118df565b600754604080516370a0823160e01b815230600482015290519293506001600160a01b038085169363a9059cbb939091169184916370a0823191602480820192602092909190829003018186803b158015610a4957600080fd5b7f000000000000000000000000000000000000000000000000000000000000000081565b7f000000000000000000000000000000000000000000000000000000000000000081565b6002546001600160a01b031690565b6007546001600160a01b0316331461190557600080fd5b6016805461ffff191661ffff9485161763ffff0000191662010000938516939093029290921765ffff0000000019166401000000009190931602919091179055565b6007546001600160a01b0316331461195e57600080fd5b60165461ffff808216620100008304821601640100000000909204811691909101166119bb5760405162461bcd60e51b815260040180806020018281038252602e815260200180612560602e913960400191505060405180910390fd5b6014805461ffff60a01b19169055611a60600d60005b01805460408051602060026001851615610100026000190190941693909304601f81018490048402820184019092528181529291830182828015611a565780601f10611a2b57610100808354040283529160200191611a56565b820191906000526020600020905b815481529060010190602001808311611a3957829003601f168201915b5050505050611d45565b50611a6d600d60016119d1565b50610b36600d60026119d1565b60005b60038161ffff161015610b365760108161ffff1660038110611a9b57fe5b0154611ad25760168054600161ffff68010000000000000000808404821692909201160269ffff0000000000000000199091161790555b600101611a7d565b600a546040805163095ea7b360e01b81526001600160a01b03928316600482015269d3c21bcecceda1000000602482015290517f00000000000000000000000000000000000000000000000000000000000000009092169163095ea7b3916044808201926020929091908290030181600087803b158015611b5a57600080fd5b505af1158015611b6e573d6000803e3d6000fd5b505050506040513d6020811015611b8457600080fd5b50506040805163095ea7b360e01b815230600482015269d3c21bcecceda1000000602482015290516001600160a01b037f0000000000000000000000000000000000000000000000000000000000000000169163095ea7b39160448083019260209291908290030181600087803b158015611bfe57600080fd5b505af1158015611c12573d6000803e3d6000fd5b505050506040513d6020811015611c2857600080fd5b5050601354600854604080516370a0823160e01b815230600482015290516001600160a01b039384169363e8eda9df938116927f0000000000000000000000000000000000000000000000000000000000000000909116916370a0823191602480820192602092909190829003018186803b158015611ca657600080fd5b505afa158015611cba573d6000803e3d6000fd5b505050506040513d6020811015611cd057600080fd5b5051604080516001600160e01b031960e086901b1681526001600160a01b0390931660048401526024830191909152306044830152600060648301819052905160848084019382900301818387803b158015611d2b57600080fd5b505af1158015611d3f573d6000803e3d6000fd5b50505050565b6000611d4f6124c5565b611d817f0000000000000000000000000000000000000000000000000000000000000000306321abc2af60e11b611e52565b60408051808201909152600381526219d95d60ea1b6020820152909150611daa90829085611e77565b611e00604051806040016040528060048152602001630e0c2e8d60e31b8152506040518060400160405280600d81526020016c3230ba30971817373ab6b132b960991b81525083611e779092919063ffffffff16565b611e4b7f0000000000000000000000000000000000000000000000000000000000000000827f0000000000000000000000000000000000000000000000000000000000000000611e95565b9392505050565b611e5a6124c5565b611e626124c5565b611e6e81868686612063565b95945050505050565b6080830151611e8690836120a0565b608083015161164290826120a0565b6004546040805130606090811b60208084019190915260348084018690528451808503909101815260549093018452825192810192909220908601939093526000838152600590915281812080546001600160a01b0319166001600160a01b038816179055905182917fb5e6e01e79f91267dc17b4e6314d5d4d03593d2ceee0fbb452b750bd70ea5af991a26002546001600160a01b0316634000aea08584611f3d876120b7565b6040518463ffffffff1660e01b815260040180846001600160a01b0316815260200183815260200180602001828103825283818151815260200191508051906020019080838360005b83811015611f9e578181015183820152602001611f86565b50505050905090810190601f168015611fcb5780820380516001836020036101000a031916815260200191505b50945050505050602060405180830381600087803b158015611fec57600080fd5b505af1158015612000573d6000803e3d6000fd5b505050506040513d602081101561201657600080fd5b50516120535760405162461bcd60e51b81526004018080602001828103825260238152602001806125156023913960400191505060405180910390fd5b6004805460010190559392505050565b61206b6124c5565b61207b85608001516101006121db565b50509183526001600160a01b031660208301526001600160e01b031916604082015290565b6120ad826003835161221b565b61164282826122ef565b6060634042994660e01b6000808460000151856020015186604001518760600151600189608001516000015160405160240180896001600160a01b03168152602001888152602001878152602001866001600160a01b03168152602001856001600160e01b031916815260200184815260200183815260200180602001828103825283818151815260200191508051906020019080838360005b83811015612169578181015183820152602001612151565b50505050905090810190601f1680156121965780820380516001836020036101000a031916815260200191505b5060408051601f198184030181529190526020810180516001600160e01b03166001600160e01b0319909d169c909c17909b5250989950505050505050505050919050565b6121e36124fa565b60208206156121f85760208206602003820191505b506020808301829052604080518085526000815283019091019052815b92915050565b6017811161223c576122368360e0600585901b168317612309565b50611642565b60ff811161226657612259836018611fe0600586901b1617612309565b5061223683826001612321565b61ffff811161229157612284836019611fe0600586901b1617612309565b5061223683826002612321565b63ffffffff81116122be576122b183601a611fe0600586901b1617612309565b5061223683826004612321565b67ffffffffffffffff8111611642576122e283601b611fe0600586901b1617612309565b50611d3f83826008612321565b6122f76124fa565b611e4b83846000015151848551612342565b6123116124fa565b611e4b83846000015151846123ee565b6123296124fa565b61233a848560000151518585612439565b949350505050565b61234a6124fa565b825182111561235857600080fd5b84602001518285011115612382576123828561237a8760200151878601612497565b6002026124ae565b6000808651805187602083010193508088870111156123a15787860182525b505050602084015b602084106123c85780518252601f1990930192602091820191016123a9565b51815160001960208690036101000a019081169019919091161790525083949350505050565b6123f66124fa565b83602001518310612412576124128485602001516002026124ae565b83518051602085830101848153508085141561242f576001810182525b5093949350505050565b6124416124fa565b8460200151848301111561245e5761245e858584016002026124ae565b60006001836101000a03905085518386820101858319825116178152508051848701111561248c5783860181525b509495945050505050565b6000818311156124a8575081612215565b50919050565b81516124ba83836121db565b50611d3f83826122ef565b6040805160a0810182526000808252602082018190529181018290526060810191909152608081016124f56124fa565b905290565b60405180604001604052806060815260200160008152509056fe756e61626c6520746f207472616e73666572416e6443616c6c20746f206f7261636c65536f75726365206d75737420626520746865206f7261636c65206f66207468652072657175657374706c6561736520736574207765696768747320666f72206167677265676174696e67206f7261636c652064617461a2646970667358221220135246fbf23149577799f2fb57a179152c86940b8ea2b1f5394b92b671b162af64736f6c634300060c003368747470733a2f2f7261772e67697468756275736572636f6e74656e742e636f6d2f6a6d636f6f6b313138362f6a6d636f6f6b313138362e6769746875622e696f2f6d61696e2f446174612f4272696768744c696e6b446174612f4c616e64736174446174612e6a736f6e68747470733a2f2f7261772e67697468756275736572636f6e74656e742e636f6d2f6a6d636f6f6b313138362f6a6d636f6f6b313138362e6769746875622e696f2f6d61696e2f446174612f4272696768744c696e6b446174612f4d6f646973446174612e6a736f6e68747470733a2f2f7261772e67697468756275736572636f6e74656e742e636f6d2f6a6d636f6f6b313138362f6a6d636f6f6b313138362e6769746875622e696f2f6d61696e2f446174612f4272696768744c696e6b446174612f53656e74696e656c446174612e6a736f6e","bytecodeSha1":"da39a3ee5e6b4b0d3255bfef95601890afd80709","compiler":{"evm_version":"istanbul","optimizer":{"enabled":true,"runs":200},"version":"0.6.12+commit.27d51765"},"contractName":"BrightLink","language":"Solidity","natspec":{"kind":"dev","methods":{"UpdateOracleData(address,uint16,uint16,uint16)":{"details":"assumes remote sensing scripts have been run a second time, updating the API endpoints"},"WithdrawFundsFromAave(uint256)":{"details":"returns accumulated aDai to Aave pool, retrieving Dai at 1:1"},"addNewCustomer(address,address,uint256)":{"details":"Add new customer to contract. Adds customer to mappings, generates new  agreementId. Triggers deposit of funds to Aave pool to begin accruing yield. Adds value to cumulative deposits. Requires remote sensing scripts to have been run to estabish baseline data at API endpoints Requires donor to approve dai transfer before function is called: dai.approve(contract,200e18,{'from':donor}) Approving _value only (rather than unlimited approval) protects against any re-entrancy attack. Removed onlyOwner modifier so anyone can add an agreement if paid for by a donor. Requires donor to have approved a DAI transfer of value >= _value."},"retrieveLINK()":{"details":"release any spare LINK to the contract owner"},"setBaseLine(address,uint16,uint16,uint16)":{"details":"assumes remote sensing scripts have been run setting baseline data at the API endpoints"},"settleAgreement(address)":{"details":"settles the agreement for a given customer by checking the agreed value and paying it to the customer's wallet if the updated values exceeds the baseline. Otherwise, return to donor."},"takeProfits()":{"details":"withdraws enough dai from Aave pool to equal the total accumulated profit and transfers it to the owners wallet always persists enough adai in contract to payout all active agreements"}},"version":1},"opcodes":"PUSH1 0x80 PUSH1 0x40 MSTORE CALLVALUE DUP1 ISZERO PUSH2 0x10 JUMPI PUSH1 0x0 DUP1 REVERT JUMPDEST POP PUSH1 0x4 CALLDATASIZE LT PUSH2 0x1CF JUMPI PUSH1 0x0 CALLDATALOAD PUSH1 0xE0 SHR DUP1 PUSH4 0x8E5332BA GT PUSH2 0x104 JUMPI DUP1 PUSH4 0xC3886165 GT PUSH2 0xA2 JUMPI DUP1 PUSH4 0xDBE50CBC GT PUSH2 0x71 JUMPI DUP1 PUSH4 0xDBE50CBC EQ PUSH2 0x55A JUMPI DUP1 PUSH4 0xDF10CB69 EQ PUSH2 0x580 JUMPI DUP1 PUSH4 0xF32D6846 EQ PUSH2 0x588 JUMPI DUP1 PUSH4 0xF4B9FA75 EQ PUSH2 0x590 JUMPI PUSH2 0x1CF JUMP JUMPDEST DUP1 PUSH4 0xC3886165 EQ PUSH2 0x434 JUMPI DUP1 PUSH4 0xC71DACCB EQ PUSH2 0x451 JUMPI DUP1 PUSH4 0xCFB51928 EQ PUSH2 0x472 JUMPI DUP1 PUSH4 0xD2E99435 EQ PUSH2 0x518 JUMPI PUSH2 0x1CF JUMP JUMPDEST DUP1 PUSH4 0xA59A9973 GT PUSH2 0xDE JUMPI DUP1 PUSH4 0xA59A9973 EQ PUSH2 0x3CC JUMPI DUP1 PUSH4 0xAA4DEA00 EQ PUSH2 0x3D4 JUMPI DUP1 PUSH4 0xB1405D1D EQ PUSH2 0x3F1 JUMPI DUP1 PUSH4 0xBB6CAC78 EQ PUSH2 0x40E JUMPI PUSH2 0x1CF JUMP JUMPDEST DUP1 PUSH4 0x8E5332BA EQ PUSH2 0x368 JUMPI DUP1 PUSH4 0x8E8EEAEF EQ PUSH2 0x370 JUMPI DUP1 PUSH4 0x9F6A011F EQ PUSH2 0x3A6 JUMPI PUSH2 0x1CF JUMP JUMPDEST DUP1 PUSH4 0x3FA4F245 GT PUSH2 0x171 JUMPI DUP1 PUSH4 0x5DFB6688 GT PUSH2 0x14B JUMPI DUP1 PUSH4 0x5DFB6688 EQ PUSH2 0x284 JUMPI DUP1 PUSH4 0x62684616 EQ PUSH2 0x2C6 JUMPI DUP1 PUSH4 0x6BFAC60C EQ PUSH2 0x2CE JUMPI DUP1 PUSH4 0x714A181B EQ PUSH2 0x360 JUMPI PUSH2 0x1CF JUMP JUMPDEST DUP1 PUSH4 0x3FA4F245 EQ PUSH2 0x251 JUMPI DUP1 PUSH4 0x4357855E EQ PUSH2 0x259 JUMPI DUP1 PUSH4 0x4905E59F EQ PUSH2 0x27C JUMPI PUSH2 0x1CF JUMP JUMPDEST DUP1 PUSH4 0x1755FF21 GT PUSH2 0x1AD JUMPI DUP1 PUSH4 0x1755FF21 EQ PUSH2 0x231 JUMPI DUP1 PUSH4 0x23E77DB3 EQ PUSH2 0x239 JUMPI DUP1 PUSH4 0x2501FECC EQ PUSH2 0x241 JUMPI DUP1 PUSH4 0x335073EB EQ PUSH2 0x249 JUMPI PUSH2 0x1CF JUMP JUMPDEST DUP1 PUSH4 0x43C4F9E EQ PUSH2 0x1D4 JUMPI DUP1 PUSH4 0x85D4883 EQ PUSH2 0x203 JUMPI DUP1 PUSH4 0x1554611F EQ PUSH2 0x227 JUMPI JUMPDEST PUSH1 0x0 DUP1 REVERT JUMPDEST PUSH2 0x1F1 PUSH1 0x4 DUP1 CALLDATASIZE SUB PUSH1 0x20 DUP2 LT ISZERO PUSH2 0x1EA JUMPI PUSH1 0x0 DUP1 REVERT JUMPDEST POP CALLDATALOAD PUSH2 0x598 JUMP JUMPDEST PUSH1 0x40 DUP1 MLOAD SWAP2 DUP3 MSTORE MLOAD SWAP1 DUP2 SWAP1 SUB PUSH1 0x20 ADD SWAP1 RETURN JUMPDEST PUSH2 0x20B PUSH2 0x5AD JUMP JUMPDEST PUSH1 0x40 DUP1 MLOAD PUSH1 0x1 PUSH1 0x1 PUSH1 0xA0 SHL SUB SWAP1 SWAP3 AND DUP3 MSTORE MLOAD SWAP1 DUP2 SWAP1 SUB PUSH1 0x20 ADD SWAP1 RETURN JUMPDEST PUSH2 0x22F PUSH2 0x5BC JUMP JUMPDEST STOP JUMPDEST PUSH2 0x20B PUSH2 0xB39 JUMP JUMPDEST PUSH2 0x22F PUSH2 0xB48 JUMP JUMPDEST PUSH2 0x20B PUSH2 0xDF2 JUMP JUMPDEST PUSH2 0x1F1 PUSH2 0xE01 JUMP JUMPDEST PUSH2 0x1F1 PUSH2 0xE07 JUMP JUMPDEST PUSH2 0x22F PUSH1 0x4 DUP1 CALLDATASIZE SUB PUSH1 0x40 DUP2 LT ISZERO PUSH2 0x26F JUMPI PUSH1 0x0 DUP1 REVERT JUMPDEST POP DUP1 CALLDATALOAD SWAP1 PUSH1 0x20 ADD CALLDATALOAD PUSH2 0xE0D JUMP JUMPDEST PUSH2 0x20B PUSH2 0xF56 JUMP JUMPDEST PUSH2 0x22F PUSH1 0x4 DUP1 CALLDATASIZE SUB PUSH1 0x80 DUP2 LT ISZERO PUSH2 0x29A JUMPI PUSH1 0x0 DUP1 REVERT JUMPDEST POP PUSH1 0x1 PUSH1 0x1 PUSH1 0xA0 SHL SUB DUP2 CALLDATALOAD AND SWAP1 PUSH2 0xFFFF PUSH1 0x20 DUP3 ADD CALLDATALOAD DUP2 AND SWAP2 PUSH1 0x40 DUP2 ADD CALLDATALOAD DUP3 AND SWAP2 PUSH1 0x60 SWAP1 SWAP2 ADD CALLDATALOAD AND PUSH2 0xF65 JUMP JUMPDEST PUSH2 0x20B PUSH2 0xFC9 JUMP JUMPDEST PUSH2 0x2EB PUSH1 0x4 DUP1 CALLDATASIZE SUB PUSH1 0x20 DUP2 LT ISZERO PUSH2 0x2E4 JUMPI PUSH1 0x0 DUP1 REVERT JUMPDEST POP CALLDATALOAD PUSH2 0xFD8 JUMP JUMPDEST PUSH1 0x40 DUP1 MLOAD PUSH1 0x20 DUP1 DUP3 MSTORE DUP4 MLOAD DUP2 DUP4 ADD MSTORE DUP4 MLOAD SWAP2 SWAP3 DUP4 SWAP3 SWAP1 DUP4 ADD SWAP2 DUP6 ADD SWAP1 DUP1 DUP4 DUP4 PUSH1 0x0 JUMPDEST DUP4 DUP2 LT ISZERO PUSH2 0x325 JUMPI DUP2 DUP2 ADD MLOAD DUP4 DUP3 ADD MSTORE PUSH1 0x20 ADD PUSH2 0x30D JUMP JUMPDEST POP POP POP POP SWAP1 POP SWAP1 DUP2 ADD SWAP1 PUSH1 0x1F AND DUP1 ISZERO PUSH2 0x352 JUMPI DUP1 DUP3 SUB DUP1 MLOAD PUSH1 0x1 DUP4 PUSH1 0x20 SUB PUSH2 0x100 EXP SUB NOT AND DUP2 MSTORE PUSH1 0x20 ADD SWAP2 POP JUMPDEST POP SWAP3 POP POP POP PUSH1 0x40 MLOAD DUP1 SWAP2 SUB SWAP1 RETURN JUMPDEST PUSH2 0x1F1 PUSH2 0x1073 JUMP JUMPDEST PUSH2 0x1F1 PUSH2 0x1079 JUMP JUMPDEST PUSH2 0x22F PUSH1 0x4 DUP1 CALLDATASIZE SUB PUSH1 0x60 DUP2 LT ISZERO PUSH2 0x386 JUMPI PUSH1 0x0 DUP1 REVERT JUMPDEST POP PUSH1 0x1 PUSH1 0x1 PUSH1 0xA0 SHL SUB DUP2 CALLDATALOAD DUP2 AND SWAP2 PUSH1 0x20 DUP2 ADD CALLDATALOAD SWAP1 SWAP2 AND SWAP1 PUSH1 0x40 ADD CALLDATALOAD PUSH2 0x107F JUMP JUMPDEST PUSH2 0x22F PUSH1 0x4 DUP1 CALLDATASIZE SUB PUSH1 0x20 DUP2 LT ISZERO PUSH2 0x3BC JUMPI PUSH1 0x0 DUP1 REVERT JUMPDEST POP CALLDATALOAD PUSH1 0x1 PUSH1 0x1 PUSH1 0xA0 SHL SUB AND PUSH2 0x1223 JUMP JUMPDEST PUSH2 0x20B PUSH2 0x1414 JUMP JUMPDEST PUSH2 0x1F1 PUSH1 0x4 DUP1 CALLDATASIZE SUB PUSH1 0x20 DUP2 LT ISZERO PUSH2 0x3EA JUMPI PUSH1 0x0 DUP1 REVERT JUMPDEST POP CALLDATALOAD PUSH2 0x1423 JUMP JUMPDEST PUSH2 0x1F1 PUSH1 0x4 DUP1 CALLDATASIZE SUB PUSH1 0x20 DUP2 LT ISZERO PUSH2 0x407 JUMPI PUSH1 0x0 DUP1 REVERT JUMPDEST POP CALLDATALOAD PUSH2 0x1437 JUMP JUMPDEST PUSH2 0x1F1 PUSH1 0x4 DUP1 CALLDATASIZE SUB PUSH1 0x20 DUP2 LT ISZERO PUSH2 0x424 JUMPI PUSH1 0x0 DUP1 REVERT JUMPDEST POP CALLDATALOAD PUSH1 0x1 PUSH1 0x1 PUSH1 0xA0 SHL SUB AND PUSH2 0x1449 JUMP JUMPDEST PUSH2 0x22F PUSH1 0x4 DUP1 CALLDATASIZE SUB PUSH1 0x20 DUP2 LT ISZERO PUSH2 0x44A JUMPI PUSH1 0x0 DUP1 REVERT JUMPDEST POP CALLDATALOAD PUSH2 0x1464 JUMP JUMPDEST PUSH2 0x459 PUSH2 0x1647 JUMP JUMPDEST PUSH1 0x40 DUP1 MLOAD SWAP3 DUP4 MSTORE PUSH1 0x20 DUP4 ADD SWAP2 SWAP1 SWAP2 MSTORE DUP1 MLOAD SWAP2 DUP3 SWAP1 SUB ADD SWAP1 RETURN JUMPDEST PUSH2 0x1F1 PUSH1 0x4 DUP1 CALLDATASIZE SUB PUSH1 0x20 DUP2 LT ISZERO PUSH2 0x488 JUMPI PUSH1 0x0 DUP1 REVERT JUMPDEST DUP2 ADD SWAP1 PUSH1 0x20 DUP2 ADD DUP2 CALLDATALOAD PUSH5 0x100000000 DUP2 GT ISZERO PUSH2 0x4A3 JUMPI PUSH1 0x0 DUP1 REVERT JUMPDEST DUP3 ADD DUP4 PUSH1 0x20 DUP3 ADD GT ISZERO PUSH2 0x4B5 JUMPI PUSH1 0x0 DUP1 REVERT JUMPDEST DUP1 CALLDATALOAD SWAP1 PUSH1 0x20 ADD SWAP2 DUP5 PUSH1 0x1 DUP4 MUL DUP5 ADD GT PUSH5 0x100000000 DUP4 GT OR ISZERO PUSH2 0x4D7 JUMPI PUSH1 0x0 DUP1 REVERT JUMPDEST SWAP2 SWAP1 DUP1 DUP1 PUSH1 0x1F ADD PUSH1 0x20 DUP1 SWAP2 DIV MUL PUSH1 0x20 ADD PUSH1 0x40 MLOAD SWAP1 DUP2 ADD PUSH1 0x40 MSTORE DUP1 SWAP4 SWAP3 SWAP2 SWAP1 DUP2 DUP2 MSTORE PUSH1 0x20 ADD DUP4 DUP4 DUP1 DUP3 DUP5 CALLDATACOPY PUSH1 0x0 SWAP3 ADD SWAP2 SWAP1 SWAP2 MSTORE POP SWAP3 SWAP6 POP PUSH2 0x177F SWAP5 POP POP POP POP POP JUMP JUMPDEST PUSH2 0x22F PUSH1 0x4 DUP1 CALLDATASIZE SUB PUSH1 0x80 DUP2 LT ISZERO PUSH2 0x52E JUMPI PUSH1 0x0 DUP1 REVERT JUMPDEST POP PUSH1 0x1 PUSH1 0x1 PUSH1 0xA0 SHL SUB DUP2 CALLDATALOAD AND SWAP1 PUSH2 0xFFFF PUSH1 0x20 DUP3 ADD CALLDATALOAD DUP2 AND SWAP2 PUSH1 0x40 DUP2 ADD CALLDATALOAD DUP3 AND SWAP2 PUSH1 0x60 SWAP1 SWAP2 ADD CALLDATALOAD AND PUSH2 0x179D JUMP JUMPDEST PUSH2 0x1F1 PUSH1 0x4 DUP1 CALLDATASIZE SUB PUSH1 0x20 DUP2 LT ISZERO PUSH2 0x570 JUMPI PUSH1 0x0 DUP1 REVERT JUMPDEST POP CALLDATALOAD PUSH1 0x1 PUSH1 0x1 PUSH1 0xA0 SHL SUB AND PUSH2 0x1801 JUMP JUMPDEST PUSH2 0x22F PUSH2 0x181C JUMP JUMPDEST PUSH2 0x20B PUSH2 0x1897 JUMP JUMPDEST PUSH2 0x20B PUSH2 0x18BB JUMP JUMPDEST PUSH1 0x0 DUP2 DUP2 MSTORE PUSH1 0x1C PUSH1 0x20 MSTORE PUSH1 0x40 SWAP1 KECCAK256 SLOAD JUMPDEST SWAP2 SWAP1 POP JUMP JUMPDEST PUSH1 0x14 SLOAD PUSH1 0x1 PUSH1 0x1 PUSH1 0xA0 SHL SUB AND DUP2 JUMP JUMPDEST PUSH1 0x7 SLOAD PUSH1 0x1 PUSH1 0x1 PUSH1 0xA0 SHL SUB AND CALLER EQ PUSH2 0x5D3 JUMPI PUSH1 0x0 DUP1 REVERT JUMPDEST PUSH1 0x0 PUSH32 0x0 PUSH1 0x1 PUSH1 0x1 PUSH1 0xA0 SHL SUB AND PUSH4 0x70A08231 ADDRESS PUSH1 0x40 MLOAD DUP3 PUSH4 0xFFFFFFFF AND PUSH1 0xE0 SHL DUP2 MSTORE PUSH1 0x4 ADD DUP1 DUP3 PUSH1 0x1 PUSH1 0x1 PUSH1 0xA0 SHL SUB AND DUP2 MSTORE PUSH1 0x20 ADD SWAP2 POP POP PUSH1 0x20 PUSH1 0x40 MLOAD DUP1 DUP4 SUB DUP2 DUP7 DUP1 EXTCODESIZE ISZERO DUP1 ISZERO PUSH2 0x642 JUMPI PUSH1 0x0 DUP1 REVERT JUMPDEST POP GAS STATICCALL ISZERO DUP1 ISZERO PUSH2 0x656 JUMPI RETURNDATASIZE PUSH1 0x0 DUP1 RETURNDATACOPY RETURNDATASIZE PUSH1 0x0 REVERT JUMPDEST POP POP POP POP PUSH1 0x40 MLOAD RETURNDATASIZE PUSH1 0x20 DUP2 LT ISZERO PUSH2 0x66C JUMPI PUSH1 0x0 DUP1 REVERT JUMPDEST POP MLOAD GT ISZERO PUSH2 0x799 JUMPI PUSH1 0x7 SLOAD PUSH1 0x40 DUP1 MLOAD PUSH4 0x70A08231 PUSH1 0xE0 SHL DUP2 MSTORE ADDRESS PUSH1 0x4 DUP3 ADD MSTORE SWAP1 MLOAD PUSH1 0x1 PUSH1 0x1 PUSH1 0xA0 SHL SUB PUSH32 0x0 DUP2 AND SWAP4 PUSH4 0xA9059CBB SWAP4 SWAP2 AND SWAP2 DUP5 SWAP2 PUSH4 0x70A08231 SWAP2 PUSH1 0x24 DUP1 DUP4 ADD SWAP3 PUSH1 0x20 SWAP3 SWAP2 SWAP1 DUP3 SWAP1 SUB ADD DUP2 DUP7 DUP1 EXTCODESIZE ISZERO DUP1 ISZERO PUSH2 0x6E9 JUMPI PUSH1 0x0 DUP1 REVERT JUMPDEST POP GAS STATICCALL ISZERO DUP1 ISZERO PUSH2 0x6FD JUMPI RETURNDATASIZE PUSH1 0x0 DUP1 RETURNDATACOPY RETURNDATASIZE PUSH1 0x0 REVERT JUMPDEST POP POP POP POP PUSH1 0x40 MLOAD RETURNDATASIZE PUSH1 0x20 DUP2 LT ISZERO PUSH2 0x713 JUMPI PUSH1 0x0 DUP1 REVERT JUMPDEST POP MLOAD PUSH1 0x40 DUP1 MLOAD PUSH1 0x1 PUSH1 0x1 PUSH1 0xE0 SHL SUB NOT PUSH1 0xE0 DUP7 SWAP1 SHL AND DUP2 MSTORE PUSH1 0x1 PUSH1 0x1 PUSH1 0xA0 SHL SUB SWAP1 SWAP4 AND PUSH1 0x4 DUP5 ADD MSTORE PUSH1 0x24 DUP4 ADD SWAP2 SWAP1 SWAP2 MSTORE MLOAD PUSH1 0x44 DUP1 DUP4 ADD SWAP3 PUSH1 0x20 SWAP3 SWAP2 SWAP1 DUP3 SWAP1 SUB ADD DUP2 PUSH1 0x0 DUP8 DUP1 EXTCODESIZE ISZERO DUP1 ISZERO PUSH2 0x764 JUMPI PUSH1 0x0 DUP1 REVERT JUMPDEST POP GAS CALL ISZERO DUP1 ISZERO PUSH2 0x778 JUMPI RETURNDATASIZE PUSH1 0x0 DUP1 RETURNDATACOPY RETURNDATASIZE PUSH1 0x0 REVERT JUMPDEST POP POP POP POP PUSH1 0x40 MLOAD RETURNDATASIZE PUSH1 0x20 DUP2 LT ISZERO PUSH2 0x78E JUMPI PUSH1 0x0 DUP1 REVERT JUMPDEST POP MLOAD PUSH2 0x799 JUMPI PUSH1 0x0 DUP1 REVERT JUMPDEST PUSH1 0x0 PUSH32 0x0 PUSH1 0x1 PUSH1 0x1 PUSH1 0xA0 SHL SUB AND PUSH4 0x70A08231 ADDRESS PUSH1 0x40 MLOAD DUP3 PUSH4 0xFFFFFFFF AND PUSH1 0xE0 SHL DUP2 MSTORE PUSH1 0x4 ADD DUP1 DUP3 PUSH1 0x1 PUSH1 0x1 PUSH1 0xA0 SHL SUB AND DUP2 MSTORE PUSH1 0x20 ADD SWAP2 POP POP PUSH1 0x20 PUSH1 0x40 MLOAD DUP1 DUP4 SUB DUP2 DUP7 DUP1 EXTCODESIZE ISZERO DUP1 ISZERO PUSH2 0x808 JUMPI PUSH1 0x0 DUP1 REVERT JUMPDEST POP GAS STATICCALL ISZERO DUP1 ISZERO PUSH2 0x81C JUMPI RETURNDATASIZE PUSH1 0x0 DUP1 RETURNDATACOPY RETURNDATASIZE PUSH1 0x0 REVERT JUMPDEST POP POP POP POP PUSH1 0x40 MLOAD RETURNDATASIZE PUSH1 0x20 DUP2 LT ISZERO PUSH2 0x832 JUMPI PUSH1 0x0 DUP1 REVERT JUMPDEST POP MLOAD GT ISZERO PUSH2 0x95F JUMPI PUSH1 0x7 SLOAD PUSH1 0x40 DUP1 MLOAD PUSH4 0x70A08231 PUSH1 0xE0 SHL DUP2 MSTORE ADDRESS PUSH1 0x4 DUP3 ADD MSTORE SWAP1 MLOAD PUSH1 0x1 PUSH1 0x1 PUSH1 0xA0 SHL SUB PUSH32 0x0 DUP2 AND SWAP4 PUSH4 0xA9059CBB SWAP4 SWAP2 AND SWAP2 DUP5 SWAP2 PUSH4 0x70A08231 SWAP2 PUSH1 0x24 DUP1 DUP4 ADD SWAP3 PUSH1 0x20 SWAP3 SWAP2 SWAP1 DUP3 SWAP1 SUB ADD DUP2 DUP7 DUP1 EXTCODESIZE ISZERO DUP1 ISZERO PUSH2 0x8AF JUMPI PUSH1 0x0 DUP1 REVERT JUMPDEST POP GAS STATICCALL ISZERO DUP1 ISZERO PUSH2 0x8C3 JUMPI RETURNDATASIZE PUSH1 0x0 DUP1 RETURNDATACOPY RETURNDATASIZE PUSH1 0x0 REVERT JUMPDEST POP POP POP POP PUSH1 0x40 MLOAD RETURNDATASIZE PUSH1 0x20 DUP2 LT ISZERO PUSH2 0x8D9 JUMPI PUSH1 0x0 DUP1 REVERT JUMPDEST POP MLOAD PUSH1 0x40 DUP1 MLOAD PUSH1 0x1 PUSH1 0x1 PUSH1 0xE0 SHL SUB NOT PUSH1 0xE0 DUP7 SWAP1 SHL AND DUP2 MSTORE PUSH1 0x1 PUSH1 0x1 PUSH1 0xA0 SHL SUB SWAP1 SWAP4 AND PUSH1 0x4 DUP5 ADD MSTORE PUSH1 0x24 DUP4 ADD SWAP2 SWAP1 SWAP2 MSTORE MLOAD PUSH1 0x44 DUP1 DUP4 ADD SWAP3 PUSH1 0x20 SWAP3 SWAP2 SWAP1 DUP3 SWAP1 SUB ADD DUP2 PUSH1 0x0 DUP8 DUP1 EXTCODESIZE ISZERO DUP1 ISZERO PUSH2 0x92A JUMPI PUSH1 0x0 DUP1 REVERT JUMPDEST POP GAS CALL ISZERO DUP1 ISZERO PUSH2 0x93E JUMPI RETURNDATASIZE PUSH1 0x0 DUP1 RETURNDATACOPY RETURNDATASIZE PUSH1 0x0 REVERT JUMPDEST POP POP POP POP PUSH1 0x40 MLOAD RETURNDATASIZE PUSH1 0x20 DUP2 LT ISZERO PUSH2 0x954 JUMPI PUSH1 0x0 DUP1 REVERT JUMPDEST POP MLOAD PUSH2 0x95F JUMPI PUSH1 0x0 DUP1 REVERT JUMPDEST PUSH1 0x0 PUSH2 0x969 PUSH2 0x18DF JUMP JUMPDEST SWAP1 POP PUSH1 0x0 DUP2 PUSH1 0x1 PUSH1 0x1 PUSH1 0xA0 SHL SUB AND PUSH4 0x70A08231 ADDRESS PUSH1 0x40 MLOAD DUP3 PUSH4 0xFFFFFFFF AND PUSH1 0xE0 SHL DUP2 MSTORE PUSH1 0x4 ADD DUP1 DUP3 PUSH1 0x1 PUSH1 0x1 PUSH1 0xA0 SHL SUB AND DUP2 MSTORE PUSH1 0x20 ADD SWAP2 POP POP PUSH1 0x20 PUSH1 0x40 MLOAD DUP1 DUP4 SUB DUP2 DUP7 DUP1 EXTCODESIZE ISZERO DUP1 ISZERO PUSH2 0x9BA JUMPI PUSH1 0x0 DUP1 REVERT JUMPDEST POP GAS STATICCALL ISZERO DUP1 ISZERO PUSH2 0x9CE JUMPI RETURNDATASIZE PUSH1 0x0 DUP1 RETURNDATACOPY RETURNDATASIZE PUSH1 0x0 REVERT JUMPDEST POP POP POP POP PUSH1 0x40 MLOAD RETURNDATASIZE PUSH1 0x20 DUP2 LT ISZERO PUSH2 0x9E4 JUMPI PUSH1 0x0 DUP1 REVERT JUMPDEST POP MLOAD GT ISZERO PUSH2 0xB36 JUMPI DUP1 PUSH1 0x1 PUSH1 0x1 PUSH1 0xA0 SHL SUB AND PUSH4 0xA9059CBB CALLER DUP4 PUSH1 0x1 PUSH1 0x1 PUSH1 0xA0 SHL SUB AND PUSH4 0x70A08231 ADDRESS PUSH1 0x40 MLOAD DUP3 PUSH4 0xFFFFFFFF AND PUSH1 0xE0 SHL DUP2 MSTORE PUSH1 0x4 ADD DUP1 DUP3 PUSH1 0x1 PUSH1 0x1 PUSH1 0xA0 SHL SUB AND DUP2 MSTORE PUSH1 0x20 ADD SWAP2 POP POP PUSH1 0x20 PUSH1 0x40 MLOAD DUP1 DUP4 SUB DUP2 DUP7 DUP1 EXTCODESIZE ISZERO DUP1 ISZERO PUSH2 0xA49 JUMPI PUSH1 0x0 DUP1 REVERT JUMPDEST POP GAS STATICCALL ISZERO DUP1 ISZERO PUSH2 0xA5D JUMPI RETURNDATASIZE PUSH1 0x0 DUP1 RETURNDATACOPY RETURNDATASIZE PUSH1 0x0 REVERT JUMPDEST POP POP POP POP PUSH1 0x40 MLOAD RETURNDATASIZE PUSH1 0x20 DUP2 LT ISZERO PUSH2 0xA73 JUMPI PUSH1 0x0 DUP1 REVERT JUMPDEST POP MLOAD PUSH1 0x40 DUP1 MLOAD PUSH1 0x1 PUSH1 0x1 PUSH1 0xE0 SHL SUB NOT PUSH1 0xE0 DUP7 SWAP1 SHL AND DUP2 MSTORE PUSH1 0x1 PUSH1 0x1 PUSH1 0xA0 SHL SUB SWAP1 SWAP4 AND PUSH1 0x4 DUP5 ADD MSTORE PUSH1 0x24 DUP4 ADD SWAP2 SWAP1 SWAP2 MSTORE MLOAD PUSH1 0x44 DUP1 DUP4 ADD SWAP3 PUSH1 0x20 SWAP3 SWAP2 SWAP1 DUP3 SWAP1 SUB ADD DUP2 PUSH1 0x0 DUP8 DUP1 EXTCODESIZE ISZERO DUP1 ISZERO PUSH2 0xAC4 JUMPI PUSH1 0x0 DUP1 REVERT JUMPDEST POP GAS CALL ISZERO DUP1 ISZERO PUSH2 0xAD8 JUMPI RETURNDATASIZE PUSH1 0x0 DUP1 RETURNDATACOPY RETURNDATASIZE PUSH1 0x0 REVERT JUMPDEST POP POP POP POP PUSH1 0x40 MLOAD RETURNDATASIZE PUSH1 0x20 DUP2 LT ISZERO PUSH2 0xAEE JUMPI PUSH1 0x0 DUP1 REVERT JUMPDEST POP MLOAD PUSH2 0xB36 JUMPI PUSH1 0x40 DUP1 MLOAD PUSH3 0x461BCD PUSH1 0xE5 SHL DUP2 MSTORE PUSH1 0x20 PUSH1 0x4 DUP3 ADD MSTORE PUSH1 0x12 PUSH1 0x24 DUP3 ADD MSTORE PUSH18 0x2AB730B13632903A37903A3930B739B332B9 PUSH1 0x71 SHL PUSH1 0x44 DUP3 ADD MSTORE SWAP1 MLOAD SWAP1 DUP2 SWAP1 SUB PUSH1 0x64 ADD SWAP1 REVERT JUMPDEST POP JUMP JUMPDEST PUSH1 0xA SLOAD PUSH1 0x1 PUSH1 0x1 PUSH1 0xA0 SHL SUB AND DUP2 JUMP JUMPDEST PUSH1 0x7 SLOAD PUSH1 0x1 PUSH1 0x1 PUSH1 0xA0 SHL SUB AND CALLER EQ PUSH2 0xB5F JUMPI PUSH1 0x0 DUP1 REVERT JUMPDEST PUSH1 0x0 PUSH32 0x0 PUSH1 0x1 PUSH1 0x1 PUSH1 0xA0 SHL SUB AND PUSH4 0x70A08231 ADDRESS PUSH1 0x40 MLOAD DUP3 PUSH4 0xFFFFFFFF AND PUSH1 0xE0 SHL DUP2 MSTORE PUSH1 0x4 ADD DUP1 DUP3 PUSH1 0x1 PUSH1 0x1 PUSH1 0xA0 SHL SUB AND DUP2 MSTORE PUSH1 0x20 ADD SWAP2 POP POP PUSH1 0x20 PUSH1 0x40 MLOAD DUP1 DUP4 SUB DUP2 DUP7 DUP1 EXTCODESIZE ISZERO DUP1 ISZERO PUSH2 0xBCE JUMPI PUSH1 0x0 DUP1 REVERT JUMPDEST POP GAS STATICCALL ISZERO DUP1 ISZERO PUSH2 0xBE2 JUMPI RETURNDATASIZE PUSH1 0x0 DUP1 RETURNDATACOPY RETURNDATASIZE PUSH1 0x0 REVERT JUMPDEST POP POP POP POP PUSH1 0x40 MLOAD RETURNDATASIZE PUSH1 0x20 DUP2 LT ISZERO PUSH2 0xBF8 JUMPI PUSH1 0x0 DUP1 REVERT JUMPDEST POP MLOAD PUSH1 0x6 SLOAD PUSH1 0x40 DUP1 MLOAD PUSH4 0x70A08231 PUSH1 0xE0 SHL DUP2 MSTORE ADDRESS PUSH1 0x4 DUP3 ADD MSTORE SWAP1 MLOAD SWAP3 SWAP4 POP SWAP1 DUP4 SUB SWAP2 DUP3 SWAP2 PUSH1 0x1 PUSH1 0x1 PUSH1 0xA0 SHL SUB PUSH32 0x0 AND SWAP2 PUSH4 0x70A08231 SWAP2 PUSH1 0x24 DUP1 DUP3 ADD SWAP3 PUSH1 0x20 SWAP3 SWAP1 SWAP2 SWAP1 DUP3 SWAP1 SUB ADD DUP2 DUP7 DUP1 EXTCODESIZE ISZERO DUP1 ISZERO PUSH2 0xC6D JUMPI PUSH1 0x0 DUP1 REVERT JUMPDEST POP GAS STATICCALL ISZERO DUP1 ISZERO PUSH2 0xC81 JUMPI RETURNDATASIZE PUSH1 0x0 DUP1 RETURNDATACOPY RETURNDATASIZE PUSH1 0x0 REVERT JUMPDEST POP POP POP POP PUSH1 0x40 MLOAD RETURNDATASIZE PUSH1 0x20 DUP2 LT ISZERO PUSH2 0xC97 JUMPI PUSH1 0x0 DUP1 REVERT JUMPDEST POP MLOAD LT ISZERO PUSH2 0xD42 JUMPI PUSH2 0xD42 PUSH32 0x0 PUSH1 0x1 PUSH1 0x1 PUSH1 0xA0 SHL SUB AND PUSH4 0x70A08231 ADDRESS PUSH1 0x40 MLOAD DUP3 PUSH4 0xFFFFFFFF AND PUSH1 0xE0 SHL DUP2 MSTORE PUSH1 0x4 ADD DUP1 DUP3 PUSH1 0x1 PUSH1 0x1 PUSH1 0xA0 SHL SUB AND DUP2 MSTORE PUSH1 0x20 ADD SWAP2 POP POP PUSH1 0x20 PUSH1 0x40 MLOAD DUP1 DUP4 SUB DUP2 DUP7 DUP1 EXTCODESIZE ISZERO DUP1 ISZERO PUSH2 0xD0F JUMPI PUSH1 0x0 DUP1 REVERT JUMPDEST POP GAS STATICCALL ISZERO DUP1 ISZERO PUSH2 0xD23 JUMPI RETURNDATASIZE PUSH1 0x0 DUP1 RETURNDATACOPY RETURNDATASIZE PUSH1 0x0 REVERT JUMPDEST POP POP POP POP PUSH1 0x40 MLOAD RETURNDATASIZE PUSH1 0x20 DUP2 LT ISZERO PUSH2 0xD39 JUMPI PUSH1 0x0 DUP1 REVERT JUMPDEST POP MLOAD DUP3 SUB PUSH2 0x1464 JUMP JUMPDEST PUSH1 0x7 SLOAD PUSH1 0x40 DUP1 MLOAD PUSH4 0xA9059CBB PUSH1 0xE0 SHL DUP2 MSTORE PUSH1 0x1 PUSH1 0x1 PUSH1 0xA0 SHL SUB SWAP3 DUP4 AND PUSH1 0x4 DUP3 ADD MSTORE PUSH1 0x24 DUP2 ADD DUP5 SWAP1 MSTORE SWAP1 MLOAD PUSH32 0x0 SWAP1 SWAP3 AND SWAP2 PUSH4 0xA9059CBB SWAP2 PUSH1 0x44 DUP1 DUP3 ADD SWAP3 PUSH1 0x20 SWAP3 SWAP1 SWAP2 SWAP1 DUP3 SWAP1 SUB ADD DUP2 PUSH1 0x0 DUP8 DUP1 EXTCODESIZE ISZERO DUP1 ISZERO PUSH2 0xDB9 JUMPI PUSH1 0x0 DUP1 REVERT JUMPDEST POP GAS CALL ISZERO DUP1 ISZERO PUSH2 0xDCD JUMPI RETURNDATASIZE PUSH1 0x0 DUP1 RETURNDATACOPY RETURNDATASIZE PUSH1 0x0 REVERT JUMPDEST POP POP POP POP PUSH1 0x40 MLOAD RETURNDATASIZE PUSH1 0x20 DUP2 LT ISZERO PUSH2 0xDE3 JUMPI PUSH1 0x0 DUP1 REVERT JUMPDEST POP MLOAD PUSH2 0xDEE JUMPI PUSH1 0x0 DUP1 REVERT JUMPDEST POP POP JUMP JUMPDEST PUSH1 0x9 SLOAD PUSH1 0x1 PUSH1 0x1 PUSH1 0xA0 SHL SUB AND DUP2 JUMP JUMPDEST PUSH1 0x6 SLOAD SWAP1 JUMP JUMPDEST PUSH1 0xC SLOAD DUP2 JUMP JUMPDEST PUSH1 0x0 DUP3 DUP2 MSTORE PUSH1 0x5 PUSH1 0x20 MSTORE PUSH1 0x40 SWAP1 KECCAK256 SLOAD DUP3 SWAP1 PUSH1 0x1 PUSH1 0x1 PUSH1 0xA0 SHL SUB AND CALLER EQ PUSH2 0xE64 JUMPI PUSH1 0x40 MLOAD PUSH3 0x461BCD PUSH1 0xE5 SHL DUP2 MSTORE PUSH1 0x4 ADD DUP1 DUP1 PUSH1 0x20 ADD DUP3 DUP2 SUB DUP3 MSTORE PUSH1 0x28 DUP2 MSTORE PUSH1 0x20 ADD DUP1 PUSH2 0x2538 PUSH1 0x28 SWAP2 CODECOPY PUSH1 0x40 ADD SWAP2 POP POP PUSH1 0x40 MLOAD DUP1 SWAP2 SUB SWAP1 REVERT JUMPDEST PUSH1 0x0 DUP2 DUP2 MSTORE PUSH1 0x5 PUSH1 0x20 MSTORE PUSH1 0x40 DUP1 DUP3 KECCAK256 DUP1 SLOAD PUSH1 0x1 PUSH1 0x1 PUSH1 0xA0 SHL SUB NOT AND SWAP1 SSTORE MLOAD DUP3 SWAP2 PUSH32 0x7CC135E0CEBB02C3480AE5D74D377283180A2601F8F644EDF7987B009316C63A SWAP2 LOG2 PUSH1 0x14 SLOAD DUP3 SWAP1 PUSH1 0x10 SWAP1 PUSH1 0x1 PUSH1 0xA0 SHL SWAP1 DIV PUSH2 0xFFFF AND PUSH1 0x3 DUP2 LT PUSH2 0xEC4 JUMPI INVALID JUMPDEST ADD SSTORE PUSH1 0x14 DUP1 SLOAD PUSH1 0x1 PUSH2 0xFFFF PUSH1 0x1 PUSH1 0xA0 SHL DUP1 DUP5 DIV DUP3 AND SWAP3 SWAP1 SWAP3 ADD AND MUL PUSH2 0xFFFF PUSH1 0xA0 SHL NOT SWAP1 SWAP2 AND OR SWAP1 SSTORE PUSH1 0x3 PUSH1 0x64 PUSH1 0x10 PUSH1 0x2 ADD SLOAD PUSH1 0x16 SLOAD PUSH5 0x100000000 SWAP1 DIV PUSH2 0xFFFF AND MUL DUP2 PUSH2 0xF0D JUMPI INVALID JUMPDEST DIV PUSH1 0x64 PUSH1 0x10 PUSH1 0x1 ADD SLOAD PUSH1 0x16 SLOAD PUSH3 0x10000 SWAP1 DIV PUSH2 0xFFFF AND MUL DUP2 PUSH2 0xF2B JUMPI INVALID JUMPDEST DIV PUSH1 0x64 PUSH1 0x10 PUSH1 0x0 ADD SLOAD PUSH1 0x16 SLOAD PUSH2 0xFFFF AND MUL DUP2 PUSH2 0xF43 JUMPI INVALID JUMPDEST DIV ADD ADD DUP2 PUSH2 0xF4D JUMPI INVALID JUMPDEST DIV PUSH1 0x15 SSTORE POP POP POP JUMP JUMPDEST PUSH1 0x8 SLOAD PUSH1 0x1 PUSH1 0x1 PUSH1 0xA0 SHL SUB AND DUP2 JUMP JUMPDEST PUSH1 0x7 SLOAD PUSH1 0x1 PUSH1 0x1 PUSH1 0xA0 SHL SUB AND CALLER EQ PUSH2 0xF7C JUMPI PUSH1 0x0 DUP1 REVERT JUMPDEST PUSH1 0x1 PUSH1 0x1 PUSH1 0xA0 SHL SUB DUP5 AND PUSH1 0x0 SWAP1 DUP2 MSTORE PUSH1 0x18 PUSH1 0x20 MSTORE PUSH1 0x40 SWAP1 KECCAK256 SLOAD PUSH2 0xFA0 DUP5 DUP5 DUP5 PUSH2 0x18EE JUMP JUMPDEST PUSH2 0xFA8 PUSH2 0x1947 JUMP JUMPDEST PUSH2 0xFB0 PUSH2 0x1A7A JUMP JUMPDEST PUSH1 0x15 SLOAD PUSH1 0x0 SWAP2 DUP3 MSTORE PUSH1 0x1D PUSH1 0x20 MSTORE PUSH1 0x40 SWAP1 SWAP2 KECCAK256 SSTORE POP POP POP POP JUMP JUMPDEST PUSH1 0xB SLOAD PUSH1 0x1 PUSH1 0x1 PUSH1 0xA0 SHL SUB AND DUP2 JUMP JUMPDEST PUSH1 0xD DUP2 PUSH1 0x3 DUP2 LT PUSH2 0xFE5 JUMPI INVALID JUMPDEST ADD DUP1 SLOAD PUSH1 0x40 DUP1 MLOAD PUSH1 0x20 PUSH1 0x1F PUSH1 0x2 PUSH1 0x0 NOT PUSH2 0x100 PUSH1 0x1 DUP9 AND ISZERO MUL ADD SWAP1 SWAP6 AND SWAP5 SWAP1 SWAP5 DIV SWAP4 DUP5 ADD DUP2 SWAP1 DIV DUP2 MUL DUP3 ADD DUP2 ADD SWAP1 SWAP3 MSTORE DUP3 DUP2 MSTORE SWAP4 POP DUP4 ADD DUP3 DUP3 DUP1 ISZERO PUSH2 0x106B JUMPI DUP1 PUSH1 0x1F LT PUSH2 0x1040 JUMPI PUSH2 0x100 DUP1 DUP4 SLOAD DIV MUL DUP4 MSTORE SWAP2 PUSH1 0x20 ADD SWAP2 PUSH2 0x106B JUMP JUMPDEST DUP3 ADD SWAP2 SWAP1 PUSH1 0x0 MSTORE PUSH1 0x20 PUSH1 0x0 KECCAK256 SWAP1 JUMPDEST DUP2 SLOAD DUP2 MSTORE SWAP1 PUSH1 0x1 ADD SWAP1 PUSH1 0x20 ADD DUP1 DUP4 GT PUSH2 0x104E JUMPI DUP3 SWAP1 SUB PUSH1 0x1F AND DUP3 ADD SWAP2 JUMPDEST POP POP POP POP POP DUP2 JUMP JUMPDEST PUSH1 0x6 SLOAD DUP2 JUMP JUMPDEST PUSH1 0x15 SLOAD SWAP1 JUMP JUMPDEST PUSH1 0x1 PUSH1 0x1 PUSH1 0xA0 SHL SUB DUP4 AND PUSH1 0x0 SWAP1 DUP2 MSTORE PUSH1 0x18 PUSH1 0x20 MSTORE PUSH1 0x40 DUP2 KECCAK256 SLOAD SGT ISZERO PUSH2 0x10EB JUMPI PUSH1 0x40 DUP1 MLOAD PUSH3 0x461BCD PUSH1 0xE5 SHL DUP2 MSTORE PUSH1 0x20 PUSH1 0x4 DUP3 ADD MSTORE PUSH1 0x17 PUSH1 0x24 DUP3 ADD MSTORE PUSH32 0x637573746F6D657220616C726561647920657869737473000000000000000000 PUSH1 0x44 DUP3 ADD MSTORE SWAP1 MLOAD SWAP1 DUP2 SWAP1 SUB PUSH1 0x64 ADD SWAP1 REVERT JUMPDEST PUSH32 0x0 PUSH1 0x1 PUSH1 0x1 PUSH1 0xA0 SHL SUB AND PUSH4 0x23B872DD DUP4 ADDRESS DUP5 PUSH1 0x40 MLOAD DUP5 PUSH4 0xFFFFFFFF AND PUSH1 0xE0 SHL DUP2 MSTORE PUSH1 0x4 ADD DUP1 DUP5 PUSH1 0x1 PUSH1 0x1 PUSH1 0xA0 SHL SUB AND DUP2 MSTORE PUSH1 0x20 ADD DUP4 PUSH1 0x1 PUSH1 0x1 PUSH1 0xA0 SHL SUB AND DUP2 MSTORE PUSH1 0x20 ADD DUP3 DUP2 MSTORE PUSH1 0x20 ADD SWAP4 POP POP POP POP PUSH1 0x20 PUSH1 0x40 MLOAD DUP1 DUP4 SUB DUP2 PUSH1 0x0 DUP8 DUP1 EXTCODESIZE ISZERO DUP1 ISZERO PUSH2 0x1173 JUMPI PUSH1 0x0 DUP1 REVERT JUMPDEST POP GAS CALL ISZERO DUP1 ISZERO PUSH2 0x1187 JUMPI RETURNDATASIZE PUSH1 0x0 DUP1 RETURNDATACOPY RETURNDATASIZE PUSH1 0x0 REVERT JUMPDEST POP POP POP POP PUSH1 0x40 MLOAD RETURNDATASIZE PUSH1 0x20 DUP2 LT ISZERO PUSH2 0x119D JUMPI PUSH1 0x0 DUP1 REVERT JUMPDEST POP MLOAD PUSH2 0x11A8 JUMPI PUSH1 0x0 DUP1 REVERT JUMPDEST PUSH1 0x6 DUP1 SLOAD DUP3 ADD SWAP1 SSTORE PUSH1 0x17 DUP1 SLOAD PUSH1 0x1 PUSH1 0x1 PUSH1 0xA0 SHL SUB DUP1 DUP7 AND PUSH1 0x0 SWAP1 DUP2 MSTORE PUSH1 0x18 PUSH1 0x20 SWAP1 DUP2 MSTORE PUSH1 0x40 DUP1 DUP4 KECCAK256 DUP6 SWAP1 SSTORE SWAP3 DUP8 AND DUP1 DUP4 MSTORE PUSH1 0x19 DUP3 MSTORE DUP4 DUP4 KECCAK256 DUP6 SWAP1 SSTORE SWAP4 DUP3 MSTORE PUSH1 0x1C DUP2 MSTORE DUP3 DUP3 KECCAK256 DUP7 SWAP1 SSTORE SWAP4 SLOAD DUP2 MSTORE PUSH1 0x1A SWAP1 SWAP4 MSTORE SWAP1 SWAP2 KECCAK256 DUP1 SLOAD PUSH1 0x1 PUSH1 0x1 PUSH1 0xA0 SHL SUB NOT AND SWAP1 SWAP2 OR SWAP1 SSTORE PUSH2 0x1215 PUSH2 0x1ADA JUMP JUMPDEST POP POP PUSH1 0x17 DUP1 SLOAD PUSH1 0x1 ADD SWAP1 SSTORE POP JUMP JUMPDEST PUSH1 0x7 SLOAD PUSH1 0x1 PUSH1 0x1 PUSH1 0xA0 SHL SUB AND CALLER EQ PUSH2 0x123A JUMPI PUSH1 0x0 DUP1 REVERT JUMPDEST PUSH1 0x1 PUSH1 0x1 PUSH1 0xA0 SHL SUB DUP1 DUP3 AND PUSH1 0x0 SWAP1 DUP2 MSTORE PUSH1 0x18 PUSH1 0x20 SWAP1 DUP2 MSTORE PUSH1 0x40 DUP1 DUP4 KECCAK256 SLOAD DUP1 DUP5 MSTORE PUSH1 0x1C DUP4 MSTORE DUP2 DUP5 KECCAK256 SLOAD PUSH1 0x1B DUP5 MSTORE DUP3 DUP6 KECCAK256 SLOAD PUSH1 0x1A DUP6 MSTORE DUP4 DUP7 KECCAK256 SLOAD PUSH1 0x1D SWAP1 SWAP6 MSTORE SWAP3 SWAP1 SWAP5 KECCAK256 SLOAD SWAP1 SWAP5 SWAP2 SWAP3 SWAP1 SWAP2 AND SWAP1 PUSH2 0x128D DUP5 PUSH2 0x1464 JUMP JUMPDEST DUP3 DUP2 GT ISZERO PUSH2 0x1346 JUMPI PUSH32 0x0 PUSH1 0x1 PUSH1 0x1 PUSH1 0xA0 SHL SUB AND PUSH4 0xA9059CBB DUP8 DUP7 PUSH1 0x40 MLOAD DUP4 PUSH4 0xFFFFFFFF AND PUSH1 0xE0 SHL DUP2 MSTORE PUSH1 0x4 ADD DUP1 DUP4 PUSH1 0x1 PUSH1 0x1 PUSH1 0xA0 SHL SUB AND DUP2 MSTORE PUSH1 0x20 ADD DUP3 DUP2 MSTORE PUSH1 0x20 ADD SWAP3 POP POP POP PUSH1 0x20 PUSH1 0x40 MLOAD DUP1 DUP4 SUB DUP2 PUSH1 0x0 DUP8 DUP1 EXTCODESIZE ISZERO DUP1 ISZERO PUSH2 0x130C JUMPI PUSH1 0x0 DUP1 REVERT JUMPDEST POP GAS CALL ISZERO DUP1 ISZERO PUSH2 0x1320 JUMPI RETURNDATASIZE PUSH1 0x0 DUP1 RETURNDATACOPY RETURNDATASIZE PUSH1 0x0 REVERT JUMPDEST POP POP POP POP PUSH1 0x40 MLOAD RETURNDATASIZE PUSH1 0x20 DUP2 LT ISZERO PUSH2 0x1336 JUMPI PUSH1 0x0 DUP1 REVERT JUMPDEST POP MLOAD PUSH2 0x1341 JUMPI PUSH1 0x0 DUP1 REVERT JUMPDEST PUSH2 0x13F2 JUMP JUMPDEST PUSH32 0x0 PUSH1 0x1 PUSH1 0x1 PUSH1 0xA0 SHL SUB AND PUSH4 0xA9059CBB DUP4 DUP7 PUSH1 0x40 MLOAD DUP4 PUSH4 0xFFFFFFFF AND PUSH1 0xE0 SHL DUP2 MSTORE PUSH1 0x4 ADD DUP1 DUP4 PUSH1 0x1 PUSH1 0x1 PUSH1 0xA0 SHL SUB AND DUP2 MSTORE PUSH1 0x20 ADD DUP3 DUP2 MSTORE PUSH1 0x20 ADD SWAP3 POP POP POP PUSH1 0x20 PUSH1 0x40 MLOAD DUP1 DUP4 SUB DUP2 PUSH1 0x0 DUP8 DUP1 EXTCODESIZE ISZERO DUP1 ISZERO PUSH2 0x13BD JUMPI PUSH1 0x0 DUP1 REVERT JUMPDEST POP GAS CALL ISZERO DUP1 ISZERO PUSH2 0x13D1 JUMPI RETURNDATASIZE PUSH1 0x0 DUP1 RETURNDATACOPY RETURNDATASIZE PUSH1 0x0 REVERT JUMPDEST POP POP POP POP PUSH1 0x40 MLOAD RETURNDATASIZE PUSH1 0x20 DUP2 LT ISZERO PUSH2 0x13E7 JUMPI PUSH1 0x0 DUP1 REVERT JUMPDEST POP MLOAD PUSH2 0x13F2 JUMPI PUSH1 0x0 DUP1 REVERT JUMPDEST POP POP POP PUSH1 0x0 SWAP2 DUP3 MSTORE POP PUSH1 0x1C PUSH1 0x20 MSTORE PUSH1 0x40 DUP2 KECCAK256 DUP1 SLOAD PUSH1 0x6 DUP1 SLOAD SWAP2 SWAP1 SWAP2 SUB SWAP1 SSTORE SSTORE POP JUMP JUMPDEST PUSH1 0x13 SLOAD PUSH1 0x1 PUSH1 0x1 PUSH1 0xA0 SHL SUB AND DUP2 JUMP JUMPDEST PUSH1 0x10 DUP2 PUSH1 0x3 DUP2 LT PUSH2 0x1430 JUMPI INVALID JUMPDEST ADD SLOAD SWAP1 POP DUP2 JUMP JUMPDEST PUSH1 0x1D PUSH1 0x20 MSTORE PUSH1 0x0 SWAP1 DUP2 MSTORE PUSH1 0x40 SWAP1 KECCAK256 SLOAD DUP2 JUMP JUMPDEST PUSH1 0x1 PUSH1 0x1 PUSH1 0xA0 SHL SUB AND PUSH1 0x0 SWAP1 DUP2 MSTORE PUSH1 0x19 PUSH1 0x20 MSTORE PUSH1 0x40 SWAP1 KECCAK256 SLOAD SWAP1 JUMP JUMPDEST PUSH1 0x7 SLOAD PUSH1 0x1 PUSH1 0x1 PUSH1 0xA0 SHL SUB AND CALLER EQ PUSH2 0x147B JUMPI PUSH1 0x0 DUP1 REVERT JUMPDEST PUSH1 0xA SLOAD PUSH1 0x40 DUP1 MLOAD PUSH4 0x95EA7B3 PUSH1 0xE0 SHL DUP2 MSTORE PUSH1 0x1 PUSH1 0x1 PUSH1 0xA0 SHL SUB SWAP3 DUP4 AND PUSH1 0x4 DUP3 ADD MSTORE PUSH1 0x24 DUP2 ADD DUP5 SWAP1 MSTORE SWAP1 MLOAD PUSH32 0x0 SWAP1 SWAP3 AND SWAP2 PUSH4 0x95EA7B3 SWAP2 PUSH1 0x44 DUP1 DUP3 ADD SWAP3 PUSH1 0x20 SWAP3 SWAP1 SWAP2 SWAP1 DUP3 SWAP1 SUB ADD DUP2 PUSH1 0x0 DUP8 DUP1 EXTCODESIZE ISZERO DUP1 ISZERO PUSH2 0x14F2 JUMPI PUSH1 0x0 DUP1 REVERT JUMPDEST POP GAS CALL ISZERO DUP1 ISZERO PUSH2 0x1506 JUMPI RETURNDATASIZE PUSH1 0x0 DUP1 RETURNDATACOPY RETURNDATASIZE PUSH1 0x0 REVERT JUMPDEST POP POP POP POP PUSH1 0x40 MLOAD RETURNDATASIZE PUSH1 0x20 DUP2 LT ISZERO PUSH2 0x151C JUMPI PUSH1 0x0 DUP1 REVERT JUMPDEST POP POP PUSH1 0x40 DUP1 MLOAD PUSH4 0x95EA7B3 PUSH1 0xE0 SHL DUP2 MSTORE ADDRESS PUSH1 0x4 DUP3 ADD MSTORE PUSH1 0x24 DUP2 ADD DUP4 SWAP1 MSTORE SWAP1 MLOAD PUSH1 0x1 PUSH1 0x1 PUSH1 0xA0 SHL SUB PUSH32 0x0 AND SWAP2 PUSH4 0x95EA7B3 SWAP2 PUSH1 0x44 DUP1 DUP4 ADD SWAP3 PUSH1 0x20 SWAP3 SWAP2 SWAP1 DUP3 SWAP1 SUB ADD DUP2 PUSH1 0x0 DUP8 DUP1 EXTCODESIZE ISZERO DUP1 ISZERO PUSH2 0x158D JUMPI PUSH1 0x0 DUP1 REVERT JUMPDEST POP GAS CALL ISZERO DUP1 ISZERO PUSH2 0x15A1 JUMPI RETURNDATASIZE PUSH1 0x0 DUP1 RETURNDATACOPY RETURNDATASIZE PUSH1 0x0 REVERT JUMPDEST POP POP POP POP PUSH1 0x40 MLOAD RETURNDATASIZE PUSH1 0x20 DUP2 LT ISZERO PUSH2 0x15B7 JUMPI PUSH1 0x0 DUP1 REVERT JUMPDEST POP POP PUSH1 0x13 SLOAD PUSH1 0x8 SLOAD PUSH1 0x40 DUP1 MLOAD PUSH4 0x1A4CA37B PUSH1 0xE2 SHL DUP2 MSTORE PUSH1 0x1 PUSH1 0x1 PUSH1 0xA0 SHL SUB SWAP3 DUP4 AND PUSH1 0x4 DUP3 ADD MSTORE PUSH1 0x24 DUP2 ADD DUP6 SWAP1 MSTORE ADDRESS PUSH1 0x44 DUP3 ADD MSTORE SWAP1 MLOAD SWAP2 SWAP1 SWAP3 AND SWAP2 PUSH4 0x69328DEC SWAP2 PUSH1 0x64 DUP1 DUP4 ADD SWAP3 PUSH1 0x20 SWAP3 SWAP2 SWAP1 DUP3 SWAP1 SUB ADD DUP2 PUSH1 0x0 DUP8 DUP1 EXTCODESIZE ISZERO DUP1 ISZERO PUSH2 0x1618 JUMPI PUSH1 0x0 DUP1 REVERT JUMPDEST POP GAS CALL ISZERO DUP1 ISZERO PUSH2 0x162C JUMPI RETURNDATASIZE PUSH1 0x0 DUP1 RETURNDATACOPY RETURNDATASIZE PUSH1 0x0 REVERT JUMPDEST POP POP POP POP PUSH1 0x40 MLOAD RETURNDATASIZE PUSH1 0x20 DUP2 LT ISZERO PUSH2 0x1642 JUMPI PUSH1 0x0 DUP1 REVERT JUMPDEST POP POP POP JUMP JUMPDEST PUSH1 0x0 DUP1 PUSH32 0x0 PUSH1 0x1 PUSH1 0x1 PUSH1 0xA0 SHL SUB AND PUSH4 0x70A08231 ADDRESS PUSH1 0x40 MLOAD DUP3 PUSH4 0xFFFFFFFF AND PUSH1 0xE0 SHL DUP2 MSTORE PUSH1 0x4 ADD DUP1 DUP3 PUSH1 0x1 PUSH1 0x1 PUSH1 0xA0 SHL SUB AND DUP2 MSTORE PUSH1 0x20 ADD SWAP2 POP POP PUSH1 0x20 PUSH1 0x40 MLOAD DUP1 DUP4 SUB DUP2 DUP7 DUP1 EXTCODESIZE ISZERO DUP1 ISZERO PUSH2 0x16B7 JUMPI PUSH1 0x0 DUP1 REVERT JUMPDEST POP GAS STATICCALL ISZERO DUP1 ISZERO PUSH2 0x16CB JUMPI RETURNDATASIZE PUSH1 0x0 DUP1 RETURNDATACOPY RETURNDATASIZE PUSH1 0x0 REVERT JUMPDEST POP POP POP POP PUSH1 0x40 MLOAD RETURNDATASIZE PUSH1 0x20 DUP2 LT ISZERO PUSH2 0x16E1 JUMPI PUSH1 0x0 DUP1 REVERT JUMPDEST POP MLOAD PUSH1 0x40 DUP1 MLOAD PUSH4 0x70A08231 PUSH1 0xE0 SHL DUP2 MSTORE ADDRESS PUSH1 0x4 DUP3 ADD MSTORE SWAP1 MLOAD SWAP2 SWAP4 POP PUSH1 0x1 PUSH1 0x1 PUSH1 0xA0 SHL SUB PUSH32 0x0 AND SWAP2 PUSH4 0x70A08231 SWAP2 PUSH1 0x24 DUP1 DUP3 ADD SWAP3 PUSH1 0x20 SWAP3 SWAP1 SWAP2 SWAP1 DUP3 SWAP1 SUB ADD DUP2 DUP7 DUP1 EXTCODESIZE ISZERO DUP1 ISZERO PUSH2 0x174D JUMPI PUSH1 0x0 DUP1 REVERT JUMPDEST POP GAS STATICCALL ISZERO DUP1 ISZERO PUSH2 0x1761 JUMPI RETURNDATASIZE PUSH1 0x0 DUP1 RETURNDATACOPY RETURNDATASIZE PUSH1 0x0 REVERT JUMPDEST POP POP POP POP PUSH1 0x40 MLOAD RETURNDATASIZE PUSH1 0x20 DUP2 LT ISZERO PUSH2 0x1777 JUMPI PUSH1 0x0 DUP1 REVERT JUMPDEST POP MLOAD SWAP2 SWAP3 SWAP1 POP JUMP JUMPDEST DUP1 MLOAD PUSH1 0x0 SWAP1 DUP3 SWAP1 PUSH2 0x1794 JUMPI POP PUSH1 0x0 SWAP1 POP PUSH2 0x5A8 JUMP JUMPDEST POP POP PUSH1 0x20 ADD MLOAD SWAP1 JUMP JUMPDEST PUSH1 0x7 SLOAD PUSH1 0x1 PUSH1 0x1 PUSH1 0xA0 SHL SUB AND CALLER EQ PUSH2 0x17B4 JUMPI PUSH1 0x0 DUP1 REVERT JUMPDEST PUSH1 0x1 PUSH1 0x1 PUSH1 0xA0 SHL SUB DUP5 AND PUSH1 0x0 SWAP1 DUP2 MSTORE PUSH1 0x18 PUSH1 0x20 MSTORE PUSH1 0x40 SWAP1 KECCAK256 SLOAD PUSH2 0x17D8 DUP5 DUP5 DUP5 PUSH2 0x18EE JUMP JUMPDEST PUSH2 0x17E0 PUSH2 0x1947 JUMP JUMPDEST PUSH2 0x17E8 PUSH2 0x1A7A JUMP JUMPDEST PUSH1 0x15 SLOAD PUSH1 0x0 SWAP2 DUP3 MSTORE PUSH1 0x1B PUSH1 0x20 MSTORE PUSH1 0x40 SWAP1 SWAP2 KECCAK256 SSTORE POP POP POP POP JUMP JUMPDEST PUSH1 0x1 PUSH1 0x1 PUSH1 0xA0 SHL SUB AND PUSH1 0x0 SWAP1 DUP2 MSTORE PUSH1 0x18 PUSH1 0x20 MSTORE PUSH1 0x40 SWAP1 KECCAK256 SLOAD SWAP1 JUMP JUMPDEST PUSH1 0x7 SLOAD PUSH1 0x1 PUSH1 0x1 PUSH1 0xA0 SHL SUB AND CALLER EQ PUSH2 0x1833 JUMPI PUSH1 0x0 DUP1 REVERT JUMPDEST PUSH1 0x0 PUSH2 0x183D PUSH2 0x18DF JUMP JUMPDEST PUSH1 0x7 SLOAD PUSH1 0x40 DUP1 MLOAD PUSH4 0x70A08231 PUSH1 0xE0 SHL DUP2 MSTORE ADDRESS PUSH1 0x4 DUP3 ADD MSTORE SWAP1 MLOAD SWAP3 SWAP4 POP PUSH1 0x1 PUSH1 0x1 PUSH1 0xA0 SHL SUB DUP1 DUP6 AND SWAP4 PUSH4 0xA9059CBB SWAP4 SWAP1 SWAP2 AND SWAP2 DUP5 SWAP2 PUSH4 0x70A08231 SWAP2 PUSH1 0x24 DUP1 DUP3 ADD SWAP3 PUSH1 0x20 SWAP3 SWAP1 SWAP2 SWAP1 DUP3 SWAP1 SUB ADD DUP2 DUP7 DUP1 EXTCODESIZE ISZERO DUP1 ISZERO PUSH2 0xA49 JUMPI PUSH1 0x0 DUP1 REVERT JUMPDEST PUSH32 0x0 DUP2 JUMP JUMPDEST PUSH32 0x0 DUP2 JUMP JUMPDEST PUSH1 0x2 SLOAD PUSH1 0x1 PUSH1 0x1 PUSH1 0xA0 SHL SUB AND SWAP1 JUMP JUMPDEST PUSH1 0x7 SLOAD PUSH1 0x1 PUSH1 0x1 PUSH1 0xA0 SHL SUB AND CALLER EQ PUSH2 0x1905 JUMPI PUSH1 0x0 DUP1 REVERT JUMPDEST PUSH1 0x16 DUP1 SLOAD PUSH2 0xFFFF NOT AND PUSH2 0xFFFF SWAP5 DUP6 AND OR PUSH4 0xFFFF0000 NOT AND PUSH3 0x10000 SWAP4 DUP6 AND SWAP4 SWAP1 SWAP4 MUL SWAP3 SWAP1 SWAP3 OR PUSH6 0xFFFF00000000 NOT AND PUSH5 0x100000000 SWAP2 SWAP1 SWAP4 AND MUL SWAP2 SWAP1 SWAP2 OR SWAP1 SSTORE JUMP JUMPDEST PUSH1 0x7 SLOAD PUSH1 0x1 PUSH1 0x1 PUSH1 0xA0 SHL SUB AND CALLER EQ PUSH2 0x195E JUMPI PUSH1 0x0 DUP1 REVERT JUMPDEST PUSH1 0x16 SLOAD PUSH2 0xFFFF DUP1 DUP3 AND PUSH3 0x10000 DUP4 DIV DUP3 AND ADD PUSH5 0x100000000 SWAP1 SWAP3 DIV DUP2 AND SWAP2 SWAP1 SWAP2 ADD AND PUSH2 0x19BB JUMPI PUSH1 0x40 MLOAD PUSH3 0x461BCD PUSH1 0xE5 SHL DUP2 MSTORE PUSH1 0x4 ADD DUP1 DUP1 PUSH1 0x20 ADD DUP3 DUP2 SUB DUP3 MSTORE PUSH1 0x2E DUP2 MSTORE PUSH1 0x20 ADD DUP1 PUSH2 0x2560 PUSH1 0x2E SWAP2 CODECOPY PUSH1 0x40 ADD SWAP2 POP POP PUSH1 0x40 MLOAD DUP1 SWAP2 SUB SWAP1 REVERT JUMPDEST PUSH1 0x14 DUP1 SLOAD PUSH2 0xFFFF PUSH1 0xA0 SHL NOT AND SWAP1 SSTORE PUSH2 0x1A60 PUSH1 0xD PUSH1 0x0 JUMPDEST ADD DUP1 SLOAD PUSH1 0x40 DUP1 MLOAD PUSH1 0x20 PUSH1 0x2 PUSH1 0x1 DUP6 AND ISZERO PUSH2 0x100 MUL PUSH1 0x0 NOT ADD SWAP1 SWAP5 AND SWAP4 SWAP1 SWAP4 DIV PUSH1 0x1F DUP2 ADD DUP5 SWAP1 DIV DUP5 MUL DUP3 ADD DUP5 ADD SWAP1 SWAP3 MSTORE DUP2 DUP2 MSTORE SWAP3 SWAP2 DUP4 ADD DUP3 DUP3 DUP1 ISZERO PUSH2 0x1A56 JUMPI DUP1 PUSH1 0x1F LT PUSH2 0x1A2B JUMPI PUSH2 0x100 DUP1 DUP4 SLOAD DIV MUL DUP4 MSTORE SWAP2 PUSH1 0x20 ADD SWAP2 PUSH2 0x1A56 JUMP JUMPDEST DUP3 ADD SWAP2 SWAP1 PUSH1 0x0 MSTORE PUSH1 0x20 PUSH1 0x0 KECCAK256 SWAP1 JUMPDEST DUP2 SLOAD DUP2 MSTORE SWAP1 PUSH1 0x1 ADD SWAP1 PUSH1 0x20 ADD DUP1 DUP4 GT PUSH2 0x1A39 JUMPI DUP3 SWAP1 SUB PUSH1 0x1F AND DUP3 ADD SWAP2 JUMPDEST POP POP POP POP POP PUSH2 0x1D45 JUMP JUMPDEST POP PUSH2 0x1A6D PUSH1 0xD PUSH1 0x1 PUSH2 0x19D1 JUMP JUMPDEST POP PUSH2 0xB36 PUSH1 0xD PUSH1 0x2 PUSH2 0x19D1 JUMP JUMPDEST PUSH1 0x0 JUMPDEST PUSH1 0x3 DUP2 PUSH2 0xFFFF AND LT ISZERO PUSH2 0xB36 JUMPI PUSH1 0x10 DUP2 PUSH2 0xFFFF AND PUSH1 0x3 DUP2 LT PUSH2 0x1A9B JUMPI INVALID JUMPDEST ADD SLOAD PUSH2 0x1AD2 JUMPI PUSH1 0x16 DUP1 SLOAD PUSH1 0x1 PUSH2 0xFFFF PUSH9 0x10000000000000000 DUP1 DUP5 DIV DUP3 AND SWAP3 SWAP1 SWAP3 ADD AND MUL PUSH10 0xFFFF0000000000000000 NOT SWAP1 SWAP2 AND OR SWAP1 SSTORE JUMPDEST PUSH1 0x1 ADD PUSH2 0x1A7D JUMP JUMPDEST PUSH1 0xA SLOAD PUSH1 0x40 DUP1 MLOAD PUSH4 0x95EA7B3 PUSH1 0xE0 SHL DUP2 MSTORE PUSH1 0x1 PUSH1 0x1 PUSH1 0xA0 SHL SUB SWAP3 DUP4 AND PUSH1 0x4 DUP3 ADD MSTORE PUSH10 0xD3C21BCECCEDA1000000 PUSH1 0x24 DUP3 ADD MSTORE SWAP1 MLOAD PUSH32 0x0 SWAP1 SWAP3 AND SWAP2 PUSH4 0x95EA7B3 SWAP2 PUSH1 0x44 DUP1 DUP3 ADD SWAP3 PUSH1 0x20 SWAP3 SWAP1 SWAP2 SWAP1 DUP3 SWAP1 SUB ADD DUP2 PUSH1 0x0 DUP8 DUP1 EXTCODESIZE ISZERO DUP1 ISZERO PUSH2 0x1B5A JUMPI PUSH1 0x0 DUP1 REVERT JUMPDEST POP GAS CALL ISZERO DUP1 ISZERO PUSH2 0x1B6E JUMPI RETURNDATASIZE PUSH1 0x0 DUP1 RETURNDATACOPY RETURNDATASIZE PUSH1 0x0 REVERT JUMPDEST POP POP POP POP PUSH1 0x40 MLOAD RETURNDATASIZE PUSH1 0x20 DUP2 LT ISZERO PUSH2 0x1B84 JUMPI PUSH1 0x0 DUP1 REVERT JUMPDEST POP POP PUSH1 0x40 DUP1 MLOAD PUSH4 0x95EA7B3 PUSH1 0xE0 SHL DUP2 MSTORE ADDRESS PUSH1 0x4 DUP3 ADD MSTORE PUSH10 0xD3C21BCECCEDA1000000 PUSH1 0x24 DUP3 ADD MSTORE SWAP1 MLOAD PUSH1 0x1 PUSH1 0x1 PUSH1 0xA0 SHL SUB PUSH32 0x0 AND SWAP2 PUSH4 0x95EA7B3 SWAP2 PUSH1 0x44 DUP1 DUP4 ADD SWAP3 PUSH1 0x20 SWAP3 SWAP2 SWAP1 DUP3 SWAP1 SUB ADD DUP2 PUSH1 0x0 DUP8 DUP1 EXTCODESIZE ISZERO DUP1 ISZERO PUSH2 0x1BFE JUMPI PUSH1 0x0 DUP1 REVERT JUMPDEST POP GAS CALL ISZERO DUP1 ISZERO PUSH2 0x1C12 JUMPI RETURNDATASIZE PUSH1 0x0 DUP1 RETURNDATACOPY RETURNDATASIZE PUSH1 0x0 REVERT JUMPDEST POP POP POP POP PUSH1 0x40 MLOAD RETURNDATASIZE PUSH1 0x20 DUP2 LT ISZERO PUSH2 0x1C28 JUMPI PUSH1 0x0 DUP1 REVERT JUMPDEST POP POP PUSH1 0x13 SLOAD PUSH1 0x8 SLOAD PUSH1 0x40 DUP1 MLOAD PUSH4 0x70A08231 PUSH1 0xE0 SHL DUP2 MSTORE ADDRESS PUSH1 0x4 DUP3 ADD MSTORE SWAP1 MLOAD PUSH1 0x1 PUSH1 0x1 PUSH1 0xA0 SHL SUB SWAP4 DUP5 AND SWAP4 PUSH4 0xE8EDA9DF SWAP4 DUP2 AND SWAP3 PUSH32 0x0 SWAP1 SWAP2 AND SWAP2 PUSH4 0x70A08231 SWAP2 PUSH1 0x24 DUP1 DUP3 ADD SWAP3 PUSH1 0x20 SWAP3 SWAP1 SWAP2 SWAP1 DUP3 SWAP1 SUB ADD DUP2 DUP7 DUP1 EXTCODESIZE ISZERO DUP1 ISZERO PUSH2 0x1CA6 JUMPI PUSH1 0x0 DUP1 REVERT JUMPDEST POP GAS STATICCALL ISZERO DUP1 ISZERO PUSH2 0x1CBA JUMPI RETURNDATASIZE PUSH1 0x0 DUP1 RETURNDATACOPY RETURNDATASIZE PUSH1 0x0 REVERT JUMPDEST POP POP POP POP PUSH1 0x40 MLOAD RETURNDATASIZE PUSH1 0x20 DUP2 LT ISZERO PUSH2 0x1CD0 JUMPI PUSH1 0x0 DUP1 REVERT JUMPDEST POP MLOAD PUSH1 0x40 DUP1 MLOAD PUSH1 0x1 PUSH1 0x1 PUSH1 0xE0 SHL SUB NOT PUSH1 0xE0 DUP7 SWAP1 SHL AND DUP2 MSTORE PUSH1 0x1 PUSH1 0x1 PUSH1 0xA0 SHL SUB SWAP1 SWAP4 AND PUSH1 0x4 DUP5 ADD MSTORE PUSH1 0x24 DUP4 ADD SWAP2 SWAP1 SWAP2 MSTORE ADDRESS PUSH1 0x44 DUP4 ADD MSTORE PUSH1 0x0 PUSH1 0x64 DUP4 ADD DUP2 SWAP1 MSTORE SWAP1 MLOAD PUSH1 0x84 DUP1 DUP5 ADD SWAP4 DUP3 SWAP1 SUB ADD DUP2 DUP4 DUP8 DUP1 EXTCODESIZE ISZERO DUP1 ISZERO PUSH2 0x1D2B JUMPI PUSH1 0x0 DUP1 REVERT JUMPDEST POP GAS CALL ISZERO DUP1 ISZERO PUSH2 0x1D3F JUMPI RETURNDATASIZE PUSH1 0x0 DUP1 RETURNDATACOPY RETURNDATASIZE PUSH1 0x0 REVERT JUMPDEST POP POP POP POP JUMP JUMPDEST PUSH1 0x0 PUSH2 0x1D4F PUSH2 0x24C5 JUMP JUMPDEST PUSH2 0x1D81 PUSH32 0x0 ADDRESS PUSH4 0x21ABC2AF PUSH1 0xE1 SHL PUSH2 0x1E52 JUMP JUMPDEST PUSH1 0x40 DUP1 MLOAD DUP1 DUP3 ADD SWAP1 SWAP2 MSTORE PUSH1 0x3 DUP2 MSTORE PUSH3 0x19D95D PUSH1 0xEA SHL PUSH1 0x20 DUP3 ADD MSTORE SWAP1 SWAP2 POP PUSH2 0x1DAA SWAP1 DUP3 SWAP1 DUP6 PUSH2 0x1E77 JUMP JUMPDEST PUSH2 0x1E00 PUSH1 0x40 MLOAD DUP1 PUSH1 0x40 ADD PUSH1 0x40 MSTORE DUP1 PUSH1 0x4 DUP2 MSTORE PUSH1 0x20 ADD PUSH4 0xE0C2E8D PUSH1 0xE3 SHL DUP2 MSTORE POP PUSH1 0x40 MLOAD DUP1 PUSH1 0x40 ADD PUSH1 0x40 MSTORE DUP1 PUSH1 0xD DUP2 MSTORE PUSH1 0x20 ADD PUSH13 0x3230BA30971817373AB6B132B9 PUSH1 0x99 SHL DUP2 MSTORE POP DUP4 PUSH2 0x1E77 SWAP1 SWAP3 SWAP2 SWAP1 PUSH4 0xFFFFFFFF AND JUMP JUMPDEST PUSH2 0x1E4B PUSH32 0x0 DUP3 PUSH32 0x0 PUSH2 0x1E95 JUMP JUMPDEST SWAP4 SWAP3 POP POP POP JUMP JUMPDEST PUSH2 0x1E5A PUSH2 0x24C5 JUMP JUMPDEST PUSH2 0x1E62 PUSH2 0x24C5 JUMP JUMPDEST PUSH2 0x1E6E DUP2 DUP7 DUP7 DUP7 PUSH2 0x2063 JUMP JUMPDEST SWAP6 SWAP5 POP POP POP POP POP JUMP JUMPDEST PUSH1 0x80 DUP4 ADD MLOAD PUSH2 0x1E86 SWAP1 DUP4 PUSH2 0x20A0 JUMP JUMPDEST PUSH1 0x80 DUP4 ADD MLOAD PUSH2 0x1642 SWAP1 DUP3 PUSH2 0x20A0 JUMP JUMPDEST PUSH1 0x4 SLOAD PUSH1 0x40 DUP1 MLOAD ADDRESS PUSH1 0x60 SWAP1 DUP2 SHL PUSH1 0x20 DUP1 DUP5 ADD SWAP2 SWAP1 SWAP2 MSTORE PUSH1 0x34 DUP1 DUP5 ADD DUP7 SWAP1 MSTORE DUP5 MLOAD DUP1 DUP6 SUB SWAP1 SWAP2 ADD DUP2 MSTORE PUSH1 0x54 SWAP1 SWAP4 ADD DUP5 MSTORE DUP3 MLOAD SWAP3 DUP2 ADD SWAP3 SWAP1 SWAP3 KECCAK256 SWAP1 DUP7 ADD SWAP4 SWAP1 SWAP4 MSTORE PUSH1 0x0 DUP4 DUP2 MSTORE PUSH1 0x5 SWAP1 SWAP2 MSTORE DUP2 DUP2 KECCAK256 DUP1 SLOAD PUSH1 0x1 PUSH1 0x1 PUSH1 0xA0 SHL SUB NOT AND PUSH1 0x1 PUSH1 0x1 PUSH1 0xA0 SHL SUB DUP9 AND OR SWAP1 SSTORE SWAP1 MLOAD DUP3 SWAP2 PUSH32 0xB5E6E01E79F91267DC17B4E6314D5D4D03593D2CEEE0FBB452B750BD70EA5AF9 SWAP2 LOG2 PUSH1 0x2 SLOAD PUSH1 0x1 PUSH1 0x1 PUSH1 0xA0 SHL SUB AND PUSH4 0x4000AEA0 DUP6 DUP5 PUSH2 0x1F3D DUP8 PUSH2 0x20B7 JUMP JUMPDEST PUSH1 0x40 MLOAD DUP5 PUSH4 0xFFFFFFFF AND PUSH1 0xE0 SHL DUP2 MSTORE PUSH1 0x4 ADD DUP1 DUP5 PUSH1 0x1 PUSH1 0x1 PUSH1 0xA0 SHL SUB AND DUP2 MSTORE PUSH1 0x20 ADD DUP4 DUP2 MSTORE PUSH1 0x20 ADD DUP1 PUSH1 0x20 ADD DUP3 DUP2 SUB DUP3 MSTORE DUP4 DUP2 DUP2 MLOAD DUP2 MSTORE PUSH1 0x20 ADD SWAP2 POP DUP1 MLOAD SWAP1 PUSH1 0x20 ADD SWAP1 DUP1 DUP4 DUP4 PUSH1 0x0 JUMPDEST DUP4 DUP2 LT ISZERO PUSH2 0x1F9E JUMPI DUP2 DUP2 ADD MLOAD DUP4 DUP3 ADD MSTORE PUSH1 0x20 ADD PUSH2 0x1F86 JUMP JUMPDEST POP POP POP POP SWAP1 POP SWAP1 DUP2 ADD SWAP1 PUSH1 0x1F AND DUP1 ISZERO PUSH2 0x1FCB JUMPI DUP1 DUP3 SUB DUP1 MLOAD PUSH1 0x1 DUP4 PUSH1 0x20 SUB PUSH2 0x100 EXP SUB NOT AND DUP2 MSTORE PUSH1 0x20 ADD SWAP2 POP JUMPDEST POP SWAP5 POP POP POP POP POP PUSH1 0x20 PUSH1 0x40 MLOAD DUP1 DUP4 SUB DUP2 PUSH1 0x0 DUP8 DUP1 EXTCODESIZE ISZERO DUP1 ISZERO PUSH2 0x1FEC JUMPI PUSH1 0x0 DUP1 REVERT JUMPDEST POP GAS CALL ISZERO DUP1 ISZERO PUSH2 0x2000 JUMPI RETURNDATASIZE PUSH1 0x0 DUP1 RETURNDATACOPY RETURNDATASIZE PUSH1 0x0 REVERT JUMPDEST POP POP POP POP PUSH1 0x40 MLOAD RETURNDATASIZE PUSH1 0x20 DUP2 LT ISZERO PUSH2 0x2016 JUMPI PUSH1 0x0 DUP1 REVERT JUMPDEST POP MLOAD PUSH2 0x2053 JUMPI PUSH1 0x40 MLOAD PUSH3 0x461BCD PUSH1 0xE5 SHL DUP2 MSTORE PUSH1 0x4 ADD DUP1 DUP1 PUSH1 0x20 ADD DUP3 DUP2 SUB DUP3 MSTORE PUSH1 0x23 DUP2 MSTORE PUSH1 0x20 ADD DUP1 PUSH2 0x2515 PUSH1 0x23 SWAP2 CODECOPY PUSH1 0x40 ADD SWAP2 POP POP PUSH1 0x40 MLOAD DUP1 SWAP2 SUB SWAP1 REVERT JUMPDEST PUSH1 0x4 DUP1 SLOAD PUSH1 0x1 ADD SWAP1 SSTORE SWAP4 SWAP3 POP POP POP JUMP JUMPDEST PUSH2 0x206B PUSH2 0x24C5 JUMP JUMPDEST PUSH2 0x207B DUP6 PUSH1 0x80 ADD MLOAD PUSH2 0x100 PUSH2 0x21DB JUMP JUMPDEST POP POP SWAP2 DUP4 MSTORE PUSH1 0x1 PUSH1 0x1 PUSH1 0xA0 SHL SUB AND PUSH1 0x20 DUP4 ADD MSTORE PUSH1 0x1 PUSH1 0x1 PUSH1 0xE0 SHL SUB NOT AND PUSH1 0x40 DUP3 ADD MSTORE SWAP1 JUMP JUMPDEST PUSH2 0x20AD DUP3 PUSH1 0x3 DUP4 MLOAD PUSH2 0x221B JUMP JUMPDEST PUSH2 0x1642 DUP3 DUP3 PUSH2 0x22EF JUMP JUMPDEST PUSH1 0x60 PUSH4 0x40429946 PUSH1 0xE0 SHL PUSH1 0x0 DUP1 DUP5 PUSH1 0x0 ADD MLOAD DUP6 PUSH1 0x20 ADD MLOAD DUP7 PUSH1 0x40 ADD MLOAD DUP8 PUSH1 0x60 ADD MLOAD PUSH1 0x1 DUP10 PUSH1 0x80 ADD MLOAD PUSH1 0x0 ADD MLOAD PUSH1 0x40 MLOAD PUSH1 0x24 ADD DUP1 DUP10 PUSH1 0x1 PUSH1 0x1 PUSH1 0xA0 SHL SUB AND DUP2 MSTORE PUSH1 0x20 ADD DUP9 DUP2 MSTORE PUSH1 0x20 ADD DUP8 DUP2 MSTORE PUSH1 0x20 ADD DUP7 PUSH1 0x1 PUSH1 0x1 PUSH1 0xA0 SHL SUB AND DUP2 MSTORE PUSH1 0x20 ADD DUP6 PUSH1 0x1 PUSH1 0x1 PUSH1 0xE0 SHL SUB NOT AND DUP2 MSTORE PUSH1 0x20 ADD DUP5 DUP2 MSTORE PUSH1 0x20 ADD DUP4 DUP2 MSTORE PUSH1 0x20 ADD DUP1 PUSH1 0x20 ADD DUP3 DUP2 SUB DUP3 MSTORE DUP4 DUP2 DUP2 MLOAD DUP2 MSTORE PUSH1 0x20 ADD SWAP2 POP DUP1 MLOAD SWAP1 PUSH1 0x20 ADD SWAP1 DUP1 DUP4 DUP4 PUSH1 0x0 JUMPDEST DUP4 DUP2 LT ISZERO PUSH2 0x2169 JUMPI DUP2 DUP2 ADD MLOAD DUP4 DUP3 ADD MSTORE PUSH1 0x20 ADD PUSH2 0x2151 JUMP JUMPDEST POP POP POP POP SWAP1 POP SWAP1 DUP2 ADD SWAP1 PUSH1 0x1F AND DUP1 ISZERO PUSH2 0x2196 JUMPI DUP1 DUP3 SUB DUP1 MLOAD PUSH1 0x1 DUP4 PUSH1 0x20 SUB PUSH2 0x100 EXP SUB NOT AND DUP2 MSTORE PUSH1 0x20 ADD SWAP2 POP JUMPDEST POP PUSH1 0x40 DUP1 MLOAD PUSH1 0x1F NOT DUP2 DUP5 SUB ADD DUP2 MSTORE SWAP2 SWAP1 MSTORE PUSH1 0x20 DUP2 ADD DUP1 MLOAD PUSH1 0x1 PUSH1 0x1 PUSH1 0xE0 SHL SUB AND PUSH1 0x1 PUSH1 0x1 PUSH1 0xE0 SHL SUB NOT SWAP1 SWAP14 AND SWAP13 SWAP1 SWAP13 OR SWAP1 SWAP12 MSTORE POP SWAP9 SWAP10 POP POP POP POP POP POP POP POP POP POP SWAP2 SWAP1 POP JUMP JUMPDEST PUSH2 0x21E3 PUSH2 0x24FA JUMP JUMPDEST PUSH1 0x20 DUP3 MOD ISZERO PUSH2 0x21F8 JUMPI PUSH1 0x20 DUP3 MOD PUSH1 0x20 SUB DUP3 ADD SWAP2 POP JUMPDEST POP PUSH1 0x20 DUP1 DUP4 ADD DUP3 SWAP1 MSTORE PUSH1 0x40 DUP1 MLOAD DUP1 DUP6 MSTORE PUSH1 0x0 DUP2 MSTORE DUP4 ADD SWAP1 SWAP2 ADD SWAP1 MSTORE DUP2 JUMPDEST SWAP3 SWAP2 POP POP JUMP JUMPDEST PUSH1 0x17 DUP2 GT PUSH2 0x223C JUMPI PUSH2 0x2236 DUP4 PUSH1 0xE0 PUSH1 0x5 DUP6 SWAP1 SHL AND DUP4 OR PUSH2 0x2309 JUMP JUMPDEST POP PUSH2 0x1642 JUMP JUMPDEST PUSH1 0xFF DUP2 GT PUSH2 0x2266 JUMPI PUSH2 0x2259 DUP4 PUSH1 0x18 PUSH2 0x1FE0 PUSH1 0x5 DUP7 SWAP1 SHL AND OR PUSH2 0x2309 JUMP JUMPDEST POP PUSH2 0x2236 DUP4 DUP3 PUSH1 0x1 PUSH2 0x2321 JUMP JUMPDEST PUSH2 0xFFFF DUP2 GT PUSH2 0x2291 JUMPI PUSH2 0x2284 DUP4 PUSH1 0x19 PUSH2 0x1FE0 PUSH1 0x5 DUP7 SWAP1 SHL AND OR PUSH2 0x2309 JUMP JUMPDEST POP PUSH2 0x2236 DUP4 DUP3 PUSH1 0x2 PUSH2 0x2321 JUMP JUMPDEST PUSH4 0xFFFFFFFF DUP2 GT PUSH2 0x22BE JUMPI PUSH2 0x22B1 DUP4 PUSH1 0x1A PUSH2 0x1FE0 PUSH1 0x5 DUP7 SWAP1 SHL AND OR PUSH2 0x2309 JUMP JUMPDEST POP PUSH2 0x2236 DUP4 DUP3 PUSH1 0x4 PUSH2 0x2321 JUMP JUMPDEST PUSH8 0xFFFFFFFFFFFFFFFF DUP2 GT PUSH2 0x1642 JUMPI PUSH2 0x22E2 DUP4 PUSH1 0x1B PUSH2 0x1FE0 PUSH1 0x5 DUP7 SWAP1 SHL AND OR PUSH2 0x2309 JUMP JUMPDEST POP PUSH2 0x1D3F DUP4 DUP3 PUSH1 0x8 PUSH2 0x2321 JUMP JUMPDEST PUSH2 0x22F7 PUSH2 0x24FA JUMP JUMPDEST PUSH2 0x1E4B DUP4 DUP5 PUSH1 0x0 ADD MLOAD MLOAD DUP5 DUP6 MLOAD PUSH2 0x2342 JUMP JUMPDEST PUSH2 0x2311 PUSH2 0x24FA JUMP JUMPDEST PUSH2 0x1E4B DUP4 DUP5 PUSH1 0x0 ADD MLOAD MLOAD DUP5 PUSH2 0x23EE JUMP JUMPDEST PUSH2 0x2329 PUSH2 0x24FA JUMP JUMPDEST PUSH2 0x233A DUP5 DUP6 PUSH1 0x0 ADD MLOAD MLOAD DUP6 DUP6 PUSH2 0x2439 JUMP JUMPDEST SWAP5 SWAP4 POP POP POP POP JUMP JUMPDEST PUSH2 0x234A PUSH2 0x24FA JUMP JUMPDEST DUP3 MLOAD DUP3 GT ISZERO PUSH2 0x2358 JUMPI PUSH1 0x0 DUP1 REVERT JUMPDEST DUP5 PUSH1 0x20 ADD MLOAD DUP3 DUP6 ADD GT ISZERO PUSH2 0x2382 JUMPI PUSH2 0x2382 DUP6 PUSH2 0x237A DUP8 PUSH1 0x20 ADD MLOAD DUP8 DUP7 ADD PUSH2 0x2497 JUMP JUMPDEST PUSH1 0x2 MUL PUSH2 0x24AE JUMP JUMPDEST PUSH1 0x0 DUP1 DUP7 MLOAD DUP1 MLOAD DUP8 PUSH1 0x20 DUP4 ADD ADD SWAP4 POP DUP1 DUP9 DUP8 ADD GT ISZERO PUSH2 0x23A1 JUMPI DUP8 DUP7 ADD DUP3 MSTORE JUMPDEST POP POP POP PUSH1 0x20 DUP5 ADD JUMPDEST PUSH1 0x20 DUP5 LT PUSH2 0x23C8 JUMPI DUP1 MLOAD DUP3 MSTORE PUSH1 0x1F NOT SWAP1 SWAP4 ADD SWAP3 PUSH1 0x20 SWAP2 DUP3 ADD SWAP2 ADD PUSH2 0x23A9 JUMP JUMPDEST MLOAD DUP2 MLOAD PUSH1 0x0 NOT PUSH1 0x20 DUP7 SWAP1 SUB PUSH2 0x100 EXP ADD SWAP1 DUP2 AND SWAP1 NOT SWAP2 SWAP1 SWAP2 AND OR SWAP1 MSTORE POP DUP4 SWAP5 SWAP4 POP POP POP POP JUMP JUMPDEST PUSH2 0x23F6 PUSH2 0x24FA JUMP JUMPDEST DUP4 PUSH1 0x20 ADD MLOAD DUP4 LT PUSH2 0x2412 JUMPI PUSH2 0x2412 DUP5 DUP6 PUSH1 0x20 ADD MLOAD PUSH1 0x2 MUL PUSH2 0x24AE JUMP JUMPDEST DUP4 MLOAD DUP1 MLOAD PUSH1 0x20 DUP6 DUP4 ADD ADD DUP5 DUP2 MSTORE8 POP DUP1 DUP6 EQ ISZERO PUSH2 0x242F JUMPI PUSH1 0x1 DUP2 ADD DUP3 MSTORE JUMPDEST POP SWAP4 SWAP5 SWAP4 POP POP POP POP JUMP JUMPDEST PUSH2 0x2441 PUSH2 0x24FA JUMP JUMPDEST DUP5 PUSH1 0x20 ADD MLOAD DUP5 DUP4 ADD GT ISZERO PUSH2 0x245E JUMPI PUSH2 0x245E DUP6 DUP6 DUP5 ADD PUSH1 0x2 MUL PUSH2 0x24AE JUMP JUMPDEST PUSH1 0x0 PUSH1 0x1 DUP4 PUSH2 0x100 EXP SUB SWAP1 POP DUP6 MLOAD DUP4 DUP7 DUP3 ADD ADD DUP6 DUP4 NOT DUP3 MLOAD AND OR DUP2 MSTORE POP DUP1 MLOAD DUP5 DUP8 ADD GT ISZERO PUSH2 0x248C JUMPI DUP4 DUP7 ADD DUP2 MSTORE JUMPDEST POP SWAP5 SWAP6 SWAP5 POP POP POP POP POP JUMP JUMPDEST PUSH1 0x0 DUP2 DUP4 GT ISZERO PUSH2 0x24A8 JUMPI POP DUP2 PUSH2 0x2215 JUMP JUMPDEST POP SWAP2 SWAP1 POP JUMP JUMPDEST DUP2 MLOAD PUSH2 0x24BA DUP4 DUP4 PUSH2 0x21DB JUMP JUMPDEST POP PUSH2 0x1D3F DUP4 DUP3 PUSH2 0x22EF JUMP JUMPDEST PUSH1 0x40 DUP1 MLOAD PUSH1 0xA0 DUP2 ADD DUP3 MSTORE PUSH1 0x0 DUP1 DUP3 MSTORE PUSH1 0x20 DUP3 ADD DUP2 SWAP1 MSTORE SWAP2 DUP2 ADD DUP3 SWAP1 MSTORE PUSH1 0x60 DUP2 ADD SWAP2 SWAP1 SWAP2 MSTORE PUSH1 0x80 DUP2 ADD PUSH2 0x24F5 PUSH2 0x24FA JUMP JUMPDEST SWAP1 MSTORE SWAP1 JUMP JUMPDEST PUSH1 0x40 MLOAD DUP1 PUSH1 0x40 ADD PUSH1 0x40 MSTORE DUP1 PUSH1 0x60 DUP2 MSTORE PUSH1 0x20 ADD PUSH1 0x0 DUP2 MSTORE POP SWAP1 JUMP INVALID PUSH22 0x6E61626C6520746F207472616E73666572416E644361 PUSH13 0x6C20746F206F7261636C65536F PUSH22 0x726365206D75737420626520746865206F7261636C65 KECCAK256 PUSH16 0x66207468652072657175657374706C65 PUSH2 0x7365 KECCAK256 PUSH20 0x6574207765696768747320666F72206167677265 PUSH8 0x6174696E67206F72 PUSH2 0x636C PUSH6 0x2064617461A2 PUSH5 0x6970667358 0x22 SLT KECCAK256 SGT MSTORE CHAINID 0xFB CALLCODE BALANCE 0x49 JUMPI PUSH24 0x99F2FB57A179152C86940B8EA2B1F5394B92B671B162AF64 PUSH20 0x6F6C634300060C00330000000000000000000000 ","sha1":"5da2790cfde0f10c6303efd1bfff1f8f690b1f06","source":"// SPDX-License-Identifier: MIT\n// this contract is deployed on Kovan at 0xa442852B9B9A92B277E6aF0FDcAe986EAa1986B3\n\npragma solidity ^0.6.6;\n\nimport \"@chainlink/contracts/src/v0.6/ChainlinkClient.sol\";\nimport \"@openzeppelin/contracts/token/ERC20/IERC20.sol\";\nimport \"/home/joe/Code/BrightLink/interfaces/ILendingPoolAddressesProviderV2.sol\";\nimport \"/home/joe/Code/BrightLink/interfaces/ILendingPoolV2.sol\";\n\ncontract BrightLink is ChainlinkClient {\n\n\n    uint16 private constant referral = 0;\n    address private immutable oracle; \n    bytes32 private immutable jobID;\n    uint256 private immutable fee;\n    IERC20 public immutable dai;\n    IERC20 public immutable adai;\n    uint256 public depositedFunds;\n    address private owner;\n    address public dai_address;\n    address public adai_address;\n    address public poolAddress;\n    address public poolAddressProvider;\n    uint256 public value;\n    string[3] public APIaddresses; \n    uint256[3] public oracleData;\n    ILendingPoolV2 public lendingPool;\n    ILendingPoolAddressesProviderV2 public provider;\n    uint16 index;\n    uint256 aggregateData;\n    uint16 w1;\n    uint16 w2;\n    uint16 w3;\n    uint16 minResponses = 2;\n    uint16 badOracles = 0;\n    int Id = 0;\n    mapping(address => int) private customerToAgreementID;\n    mapping(address => int) private donorToAgreementID;\n    mapping(int => address) private agreementIdToDonor;\n    mapping(int => uint256) private agreementIdToBaseline;\n    mapping(int => uint256) private agreementIdToValue;\n    mapping (int => uint256) public agreementIdToRetrievedData;\n\n    constructor(address _dai_address, address _adai_address, address _link, address _poolAddressProvider,\n    address _oracle, string memory _jobID, uint256 _fee) public{\n        \n        // var instantiations\n        owner = msg.sender;\n        depositedFunds = 0;\n        dai_address = _dai_address;\n        adai_address = _adai_address;\n        poolAddressProvider = _poolAddressProvider;\n        dai = IERC20(dai_address);\n        adai = IERC20(adai_address);\n        provider = ILendingPoolAddressesProviderV2(poolAddressProvider); \n        poolAddress = provider.getLendingPool();\n        lendingPool = ILendingPoolV2(poolAddress);\n        oracle = _oracle;\n        jobID = stringToBytes32(_jobID);\n        fee = _fee;\n        APIaddresses[0] = \"https://raw.githubusercontent.com/jmcook1186/jmcook1186.github.io/main/Data/BrightLinkData/SentinelData.json\";\n        APIaddresses[1] = \"https://raw.githubusercontent.com/jmcook1186/jmcook1186.github.io/main/Data/BrightLinkData/LandsatData.json\";\n        APIaddresses[2] = \"https://raw.githubusercontent.com/jmcook1186/jmcook1186.github.io/main/Data/BrightLinkData/ModisData.json\";\n        oracleData[0] = 0;\n        oracleData[1] = 0;\n        oracleData[2] = 0;\n\n        // set link token address depending on network\n        if (_link == address(0)) {\n            setPublicChainlinkToken();\n        } else {\n            setChainlinkToken(_link);\n        }\n\n    }\n\n    /**\n    @dev\n    Add new customer to contract. Adds customer to mappings, generates new \n    agreementId. Triggers deposit of funds to Aave pool to begin accruing yield. Adds value to\n    cumulative deposits.\n    \n    Requires remote sensing scripts to have been run to estabish baseline data at API endpoints\n    Requires donor to approve dai transfer before function is called:\n    dai.approve(contract,200e18,{'from':donor})\n    Approving _value only (rather than unlimited approval) protects against any re-entrancy attack.\n    \n    Removed onlyOwner modifier so anyone can add an agreement if paid for by a donor. Requires\n    donor to have approved a DAI transfer of value >= _value.\n\n     */\n    function addNewCustomer(address _customer, address _donor, uint256 _value) public {\n\n        // require that the customer does not have an existing agreement\n        require(customerToAgreementID[_customer] <= 0,\"customer already exists\");\n        // use require to ensure no agreement is estabished unless transaction succeeds\n        require(dai.transferFrom(_donor, address(this), _value));\n    \n        depositedFunds += _value;\n        customerToAgreementID[_customer] = Id;\n        donorToAgreementID[_donor] = Id;\n        agreementIdToValue[Id] = _value;\n        agreementIdToDonor[Id]  = _donor;\n        depositFundsToAave();\n        Id+=1; \n    }\n\n\n    /**\n    @dev\n    internal func called by addNewCustomer()\n    sends all dai in contract to Aave lending pool,\n    returning aDai\n     */\n    function depositFundsToAave() internal {\n\n        dai.approve(poolAddress,1000000e18);\n        dai.approve(address(this),1000000e18);\n        lendingPool.deposit(dai_address,\n        dai.balanceOf(address(this)), address(this), referral);\n        \n    }\n\n    /**\n    @dev\n    returns accumulated aDai to Aave pool, retrieving Dai at 1:1\n     */\n    function WithdrawFundsFromAave(uint _amount) public onlyOwner {\n    \t\n        adai.approve(poolAddress, _amount);\n        adai.approve(address(this), _amount);\n        lendingPool.withdraw(dai_address, _amount, address(this));\n\n    }\n\n    /**\n    @dev \n    internal, called by setBaseLine() and UpdateOracleData()\n    sets weighting for aggregating the oracle data\n    default is to trust all oracles equally (100,100,100)\n     */\n    function setWeights(uint16 _w1, uint16 _w2, uint16 _w3) internal onlyOwner{\n\n        w1 = _w1;\n        w2 = _w2;\n        w3 = _w3;\n\n    }\n\n    /**\n    @dev\n    assumes remote sensing scripts have been run setting baseline data at the API endpoints\n     */\n    function setBaseLine(address _customer, uint16 _w1, uint16 _w2, uint16 _w3) public onlyOwner {\n        \n        int id = customerToAgreementID[_customer];\n        setWeights(_w1, _w2, _w3);\n        requestDataFromAPI();\n        validateOracleData();\n        agreementIdToBaseline[id] = aggregateData;\n\n    }\n\n    /**\n    @dev\n    assumes remote sensing scripts have been run a second time, updating the API endpoints\n     */\n    function UpdateOracleData(address _customer, uint16 _w1, uint16 _w2, uint16 _w3) public onlyOwner {\n        \n        int id = customerToAgreementID[_customer];\n        setWeights(_w1, _w2, _w3);\n        requestDataFromAPI();\n        validateOracleData();\n        agreementIdToRetrievedData[id] = aggregateData;\n\n    }\n\n\n    /**\n    @dev\n    settles the agreement for a given customer by checking the\n    agreed value and paying it to the customer's wallet if the\n    updated values exceeds the baseline. Otherwise, return to donor.\n     */\n    function settleAgreement(address _customer) public onlyOwner {\n\n        // get ID from customer address\n        int agreementId = customerToAgreementID[_customer];\n\n        uint256 amount = agreementIdToValue[agreementId];\n        uint256 threshold = agreementIdToBaseline[agreementId];\n        address donor = agreementIdToDonor[agreementId];\n        uint256 retrieval = agreementIdToRetrievedData[agreementId];\n\n        WithdrawFundsFromAave(amount);\n\n        if (retrieval > threshold){\n            \n            require(dai.transfer(_customer, amount));\n        }\n\n        else{\n\n            require(dai.transfer(donor, amount));   \n        }         \n\n        // subtract expended amount from the running total of deposits\n        depositedFunds-= agreementIdToValue[agreementId];\n        \n        // set transaction value to 0 to prevent re-spending\n        agreementIdToValue[agreementId] = 0;\n\n\n    }\n\n    /**\n    @dev\n    withdraws enough dai from Aave pool to equal the total\n    accumulated profit and transfers it to the owners wallet\n    always persists enough adai in contract to payout all\n    active agreements\n     */\n    function takeProfits() public onlyOwner {\n\n        uint totalAmount = adai.balanceOf(address(this));\n        uint profit = totalAmount - depositedFunds;\n        \n        if (dai.balanceOf(address(this)) < profit){\n            WithdrawFundsFromAave(profit-dai.balanceOf(address(this)));\n        }\n        \n        require(dai.transfer(owner, profit));\n    \n    }\n\n    /**\n    @dev\n    release any spare LINK to the contract owner\n     */\n    function retrieveLINK() public onlyOwner{\n        \n        LinkTokenInterface link = LinkTokenInterface(chainlinkTokenAddress());\n        require(link.transfer(owner, link.balanceOf(address(this))), \"Unable to transfer\");\n    }\n\n\n    function escapeHatch() public onlyOwner{\n        // for testing purposes, if all gone wrong, retrieve funds\n        // to save having to get more from faucets\n\n        if (dai.balanceOf(address(this))>0){\n            require(dai.transfer(owner,dai.balanceOf(address(this))));\n        }\n    \n        if (adai.balanceOf(address(this))>0){\n        require(adai.transfer(owner,adai.balanceOf(address(this))));\n        }\n\n        LinkTokenInterface link = LinkTokenInterface(chainlinkTokenAddress());\n        if (link.balanceOf(address(this))>0){\n        require(link.transfer(msg.sender, link.balanceOf(address(this))), \"Unable to transfer\");\n        }\n\n    }\n\n\n\n    ////////////////////////////\n    // INTERNAL ORACLE REQUEST FUNCS\n\n        /**\n        @dev\n        outer function that calls the oracleRequest func once per oracle\n         */\n        function requestDataFromAPI() internal onlyOwner{\n\n        // require protects against aggregaData ==0 from forgetting to set weights\n        require(w1+w2+w3 != 0, \"please set weights for aggregating oracle data\");\n        \n        index = 0;\n        oracleRequest(APIaddresses[0]);\n        oracleRequest(APIaddresses[1]);\n        oracleRequest(APIaddresses[2]);\n    \n    }\n\n    /**\n    @dev\n    This function calls the oracles by building the request then calling the internal\n    fulfill() function. \n    Each fulfill adds new data to the oracleData[] array and increments the index.\n     */\n    function oracleRequest(string memory url) internal returns (bytes32 requestId) \n    {   \n        // oracle request happens here. URL is passed as var url\n        // args are jobID, callback address (this contract) and fulfill function from this contract\n        Chainlink.Request memory request = buildChainlinkRequest(jobID, address(this), this.fulfill.selector);\n        \n        // Set the URL to perform the GET request on\n        request.add(\"get\", url);\n        request.add(\"path\", \"data.0.number\");\n        \n        // Sends the request\n        return sendChainlinkRequestTo(oracle, request, fee);\n    }\n\n    function fulfill(bytes32 _requestId, uint _value) public recordChainlinkFulfillment(_requestId){\n        // fulfill will be called 3x: 1x for each call to OracleRequest (via this.fulfill.selector arg)\n\n        // assign data from oracle to position in oracleData array\n        oracleData[index] = _value; \n        // iterate through array indexes\n        index = index+1; // increment index\n        // calculate weighted mean of data in oracleData array\n        aggregateData = ((w1*oracleData[0]/100)+(w2*oracleData[1]/100)+(w3*oracleData[2]/100))/3;\n    }\n\n\n    /**\n    @dev\n    ensures a sufficient number of oracles return valid data\n    avoids accidentally centralizing workflow by relying on 1 oracle\n     */\n    function validateOracleData() internal {    \n\n        for (uint16 i = 0; i<oracleData.length; i++) {  //for loop example\n            if (oracleData[i] ==0){\n\n                badOracles++;\n            } \n        }\n\n    }\n\n\n\n\n    // VIEW FUNCS\n\n    function viewValueFromOracle() public view returns(uint256 viewValue){\n        //  show aggregated oracle data to user\n        viewValue = aggregateData;\n    }\n\n    function checkIdForCustomer(address _customer) public view returns(int){\n        return(customerToAgreementID[_customer]);\n    }\n\n    function checkIdForDonor(address _donor) public view returns(int){\n        return(donorToAgreementID[_donor]);\n    }\n\n    function checkvalueForAgreementId(int agreementId) public view returns(uint256){\n        return(agreementIdToValue[agreementId]);\n    }\n\n    function checkDepositAmount() public view returns(uint256 deposit){\n        // view function to show user how much DAI was deposited\n        deposit = depositedFunds;\n    }\n\n    function checkBalance() public view returns (uint256 dai_balance, uint256 adai_balance) {\n        \n        // balance of DAI and aDAI in contract\n        // aDAI is the debt token from the Aave pool\n        \n        dai_balance = dai.balanceOf(address(this));\n        adai_balance = adai.balanceOf(address(this));\n\n    }\n\n    // MODIFIERS AND ACCESSORY FUNCTIONS\n    \n    modifier onlyOwner(){\n        require(owner==msg.sender);\n        _;\n    }\n    \n\n    function stringToBytes32(string memory source) public pure returns (bytes32 result) {\n        bytes memory tempEmptyStringTest = bytes(source);\n        if (tempEmptyStringTest.length == 0) {\n            return 0x0;\n        }\n\n        assembly {\n            result := mload(add(source, 32))\n        }\n    }\n}\n","sourcePath":"contracts/BrightLink.sol","type":"contract","deployment":{"address":"0xF2d4c7D21c8FE6B8e5f5D4970C8D539e60d556B6","chainid":"42","blockHeight":27033780}}